:020000040800F2
:1000000080230020C51B0008C9140008B11B00088C
:10001000B11B0008B11B0008B11B00080000000064
:10002000000000000000000000000000C91C0008E3
:10003000B11B000800000000951C00086133000897
:10004000811E0008811E0008811E0008811E000814
:10005000811E0008811E0008811E0008811E000804
:10006000811E0008811E0008811E0008811E0008F4
:10007000811E0008811E0008811E0008811E0008E4
:10008000811E0008811E0008811E0008811E0008D4
:10009000811E0008811E0008811E0008811E0008C4
:1000A000811E0008811E0008811E0008811E0008B4
:1000B000811E0008811E0008811E0008811E0008A4
:1000C000811E0008811E0008811E0008811E000894
:1000D000811E0008811E0008811E0008811E000884
:1000E000811E0008811E0008811E0008811E000874
:1000F000811E0008811E0008811E0008811E000864
:10010000811E0008811E0008811E0008811E000853
:10011000811E0008811E0008811E0008811E000843
:10012000811E0008811E0008811E0008811E000833
:10013000811E0008811E0008811E0008811E000823
:10014000811E0008811E0008811E0008811E000813
:10015000811E0008811E0008811E0008811E000803
:10016000811E0008811E0008811E0008811E0008F3
:10017000811E0008811E0008811E0008811E0008E3
:08018000811E0008811E000829
:1001880053B94AB9002908BF00281CBF4FF0FF31F6
:100198004FF0FF3000F00CB8ADF1080C6DE904CE5B
:1001A80000F008F8DDF804E0DDE9022304B0704748
:1001B800704700BF2DE9F04786468C460846089EE2
:1001C800154674461946002B40F0C2808542B2FAA3
:1001D80082F245D94AB1C2F1200300FA02FC2EFA94
:1001E80003F3954043EA0C0C94404FEA154EA8B22D
:1001F800BCFBFEF8230C0EFB18CC08FB00F943EA05
:100208000C43994528D9EB1808F1FF3704D29945D2
:1002180002D9A8F102072B44A3EB0903A4B2B3FB4C
:10022800FEFC0EFB1C330CFB00F044EA0344A04226
:1002380014D92C190CF1FF3304D2A04202D9ACF125
:1002480002032C44241A43EA07401EB1D440002379
:1002580034607360BDE8F0874746DDE76346F1E741
:1002680092BB431B01214FEA154EAFB2B3FBFEFC14
:10027800200C0EFB1C330CFB07F840EA034398459F
:1002880062D9EB180CF1FF3004D2984502D9ACF1D1
:1002980002002B44A3EB0803A4B2B3FBFEFC0EFB45
:1002A8001C330CFB07F744EA0344A7424ED92C1928
:1002B8000CF1FF3304D2A74202D9ACF102032C445B
:1002C800E41B43EA0040C0E7C2F1200320FA03F12F
:1002D800954090402EFA03F303434FEA154EAFB210
:1002E800B1FBFEFC0EFB1C10190C0CFB07F841EAD5
:1002F8000041884504FA02F422D969180CF1FF304C
:1003080004D2884502D9ACF102002944A1EB0801C6
:100318009BB2B1FBFEFC0EFB1C110CFB07F743EA7A
:1003280001439F420ED9EB180CF1FF3104D29F42D2
:1003380002D9ACF102012B44DB1B41EA004192E7F0
:100348006046E3E76146F7E76046A3E76346B7E739
:10035800834206D916B9002108467BE7C6E900E0C2
:10036800F9E7B3FA83F78FB9834201D3724508D806
:10037800BEEB020460EB030301209C461EB900217A
:1003880068E73846FAE7C6E9004CF8E7C7F1200CF9
:10039800BB4022FA0CF41C432EFA0CF120FA0CF3A1
:1003A800B84001434FEA14490EFA07F5B3FBF9F8D0
:1003B8001FFA84FE09FB18300B0C08FB0EFA43EAFF
:1003C80000439A4502FA07F240D9E31808F1FF30D2
:1003D80004D29A4502D9A8F102002344A3EB0A03E8
:1003E80089B2B3FBF9F809FB183308FB0EFE41EAA2
:1003F80003418E452CD9611808F1FF3304D28E458C
:1004080002D9A8F10203214443EA0040A0FB029864
:10041800A1EB0E014145CE46434602D306D14D45D8
:1004280004D2B9EB020E68EB04030138002EA6D003
:10043800B5EB0E0261EB030101FA0CFC22FA07F39B
:100448004CEA0303F940C6E9003198E74046C5E79E
:100458004346D9E7034613F8012B002AFBD1181AA3
:100468000138704710B5012303FA01F143680469A4
:100478001B6819420ED10E490E4A0F484FF4CB6340
:1004880005F04FFA0D4805F04CFA0A484FF4CB61D5
:1004980005F03EFA2368194218BF82F0010222B122
:1004A8008368DB68BDE81040184783681B69F9E773
:1004B800B36D0008826D0008F16D00080E6E00082B
:1004C8002DE9F04103460C46DA8800681979224381
:1004D80002F03003302BD0E9017605690ED12549A9
:1004E800254A264840F2D33305F01BFA244805F084
:1004F80018FA40F2D331204805F00AFA214B224C71
:100508001340A3420CD121491B4A1C4840F2D7335F
:1005180005F007FA1E4805F004FA40F2D731EAE779
:1005280002F00603042B09D11A49134A134840F272
:10053800DA3305F0F6F940F2DA31DCE73B680124FA
:100548008C401C420CD114490B4A0C4840F2ED3344
:1005580005F0E7F9114805F0E4F940F2ED31CAE792
:100568002B68D7074CBF2343A3432B603368BDE8F0
:10057800F0411847206E0008826D0008F16D0008F0
:10058800596E00080200030002000100966E000880
:10059800DD6E00082C6F0008B36D00080E6E0008B1
:1005A8002DE9F34705464FF4003110461446FFF78E
:1005B80087FF4FF480312846FFF782FFDFF88480F9
:1005C800214F224E2B7928684FF0010909FA03F9C7
:1005D80043681B6819EA030F0ED11D491D4A1E48BE
:1005E80040F2FF5305F09DF91C4805F09AF91948A7
:1005F80040F2FF5105F08CF9D0F810A0836801A9EA
:100608005B689847217938B9DAF80020019B20689F
:10061800534013EA090207D020680122FFF722FF9E
:10062800404605F068F9CDE7FFF71CFF384605F0AE
:1006380062F9304604F080FE0948836848215B6807
:100648009847BFE75F6F00086B6F0008786F000876
:10065800B36D0008826D0008F16D00080E6E000889
:100668006866000808B50023024A03481946FFF7E0
:1006780097FF00BFEC690008E0690008B2F5802F19
:100688002DE9F0410ED33C493C4A3D4840F2EB137A
:1006980005F047F93B4805F044F940F2EB113748BB
:1006A80005F036F9042A0CD83749344A34484FF44F
:1006B800F97305F036F9354805F033F94FF4F97157
:1006C800EDE7043ACD1D8E1825F0070526F007063C
:1006D800761B172E4FEAD6070CD82D49274A2848EB
:1006E80040F2FB1305F01DF9284805F01AF940F20D
:1006F800FB11D4E7B7FA87F4C4F12002C4F124044B
:10070800A4000734E408631C4FF00008BB420560EE
:10071800AF60C5F80C800CD91E49184A18484FF428
:10072800037305F0FEF8194805F0FBF84FF4037160
:10073800B5E74146920005F1100005F0C0FE6300E0
:1007480043F001036B8005EBC4023B1B5900A5F87D
:1007580000805180AA1925F83440A2F80280AB53D2
:1007680005EBC70321465A8842F001025A80284601
:10077800BDE8F04105F063B865700008976F0008A0
:10078800F16D00087B70000892700008B3700008D3
:10079800CC700008F57000082DE9F04F91B084077F
:1007A800009302F004030293C2F3C20303F10103AE
:1007B800DDF86880039205460E46059340F0F58102
:1007C800041D30B1072909D86FF01B0011B0BDE82E
:1007D800F08F01F00706341DC6F10806009B4FF0A4
:1007E8000009013B4FF0040B0193CDF810904F46E0
:1007F8004B464FF0FF32DA460DB10099216005985B
:10080800002800F3D78098480099814203D397487D
:100818008142C0F0CF800399A4EB050E89074FEA07
:100828009E0040F1E2804FF0000CCCE07A285AD8C4
:100838004B280CD8472856D829282AD8252851D0FB
:1008480051D8202877D023384342434173E04C38AD
:100858002E2848D8DFE800F06F4747474747474703
:1008680047474747494747474747474747594749FA
:10087800495959596F496C476F4718491847478074
:100888007D49474749477D00002000234FF0040B6E
:1008980039E02A38C0B2012101FA00F010EA0E0F3F
:1008A80049D110F0625C30D110EA010343D06046B0
:1008B800013C5C44B4FBFBF40BFB04F4002D60D05A
:1008C800AAEB050CA444B4453FF67EAF00286AD1D4
:1008D800BAF1040F45D158F8040B206004344FF0E6
:1008E800040A28E0013A002325E0019B13F8013CA3
:1008F8006C2B33D1019B13F8023C00206C2B034670
:10090800C4D14FF0080BDA46D2E708F1070828F0FF
:1009180007080734F8E802AB24F0070435B1069855
:100928002044B0423FF650AFC4E900AB083400237E
:100938004FF0080BDA46019911F8010F01910028D0
:1009480000F0BB80002B7FF471AF2528F3D1013272
:1009580001234FF0040BEDE7184696E70020034605
:10096800A6E7BAF1080F40F09A8008F1070828F0C6
:100978000708F8E80201C4E9000108344FF0080A42
:10098800D9E780B9BAF1040F02D108F10408A5E744
:10099800BAF1080F40F0838008F1070828F007082B
:1009A80008F10808E9E705990139059158F8041B89
:1009B800009121E7039988074AD5A4EB050E4FEA71
:1009C8009E004FF0010CBEF5007F1ED32849294A2E
:1009D800294840F27B2304F0A4FF284804F0A1FF33
:1009E80040F27B21234804F093FF0F2F0FD8002DEE
:1009F80048D007F140010DEB010C0CF8200C0CF865
:100A0800102C04980130049021E00F2F0CD91849BC
:100A1800184A19484FF4207304F083FF184804F06B
:100A280080FF4FF42071DDE7CDB107F140010DEBF8
:100A3800010EC0B20EF8200C0EF8102CBCF1000FFD
:100A4800DFD060F07F000EF8200C09F101090137B2
:100A5800C5F10801043406914FF6DA7E6BE7BCF164
:100A6800000F0FD00136F2E7EC640008FC8700089D
:100A78005D6F000820710008F16D00084E710008D4
:100A88006F710008029802360028E0D10098CDE97D
:100A98000632FFF7DFFCDDE906320644D7E7444AB1
:100AA8004449454840F2C52304F03BFF51464348BA
:100AB80004F037FF40F2C52194E7631BB3F5806F5C
:100AC8000CD33C493A4A3C4840F2D12304F029FF70
:100AD8003B4804F026FF40F2D12183E71DB9A6F177
:100AE8000804E01872E6029A28609B082B709DF8AB
:100AF8001030C2B1EB7085F80290B9F1000F05D043
:100B080008A80022C5F1010C97420ED1C5F10103D6
:100B18000DF120084FF0000A01930DF1300B5745F5
:100B280012D1601B52E66B70E5E710F8013B19061D
:100B380008D504EB0C0EB64503F07F033FF644AE30
:100B480004F8013B0132DFE7B9F1000F03D098F94F
:100B58000020002A17DB029BD3B11AF80B2004F8F7
:100B6800012B0022019B98182044B0423FF62CAE7E
:100B780098F8000004F8010B00990392204605F04C
:100B880090FC039A14440AF1010A08F10108C6E727
:100B980098F8002055F822300093029B45F822303F
:100BA8000098FFF757FC421CDCE76FF00D000DE6DC
:100BB800207100085D6F0008F16D00088971000858
:100BC8009E710008014B1860704700BF00000020AC
:100BD80080B505460E461746984603F091FF034632
:100BE80005F076FCDFF81890044649F800304246D4
:100BF80030463946A84754F8090000F0F5FF00BF11
:100C080008000000034A536823F0020353600020E1
:100C1800704700BF002004E0074A136843F0100340
:100C28001360064B064A1A60064A536843F00103EC
:100C380053600020704700BF002002407800002069
:100C480000127A00002004E02DE9F84FDFF8F8A040
:100C58003E4FAAEB07038F2B814688460BD93C49A8
:100C68003C4A3D4840F23F1304F05BFE40F23F111E
:100C7800384804F04DFE394804F06BFE064600285B
:100C880034D13C4605464FF0010B544527D9344929
:100C9800304A31484FF4A67304F043FE314804F05B
:100CA80040FE4FF4A671E3E7237B6BB12368DB6852
:100CB8000BB12046984723681B6943B9636804222F
:100CC8001968204600F00AF901361034DDE720469D
:100CD80098470028F2D00BFA06F31D43F4E7E3D354
:100CE800B9F1000F02D04FF0010A0DB9BDE8F88F35
:100CF800A94695FAA5F4B4FA84F40AFA04F326018D
:100D080007EB04146FEA030B25EA0305237B5BB1A9
:100D1800BB591B699BB93E44042273682046196875
:100D280009EA0B0900F0DAF8002DE2D1B8F1000F5A
:100D380003D06420002103F0ABFE4D46D5E72046E2
:100D480098470028F0D1E6E7D8690008C869000884
:100D5800F3710008C6710008F16D000888030020CF
:100D68002372000844720008014B53F820007047B2
:100D7800F869000808B5034608462BB1044A136011
:100D880000F0F0FA002008BD6FF01500FBE700BF87
:100D980004000020054A064800231370054A136022
:100DA800054A4FF47A711360FFF7E4BFFC04002092
:100DB8004B590008800300208403002070B5134DB0
:100DC800297809BB0120FFF73FFF114C114EB442AF
:100DD80017D91149114A12484FF4DC7304F0A1FDE8
:100DE800104804F09EFD0D484FF4DC7104F090FDAE
:100DF80063685B791BB1236820469B689847103469
:100E0800E5E7F5D301232B7070BD00BFFC0400207B
:100E1800C8690008D869000823720008C67100086C
:100E2800F16D00084472000810B50446084804F043
:100E380090FD5CB1BFF35B8F064B53E8001F01398F
:100E480043E80012002AF8D1BFF35B8F10BD00BF42
:100E5800800300208403002070B5124B124C1B68DD
:100E6800124E05469847A860B44218D91049114A4D
:100E7800114840F2F31304F054FD104804F051FDFA
:100E88000C4840F2F31104F043FD63685B7923B129
:100E9800236829461B68204698471034E4E7F4D3B2
:100EA80070BD00BF04000020C8690008D8690008A8
:100EB80023720008C6710008F16D0008447200082A
:100EC800044A054B9B1AB1EBD30F34BF52F83100DB
:100ED8000020704780690008C86900080E4BC31AD3
:100EE8001B11013310B5DBB248B90C490C480D4A47
:100EF800DF2304F016FD0B48DF2104F009FD4468E8
:100F0800237143689A7143681960436801225A71D2
:100F1800BDE8104004F03FBDC8690008E77200084A
:100F2800F16D0008AF7200082DE9F04F85B002AFEF
:100F3800D7E90EA93D6B04460E4693469846BAF18A
:100F4800000F17D0C7F80490CDF8009010217A6BE5
:100F580053460020FFF720FC011E0CDA2049214AE5
:100F6800214840F2631304F0DCFC40F263111D4891
:100F780004F0CEFC51461D4A04F007040BF0070BA1
:100F8800E40044EA8B1402EA4122144344EA05547B
:100F980017350D4425F00705ADEB050D02ADBAF187
:100FA800000F13D0CDF800907A6B534605F110006E
:100FB800FFF7F2FB002809DA09490A4A0A4840F211
:100FC8007D1304F0AEFC40F27D11D0E74346224683
:100FD8003146284604F0E2FC0C37BD46BDE8F08FE8
:100FE8003373000807730008F16D000800FE0F0056
:100FF800406820B1034BC01A40F3CF0070474FF050
:10100800FF307047806900080EB403B503AB014692
:1010180053F8042B0448019301F064F902B05DF819
:1010280004EB03B0704700BFD7590008CA0605D4BF
:101038008B064CBF02490349FFF7E6BF704700BF64
:10104800E28300083D7300082DE9F04F89B09B4604
:10105800149B06939DF84CA0159B0593169B179E11
:10106800049304460D469046BAF1000F00F0AD8097
:10107800BAF1040F0BD9A349A34AA44840F262234A
:1010880004F04FFC40F262219F4804F041FC06F452
:101098008073079304F080FC06F0020902460028DA
:1010A8003FD09B492046FFF7AFFF0746B9F1000F35
:1010B80008D016F0440F36D196492A462046FFF745
:1010C800A3FF074406F0010353B1934B934953F828
:1010D8002A20934B2046002A08BF1A46FFF794FFA0
:1010E80006F48073002B4AD006F00803002B64D165
:1010F800B8F1000F67D08B4942462046FFF784FFBE
:101108000546069B3D44002B6ED1049B002B40F006
:101118008380F30700F1F08031462046FFF786FF11
:10112800E4E00746C2E7804B18680028C9D07F4B27
:101138004FF47A791B68B5FBF3F54FF46161B5FBA1
:10114800F0F300FB135509FB05F54FF03C0CB3FB1E
:10115800F1F201FB1231B5FBF0FEB1FBFCF300FB31
:101168001E550CFB131109FB05F50091B5FBF0F5B5
:101178006F49CDE901E52046FFF746FFA1E706F0F4
:101188000803EBB16B4B6C4953F82A202046FFF754
:101198003BFF0546B8F1000F05D06249424620469C
:1011A800FFF732FF0544BBF1000FAAD063495A4646
:1011B8002046FFF729FF0544A3E74FF0000BE1E7BE
:1011C80006F00805E6E745469BE7BBF1010F069BDD
:1011D80006D1DBB9049B002B00F0888000251BE0BA
:1011E800002BF7D0564812E05648069B564922462F
:1011F80004F04CFB00280CDA5449434A43484FF4A6
:101208002F7304F08EFB4FF42F713DE74D48554680
:10121800EBE7049B002B65D0DFF83481DFF83491CD
:10122800049F3146102F204628BF1027FFF7FEFEE7
:101238004FF0000B5D4542DC059B49461A78204675
:10124800FFF7E2FE4FF0010B1BF0070F03D14146F9
:101258002046FFF7D9FE5F4538D9059B494613F864
:101268000B202046FFF7D0FE0BF1010BBBF1100F4E
:10127800EAD1394920464FF0000BFFF7C5FE5A4620
:10128800059B9A5CA2F120015F2928BF2E223349D1
:101298002046FFF7B9FE0BF1010BBBF1100F1AD076
:1012A8001BF0070F03D141462046FFF7ADFE5F450F
:1012B8005A46E5D841462046FFF7A6FEEBE74146E9
:1012C8002046FFF7A1FE0BF1010BB3E724492046A6
:1012D800FFF79AFEC8E7059B3B440593049BDB1B7D
:1012E80004939DD1BAF1000F7FF413AF204609B0E3
:1012F800BDE8F04F04F095BB094A08492046FFF7BE
:1013080083FE09E77473000845730008F16D00084F
:101318008073000884730008086A0008A97300082D
:1013280040730008AC730008900300208C03002071
:101338008D7300081C6A0008B0730008B6730008B3
:10134800F3590008D7590008ED220008BB730008BC
:10135800CC730008C4730008CE730008D07300086B
:10136800CA730008074A00210123904206D8064A9A
:1013780001B901231360054B1860704740085B00F2
:101388000121F2E740420F008C0300209003002067
:10139800F8B5074F0D4604464618B44201D1284611
:1013A800F8BD14F8011BBB6801485B689847F4E76F
:1013B8006866000810B543681C68094804F0AEFF69
:1013C80048B908490848094A992304F0AAFA07487D
:1013D800992104F09DFA23685B685C6010BD00BF2A
:1013E8006866000831740008F16D0008F37300089E
:1013F800014B036000207047646A000870B5064618
:1014080086B00D46002938D08B6805934B68049345
:101418000B6803930024244B24490293012223469A
:101428002046CDE9004404F05BFB6B6905932B690A
:101438000493EB6803931E4B1C490094CDE90143C8
:1014480001222346204604F04BFBEB690393194B1A
:1014580016490094CDE9014301222346204604F0B1
:101468003FFBAB690393144B10490094CDE901434A
:1014780001222346204604F033FB012E0DD1EFF361
:101488000583103B03930D4B02930023CDE90033F2
:1014980006493246184604F023FB2946304606B072
:1014A800BDE8704002F0DCBA65740008A86900085D
:1014B80094740008C3740008D2740008007500080A
:1014C80008B5034B1B689847BDE8084000F026B8EC
:1014D8001000002030BFFFF7FDBF00BF2DE9F0412D
:1014E8000B4EDFF8308006EB0807CC1B054632466A
:1014F8000949204604F0D5FFA01942460021083CBE
:1015080004F0DDFF2C6707F10800BDE8F08100BF9B
:101518000000000004000000D8690008074A93682A
:1015280093F90E10002907DB526993421FBF044A42
:10153800536843F080535360704700BFC4040020D1
:1015480000ED00E0F0B585B00024434B0293CDE9EF
:101558000044234607460E4601224049204604F02F
:10156800D3FA3F4B9B6ADB0465D53E4B3B4900945D
:10157800CDE9014320462346012204F0C5FA17208D
:10158800374B9B6A1D050AD5374B02930023184633
:10159800CDE900333149012204F0B6FA1820304D64
:1015A800AB6A9C051FD50024304B029301222346C9
:1015B8002046CDE90044294904F0A6FAAB6BAA6A93
:1015C80010040FD503932A4B24490094CDE9014315
:1015D80001222346204604F097FA1FB1AB6A23F490
:1015E8000043AB6219201E4B9B6A59050AD5214B53
:1015F800029300231846CDE900331849012204F06C
:1016080083FA1A20164A936A13F4807315D01A4B7A
:10161800029300231846CDE900331049012204F053
:1016280073FA1B200E4A936A43F47F4393620023A4
:10163800337005B0F0BD1620A2E7926A9204F1D586
:101648000E4A06490093CDE901321846012204F0FA
:101658005BFA1C20E6E700BF13750008A8690008BC
:1016680000ED00E0297500083A7500084D7500087E
:10167800667500087B75000896750008AE75000849
:101688001FB50024374B029301222346CDE90044BD
:101698003549204604F038FA344B9B6A9A015ED5E6
:1016A800334B31490094CDE90143204623460122BA
:1016B80004F02AFA1E202D4B9B6ADB010AD52D4B1C
:1016C800029300231846CDE900332749012204F08C
:1016D8001BFA1F20254B9B6A1C030AD5264B029335
:1016E80000231846CDE900331F49012204F00CFA03
:1016F80021201E4B9B6A59030AD5204B02930023D5
:101708001846CDE900331849012204F0FDF92220DA
:10171800164B9B6A9A030AD5194B02930023184665
:10172800CDE900331049012204F0EEF923200F4BD4
:101738009B6ADB030AD5134B029300231846CDE9B5
:1017480000330949012204F0DFF92420074A936A8B
:101758006FEA03436FEA1343936204B010BD1D2080
:10176800A9E700BFDD750008A869000800ED00E0E2
:10177800F57500080876000822760008407600080B
:10178800657600087F7600082DE9F04385B00024CF
:10179800564B0293CDE900442346804689462046AD
:1017A80053491646012204F0AFF9524B9B6AD806FA
:1017B80040D5514B0094CDE90143204623464C497E
:1017C800012204F0A1F911244A4B9B6A19070AD592
:1017D8004A4B02930023CDE90033454901221846BC
:1017E80004F092F91224434DAB6A9A0724D50024D9
:1017F800434B0293CDE9004423463D49012220464C
:1018080004F082F96F6BAB6A1B0659D53D4B38491A
:101818000397CDE90143009423460122204604F0B2
:1018280073F9B9F1000F03D0AB6A23F08003AB6200
:10183800132403E01024C7E76FF015072D4B9B6AAC
:10184800D8070AD5304B02930023CDE90033284945
:101858000122184604F058F91424264B9B6A99066D
:101868000AD52A4B02930023CDE9003320490122EF
:10187800184604F049F915241E4DAB6ADA0602D45D
:10188800AB6A9B070AD56B68180507D541463846E9
:1018980000F0A8FAB8B180F309880224154B9A6AB7
:1018A800920642BF5A6A22F400525A629A6A42F079
:1018B800FF029A6220460023337005B0BDE8F0832A
:1018C8006FF01507B4E7AB6AD906E7D51049114A96
:1018D800114840F25D1304F024F8104804F021F890
:1018E8000C4840F25D1104F013F800BFAA76000816
:1018F800A869000800ED00E0C07600083A75000805
:10190800F37600080B77000821770008AE75000809
:101918007277000840770008F16D0008BC7700086E
:101928002DE9F041894B0446586890B0C0F3080689
:10193800002383F31188BFF36F8F02F07F45B5F161
:101948007F4F0CD102F00C05082D17D1804A814930
:101958000093CDE901321846012204F0D5F87E49FA
:101968007E4A7F484FF48B6303F0DBFF7D4803F02A
:10197800D8FF4FF48B61794803F0CAFF120746BFBE
:101988000C461D460125002CE9D04FF00008F31E37
:101998008DF81F80092B00F2BF80DFE803F005B344
:1019A800B796BDBDBDBDBDBB6F4B6A49674FCDF88E
:1019B8000080CDE9018300230122184604F0A4F831
:1019C8008DF81F80FE6A16F0020605D0674BCDF829
:1019D8000080CDE9018306E0FB6A002B0BDA644B3B
:1019E8000096CDE9016300235A490122184604F004
:1019F8008BF8002230E0FB6A5B0076D55D4B5549D9
:101A08000096CDE9016301223346304604F07CF8A4
:101A18007B69A26943F480737B61BFF34F8FBFF387
:101A28006F8F7B6932F8022C23F480737B61BFF3DC
:101A38004F8FBFF36F8F4DF602739A422CD12368F4
:101A480003934D4B43490096CDE901630122334688
:101A5800304604F059F822689DF81F30CBB908AE1B
:101A680004F1200720686168334603C30834BC4288
:101A78001E46F7D10F9B002D62D0C3F3080121B990
:101A88006FEA53236FEA43230F9308A91046FFF721
:101A9800B5FC10B0BDE8F081BB6ADBB23BB10DF11B
:101AA8001F0201212046FFF76FFE0246D4E7BB6AFA
:101AB80013F47F4F05D00DF11F010120FFF742FD00
:101AC800F3E7BB6AB3F5803F02D3FFF7D9FDECE734
:101AD8002A49224A224840F22A3303F022FF2848A2
:101AE80003F01FFF40F22A3145E724491B4A1C48EE
:101AF80040F22E3303F015FF224803F012FF40F2A4
:101B08002E3138E70DF11F020021CBE70DF11F013F
:101B18000020D3E71C4B5AE71C4A1D4B0D4910F413
:101B2800F87F18BF1346103ECDE90336194B0293D0
:101B38000023CDE900330122184603F0E5FF58E7FA
:101B480023F4FF7323F001039EE700BF00ED00E0DC
:101B58000D780008A8690008387800084077000860
:101B6800F16D00084B78000889780008A078000813
:101B7800C1780008CF780008EE7800085D6F00088B
:101B88000A7900082E7900085E790008F4770008C1
:101B9800DF77000882790008024A536943F010038E
:101BA8005361704700ED00E0EFF30880EFF309811F
:101BB80001B57246FFF7B4FE01BD00BF102080F3E7
:101BC800118808484FF40461401880F30988EFF33E
:101BD80014800221084380F31488BFF36F8F00F04C
:101BE800C1F80000C0150020084B9B6883420BD148
:101BF800EFF3058343B1064B5A6842F080525A60AE
:101C08005A6A22F400425A6202F080BFC4040020DB
:101C180000ED00E0094A93686FF00A0199670849E6
:101C280058674B6843F080534B60002383F3118857
:101C3800BFF36F8F9368986F704700BFC40400208C
:101C480000ED00E010B50446EFF31183102383F391
:101C58001288BFF36F8F0A4B58699860094B4FF091
:101C680000625A60084B026F1A600022436F426795
:101C780083F31188BFF36F8F00F01CF9204610BD65
:101C8800C404002000ED00E0B80300200B498A6876
:101C98004FF030001044EFF3098C80E8F01F7446D1
:101CA8007046FFF7CFFFA64604498A6802F1300064
:101CB80090E8F01F8CF3098870470000C4040020E6
:101CC8001EF0040F0CBFEFF30880EFF30980816961
:101CD80011F8021C0229FFD001B503F011FF01BD64
:101CE80040B2002807DB044A4109012300F01F0025
:101CF800834042F82130704700E100E038B54B1CC2
:101D08000F2B04460D460FD9114A12491248582381
:101D180003F007FE114829460F23224603F001FE6F
:101D28000B48582103F0F4FD40B20028ACBF00F185
:101D380060400B4A4FEA0313B8BF00F00F00DBB254
:101D4800AABF00F56140135480F8003338BD00BFC6
:101D580095790008CC790008F16D0008E77900084A
:101D680014ED00E00F4A08B50F4B22F07F029A608D
:101D7800BFF34F8FBFF36F8FD3F8882022F4700220
:101D8800C3F88820EFF3148323F0040383F3148843
:101D9800BFF36F8F01F07CFF03F02AF800F060F8C2
:101DA80001F0BAFF0000000800ED00E042F8203C16
:101DB800009B42F81C3C0A49019B42F8183C029BD4
:101DC80042F8143C21F001014FF0807342F8043CC2
:101DD80042F8081C0023203A02654367704700BF99
:101DE800D90B0008094A0346906870B113F1160F21
:101DF800006E05D0A0F140029A4205D8834203D272
:101E0800814228BF0020704700207047C40400208A
:101E180008B515460B4A0C4B9060026F1A600E46C7
:101E280000F048F82C4686F309884FF00000074B6D
:101E3800984720464FF000014FF000024FF0000392
:101E4800034C2047C4040020B8030020395B000875
:101E5800D90B0008014B10221A61704700ED00E011
:101E6800044800231021C2180133522B82F80013B2
:101E7800F9D1704700E100E008B5EFF30583064AA1
:101E8800103B02EBC30152F8330049688847BDE8AC
:101E98000840FFF743BB00BF90660008024B034AA7
:101EA8000348012100F096B800A00020000000209F
:101EB800646A0008026E054B403A1A60044A4021E1
:101EC800C3E901121846012100F0AAB8BC0300209A
:101ED80000000B151FB5144AD2F89030C3F307233E
:101EE800013B98420FD9114B029300230390CDE98F
:101EF800003318460E49012203F03EFE6FF015002C
:101F080005B05DF804FBC2F898000B6823F01F03C6
:101F1800034343F01003C2F89C308B6843F001037D
:101F2800C2F8A030ECE700BF00ED00E02B7A000813
:101F3800A0690008F0B50E4689B01F460446002582
:101F4800B54212DA606838B3BFB1431E18420FD0E9
:101F5800134B02930023CDE9003312490395012264
:101F6800184603F009FE6FF01502104609B0F0BDDF
:101F78001F28EDD921680B42EAD12368059303F0A5
:101F8800EBFDA36805A90343D0B20793FFF7A2FFAF
:101F980010F1160FE7D0421C01350C34D0E700BF12
:101FA800517A0008A0690008044B0522C3F8942060
:101FB800BFF34F8FBFF36F8F704700BF00ED00E096
:101FC800BFF35F8F024B0022C3F89420704700BF15
:101FD80000ED00E038B50D4D01232A780C46FFF7D7
:101FE800A9FF287016300FD1094A0A490A4840F259
:101FF800671303F096FC0948214603F092FC044855
:1020080040F2671103F084FC38BD00BFFE040020D5
:10201800747A00085D6F0008F16D0008A37A000863
:1020280010B5144A002312780C46FFF783FF10F10D
:10203800160F08D0104A0021D2F89030C3F30723B6
:10204800984210DB10BD0D4A0D490E484FF4C3737A
:1020580003F067FC0C48214603F063FC07484FF483
:10206800C37103F055FCC2F89800C2F8A010013003
:10207800E2E700BFFE04002000ED00E0747A0008EB
:102088005D6F0008F16D0008CF7A00082DE9F04F68
:102098007B4C7C49D4F890300D68C3F307239D42EC
:1020A80085B013D9784A794979484FF4CF7303F04A
:1020B80038FCD4F8902077482946C2F3072203F069
:1020C80030FC4FF4CF71704803F022FCFFF778FF23
:1020D80049680022954201F10C012DD16E4C6F4FD9
:1020E80025706846FFF784F9DFF8B481DFF8B4910A
:1020F80006460025AE4232D1237861490020D1F846
:102108009020C2F307229342C0F2AF80FFF74CFF42
:10211800D1F89030C3F30723082B00F0AC80624954
:10212800594A5B4840F20E2303F0FBFB5F4803F07B
:10213800F8FB40F20E21C6E7C4F8982051F80C3C91
:1021480023F01F03134343F01003C4F89C3051F8E5
:10215800043C43F00103C4F8A0300132BAE7009A06
:1021680002EB05132901D3F80CA00AEA0700B0F521
:10217800000F60D00AD8B0F5001F38D0B0F5800F36
:102188004ED0B0F5801F12D00135B3E7B0F1807F93
:102198005CD0B0F1007FF7D19868D3F804A052580A
:1021A80003F0DAFCCDE901A240F480200BE0986846
:1021B800D3F804A0525803F0CFFCCDE901A240F0B7
:1021C800885040F430200390207801A9FFF782FE60
:1021D800002846DA2D492C4A2D484FF4E47303F0C1
:1021E800A0FB334803F09DFB4FF4E4716BE798685C
:1021F800D3F804B0525803F0AFFC1AF0010F40EACC
:102208000800CDE901B20390DED02A491E4A2048D1
:102218006C2303F086FB284803F083FB6C2152E70C
:102228009868D3F804A0525803F096FCCDE901A2AF
:1022380040EA0900C7E79868D3F804A0525803F0A9
:102248008BFCCDE901A240F08270BCE79868D3F816
:1022580004A0525803F080FCCDE901A240F0887038
:10226800B1E72378013323708EE7C1F89830C1F8BD
:10227800A000013343E7002005B0BDE8F08F00BFA0
:1022880000ED00E0706A0008747A00085D6F0008CD
:10229800F16D0008FC7A0008FE0400200000F0FF41
:1022A8000000081100000207AF7B0008FF7B000850
:1022B800857B0008307B0008567B000808B5024B78
:1022C8001B689847002008BDC8030020034B044A38
:1022D8001860937843F0020393707047C803002096
:1022E80014000020F0B587B007460E4614460021BA
:1022F800102268461D4604F0E2F802238DF80230E9
:102308002A46054B019321466846CDE9047603F039
:1023180033F807B0F0BD00BFA15B000808B5064957
:10232800064821F00701C1F1005202F52042FEF7EC
:10233800A5F9002008BD00BFC7240020CC03002059
:102348002DE9F0410F4E104F054600244FF00108CB
:102358002B7853FA84F01F280DDC726908FA00F311
:1023680033EA020207D1736157F830301BB107EB2B
:10237800C002516898476A780134E3B29A42E7D2BA
:10238800BDE8F08100040140D8030020044B184444
:1023980000230133994200F8012BFADC704700BF93
:1023A8008400002010B4064B064902460C681856F3
:1023B8000123934023430B6010BCFFF791BC00BF7F
:1023C80084000020000401401F2806DC0349012284
:1023D8000B68824023EA02030B6070470004014047
:1023E80003292AD8DFE801F0020E141F134B01223B
:1023F8009968824021EA02019960D96821EA0202BB
:10240800DA6070470D4B0122996882401143F3E767
:102418000A4B0122D96882401143D960996821EAA0
:1024280002029A607047012303FA00F0034B9A688E
:1024380002439A60DA681043D8607047000401408C
:1024480030B50A4B53F830408C4204D103EBC00539
:102458006D68954205D034B943F8301003EBC003DA
:102468005A60002030BD6FF00F00FBE7D803002052
:10247800034B002243F8302003EBC0035A60704737
:10248800D803002010B5164B18680B68052B1446A6
:1024980010D0062B08D86BB1013B052B0AD8DFE812
:1024A80003F00D0C180C0912182B07D01C2B08D0A0
:1024B800142B03D06FF0850002E00020206000207C
:1024C80010BD4008FAE700F099F828B100F096F836
:1024D800F4E749F64040F1E76FF00400F0E700BF89
:1024E80078000020F8B53A4F3A4C00F097F8384693
:1024F80003F01BFC01F05EF86368374AC3F303136B
:102508001578D35C47FA05F520FA03F6AE4202D2F5
:10251800284601F047FA236843F4802323602368A0
:1025280043F48033236023689B03FCD5636A43F03C
:1025380001036362636A9807FCD5636803F00C03C0
:10254800082B15D12368990706D4236843F00103A3
:10255800236023689A07FCD5636823F0030363604C
:10256800636813F00C0FFBD1636823F0F00363601A
:10257800236823F08073236000F032F8236843F067
:102588008073236023689B01FCD5636823F0F00304
:102598006360636823F0030343F0020363606368C6
:1025A80003F00C03082BFAD1AE4202D3284601F0FF
:1025B800F9F90A4B1F60636823F4E06343F480630E
:1025C8006360636823F4605363600020F8BD00BF54
:1025D80000A24A04001002406C8000087800002025
:1025E800054A536823F4741343F4E8135360D36A19
:1025F80023F00F03D3627047001002404FF4E0133A
:102608004FF4701292FAA2F2B2FA82F2D340024860
:1026180002335843704700BF00127A00064BDA694C
:1026280042F08052DA61DB6982B003F08053019393
:10263800019B02B0704700BF0010024008B5074870
:1026480003F06CFE38B10648FFF740FE0448FEF779
:10265800B9FA002008BD6FF01200FBE768660008B1
:102668006D2600080A2838B5074D044604D1AB6822
:102678000D215B6828469847AB6803485B68E1B260
:102688009847204638BD00BF6866000810B5036942
:1026980061B92049204A21483A2303F042F92048E9
:1026A80003F03FF93A211C4803F032F9486850B961
:1026B8001C49194A19483B2303F033F91A4803F017
:1026C80030F93B21EFE79868F8B1884219D1DC6806
:1026D80008689860A14200D1D860002008602AB13B
:1026E8009A680A60DA68996002B9D960002010E037
:1026F800814206D108682060D8688142EDD1DC604B
:10270800EBE7044600680028F2D1002AE8D16FF010
:10271800150010BDA47C0008687C0008F16D000855
:10272800AD7C0008BC7C0008CE7C000838B5036985
:1027380004465860084D284603F0F0FD40B1616832
:10274800AB680C311B682846984700EAE07038BD32
:102758006FF01200FBE700BF8C65000870B5D1E987
:10276800016119B101250C68854001B970BD8A68FD
:102778002A4010D04B6863B90A490B4A0B485D23BD
:1027880003F0CFF80A4803F0CCF807485D2103F0BE
:10279800BFF8304698471CB1236821461C46E4E739
:1027A8002346FAE7E57C0008687C0008F16D00081C
:1027B800CE7C0008F7B50C461146B1F5001F4768F6
:1027C80002691D4625D104F00302043292000F234A
:1027D800934043EA940303F003023549023251F867
:1027E8002220190C02EA134391FAA1F2B2FA82F2FA
:1027F800D340BA689A4209D12046FFF7E5FD204642
:10280800FFF736FE00212046FFF7EAFD002003B05F
:10281800F0BDB1F5800F42D026492046FFF710FEE3
:1028280000283FD1B5F1806F35D0B5F1C06F34D0F5
:10283800B5F1007F39D102261F4ABD6892E803002E
:102848006B4683E803001D48826819461268904762
:10285800C8B904F0030304339B000F229A4042EAEC
:10286800940202F003039B0003F1804303F58033D5
:10287800110C986820EA124091FAA1F2B2FA82F299
:10288800954005439D6020463146FFF7A9FD204647
:10289800FFF788FDBAE70126CEE70326CCE76FF0FD
:1028A8008500B4E76FF00F00B1E76FF01500AEE7F1
:1028B8000000014065270008D86900088C650008F9
:1028C8002DE9F047264F044600EBC1060025B44227
:1028D80001D1002014E02068C30600F01F0811D4BD
:1028E800656845F02005C0F3481AC0F344200F2856
:1028F80032D857F82090B9F1000F1CD16FF01200B0
:10290800BDE8F087B8F1100F13D0B8F1110F01D15D
:102918006568E8E7B8F1000FE5D112491248134A93
:102928004FF4887302F0FDFF10484FF4887102F0ED
:10293800EFFF3025D7E7484603F0F0FC0028DDD04C
:1029480043462A460AF00F01484603F0CBFA00280E
:1029580004F10804BBDAD3E76FF01500D0E700BF35
:102968004C6B0008787D0008F16D0008457D000873
:10297800B1F5807F22D016D8102921D00FD801298F
:1029880020D0042908BF012318BF08231049026A70
:10299800C85C02238340134023FA00F070474029A3
:1029A80008BF0323F0E7B1F5805F0DD0B1F5803F94
:1029B8000CD0B1F5806F08BF0523E5E70423E5E7F0
:1029C8000223E3E70023E1E70623DFE70723DDE748
:1029D8009E7E00082DE9F04701F1FF3C8CB0BCF168
:1029E800050FBDF850704468164698460FD98A4BB3
:1029F8000391029300231846CDE900338749012249
:102A080003F0B0FA6FF015000CB0BDE8F08722684B
:102A1800B2F1804F03D0B6F5803F00F2FA80804BC8
:102A2800032953F82C5007F4807A0BD9BAF1000F18
:102A380011D12846D146AEB9136A23EA00031362BE
:102A48000020E1E7774B53F82C90BAF1000F05D03E
:102A5800B9F1000F04D1744B0391CAE72846EAE79D
:102A68004846E8E7A36863BB013E136A07F001071D
:102A780030EA03034FEA470744D1B0F5807F00F0FE
:102A8800BE8032D8102800F0BC802AD8012800F077
:102A9800BA80042808BF012318BF08236348116AB5
:102AA800C05C0223834021EA030387401F43604B35
:102AB800176253F82C302068414698472368DE6235
:102AC800BEE7102B02D108F1FF38CDE723F0400113
:102AD800202902D0402B40F09C804FEA5808760805
:102AE800C3E7402808BF0323D6E7B0F5805F00F0AE
:102AF8008C80B0F5803F00F08A80B0F5806F08BF09
:102B08000523C9E704A803F0FFFB6023049301230E
:102B1800BAF1000F23D00693099723681B6A35EA98
:102B280003030CBF01230023059320682946FFF700
:102B38001FFF0890CDF81C80206804AA294600F0E1
:102B4800AFFDF8B13B4B029300231846CDE90033A3
:102B58003249012203F006FA6FF0040054E70593A6
:102B68000897B9F1000FE5D023681B6A39EA030317
:102B78000CBF01230023069320684946FFF7F8FE9F
:102B88000990D7E72268136843F080031360B5F50E
:102B9800807F22682BD01FD8102D2AD018D8012D5D
:102BA80004D0042D08BF012018BF0820224B195C4F
:102BB800224B1832185C5558082383402B43535036
:102BC8002368DE622268536943F00103536137E7E3
:102BD800402D08BF0320E7E7B5F5805F0BD0B5F5BA
:102BE800803F0AD0B5F5806F08BF0520DCE70420D8
:102BF800DCE70220DAE70620D8E70720D6E7042337
:102C08004CE702234AE7002348E7062346E7072361
:102C180044E76FF08500F7E6907D0008B06900088A
:102C2800E86B0008DC6B0008A57D00089E7E0008A4
:102C3800C46B0008CC7D0008B07E0008A77E0008A1
:102C48002DE9F043076945688BB0494E304603F0DB
:102C580065FB034668B9474A47490090CDE9010238
:102C6800012203F07FF96FF0120420460BB0BDE893
:102C7800F083D6F8089005F10C08D9F800304146E1
:102C880030469847041E0BDA3C4B0394029300230A
:102C9800CDE9003338490122184603F063F9E4E727
:102CA800D9F80C301BB305AA414630469847041E94
:102CB8001FDBEA68059B1C2A00D15B00D7E90101EC
:102CC8003B608368DB6803B19847686905AA0021FF
:102CD80003F01DF9041E07DB059B0022197918680B
:102CE800FFF7EEFD041E07DA254B0394CEE76FF0DD
:102CF8005704244B0394C9E705A803F0FCFA6B6852
:102D0800ADF814300024AB680693CDE9074405A953
:102D1800286800F073FC60B11B4B0094CDE90143B7
:102D2800204623461449012203F01CF96FF00404DD
:102D38009BE72B68154A93420FD002F50062934235
:102D48000BD002F54062934207D002F580629342AD
:102D580003D002F58062934203D15A6C42F40042D8
:102D68005A642A68136843F00103136000247CE75F
:102D78008C650008F67D0008B0690008157E00081B
:102D8800577E0008357E0008757E0008002C01403B
:102D980043681B6803F1080252E8002F42F0010261
:102DA80003F1080040E800210029F3D10F4A9342BB
:102DB8000FD0A2F5744293420BD002F58062934281
:102DC80007D002F58062934203D002F580629342F5
:102DD80003D15A6842F040025A6053E8002F42F487
:102DE800807243E800210029F7D17047003801407C
:102DF80043681B6803F1080252E8002F22F0010221
:102E080003F1080040E800210029F3D10F4A93425A
:102E18000FD0A2F5744293420BD002F58062934220
:102E280007D002F58062934203D002F58062934294
:102E380003D15A6822F040025A6053E8002F22F466
:102E4800807243E800210029F7D17047003801401B
:102E580030B50269436810681C680D46D9688368F4
:102E6800DB6887B05BB9154B02930023CDE90033CB
:102E780013490122184603F049F907B030BD05AAE5
:102E880098470028EFDB236823F400432360059B61
:102E980003EB5503B3FBF5F39BB2E360E3680F2B39
:102EA800EBD80849084A0948D12302F03AFD0848F6
:102EB80002F037FD0448D12102F02AFDCA7E00083D
:102EC800C0690008277F0008F87E0008F16D000837
:102ED8003C7F0008F8B50369D0F804E05E680B7918
:102EE800012B0C4635D0991E4D424D41AD026279F9
:102EF800022A9CBF404931F812C0A27988BF4FF41A
:102F0800005C042A28D0003B18BF01231B03E17989
:102F1800DEF80020012914BF00274FF44077A642AD
:102F28001DD1116821F4B05129430B431360536834
:102F380023F4405343EA0C03536043681A689368C8
:102F480023F440733B4393603168BDE8F840FFF7D2
:102F58007FBF4FF4C065CAE74FF48053D7E7D2F874
:102F680000E00EF4C06E75451FBFD2F800E02EF4E5
:102F7800C06E4EEA05051560426815686A6802F475
:102F8800405294451FBF6A6822F4405242EA0C023C
:102F98006A60426815682A6802F4805293421FBF2B
:102FA8002A6822F4805213432B6043681A68936896
:102FB80003F440739F421FBF936823F440733B435D
:102FC800936043681B689A68520405D5032909D0A1
:102FD8009A6822F4804204E0032903D19A6842F4F3
:102FE80080429A6021683368994203D0FFF730FF26
:102FF80023683360F8BD00BF7C6D00082DE9F041FF
:103008000469476806465C48206086B003F086F984
:10301800034668B9594A5A490093CDE90132012259
:1030280003F074F86FF01204204606B0BDE8F08192
:103038002068F96883681B6898470446F0B9386ABD
:1030480005AA002102F063FF041EEDDB059B0022A8
:1030580019791868FFF734FC041EE5DB75683369D5
:103068002C68D3F80480236823F001032360686880
:1030780003F054F9034670B9424ACCE7424B029335
:103088000023CDE900333E490122184603F03EF8FB
:10309800002CC9DBD3E7D5E901018368DB6803B1FC
:1030A800984754E8003F43F00C0344E80032002AF4
:1030B800F7D141463046FFF70DFF2B7D1BB1A368C2
:1030C80043F00803A3606B7D1BB1636843F40043BE
:1030D8006360AB7D1BB1636843F480336360EB7D51
:1030E8001BB1636843F4003363602B7E002B33D03D
:1030F800264B9C4216D0A3F574439C4212D003F58C
:1031080080639C420ED033680393214B02930023C3
:10311800CDE900331A490122184602F0F7FF6FF093
:10312800150481E773681A68936843F480439360D1
:1031380023686A7E23F0787343EA42532360236846
:10314800AA7E23F4F81343EA02432360EB7E1BB103
:10315800A36843F40043A360236843F0010323609A
:10316800E3699A02FCD5E3695B02FCD57B6A3046C9
:103178009847002458E700BF8C650008F67D0008D2
:10318800C0690008707F0008507F000800380140BF
:103198008B7F00082DE9F04143681C680369D3F868
:1031A80004800B790D46012B4979AE7933D1022978
:1031B80051D9042E4CD04FF480574FF4C0620323EA
:1031C8008B4245D1002F78D0002A14BF0322042255
:1031D800B2423DD1EB7963B1012B73D13B4B9C4299
:1031E80007D0A3F574439C4203D003F580639C4247
:1031F8002ED1236823F0010323602946FFF76AFED6
:10320800236843F00103236095E8030088E803007E
:103218000020BDE8F081022B08D1022926D9042E0E
:1032280016D04FF480624FF48057C8E702290A4647
:1032380024D9042E04D15BB94FF480571A46BEE74F
:1032480023B1033B012B03D90022ECE70329BFD0AC
:103258006FF08500DDE71E4A042E32F811C0F7D062
:103268004FF4C062033B012B10D8F1E7184A042E33
:1032780032F811C0ECD04FF48062F3E7144A042E00
:1032880032F811C00FD1002BE2D11A464FF4805703
:10329800BCF5805F0DD0BCF5405F0CD0BCF1000FD1
:1032A8008DD101238CE70BB10022DBE71A461F46BC
:1032B800EEE7002384E7022382E7002A14BF0222F4
:1032C800032285E7032B89D0C2E700BF00380140FD
:1032D8007C6D000810B54FF0E0230F499C691A690E
:1032E80008689B690D4902F4803234B993B90346E2
:1032F8004AB90A681044C01A10BD002B08BF03461B
:103308000AB9A342F5D90A6802440A604FF0E022DC
:103318001269EEE70446F3E7BC040020B804002075
:103328000A4B102283F82320094B4FF4E1521A600C
:10333800084B002018604FF0E02341F61F425A6105
:1033480098611A6942F007021A61704700ED00E0BF
:10335800BC040020B804002010B5FFF7BBFF104BD9
:103368001049D3E900420868001942F10002C3E994
:1033780000020D4A00230B60D2E900414FF4E153EB
:10338800001BB0FBF3F043431B1941F10001C2E9F4
:10339800003101F0A1FEBDE81040FEF7BFB800BF44
:1033A800D8010020B8040020D00100202DE9F04108
:1033B800DFF82C8199B1421C0BD14FF0E022136940
:1033C80023F0010313614FF07F43C8F80030BDE8D4
:1033D800F081D8F80050012807DC00270BE0431CD7
:1033E800D8F80050F7D140F6191040F61A13984251
:1033F800A8BF1846471EEFF31184102383F31288E1
:10340800BFF36F8F374801F0C7FC68B9364A3749B0
:103418003748882302F085FA3249364802F081FAA3
:103428008821314802F074FA2E48334E01F0D8FC56
:10343800FFF750FF4FF0E0239969D6E90023801881
:1034480043F10003C6E900032C4B00221A602C4B01
:103458001A68831A3BD44FF4E15C0CFB073303F57D
:10346800E0531F33B3FBFCF7131A0CFB0733B3F518
:10347800806F244A38BF4FF48063934228BF1346B5
:103488004FF0E022C8F80030013B906953610023F7
:1034980093618142A1EB0003D6E9001238BF5B19A2
:1034A8005B1842F100020F48C6E9003201F082FCC5
:1034B80080B90D4A14490E4840F2311302F031FA2E
:1034C8000849124802F02DFA40F23111A9E74FF4E9
:1034D8008063D5E784F31188BFF36F8F77E700BF68
:1034E800BC040020C0040020E87F00081580000804
:1034F800F16D00082A800008D8010020B8040020D7
:10350800D001002020DFFF0040800008578000081D
:1035180038B5EFF31185102383F31288BFF36F8F4B
:103528001B4801F039FC68B91A4A1B491B48882313
:1035380002F0F7F916491A4802F0F3F988211548FC
:1035480002F0E6F9124801F04BFC164B1C68164BCA
:103558001B68E41AFFF7BEFE04440D4801F02AFC7C
:1035680068B90C4A11490D4840F2311302F0D9F9F3
:1035780007490F4802F0D5F940F23111DFE785F32A
:103588001188BFF36F8F4FF4E150B4FBF0F038BDF2
:10359800C0040020E87F000815800008F16D0008CD
:1035A8002A800008D8010020D001002040800008AF
:1035B800578000080C4B5A6802F00C01082911D1F9
:1035C800DB6A0A48C2F38341D20344BF03F00F0306
:1035D800074A405C49BFD25C064B074BB3FBF2F38A
:1035E8005843704704487047001002408C80000818
:1035F8007C80000800093D0000127A00254A036813
:1036080090420ED0B0F1804F0BD0A2F59432904288
:1036180007D002F58062904203D002F596329042BC
:1036280022D14A6823F070031343CA6823F4407315
:10363800134303608B68C3620B888362154B9842FF
:103648000FD003F5006398420BD003F5406398420E
:1036580007D003F58063984203D003F5806398424E
:1036680011D10B6903630EE00B4A9042DDD00B4A7F
:103678009042DAD002F580629042D6D003608B681F
:10368800C3620B888362436943F0010343610020EE
:10369800704700BF002C0140004001400044014039
:1036A800B1F5805F30B500F011810AD8102900F01B
:1036B8008680B1F5807F00F0C68001293DD00120C9
:1036C80030BDB1F5803F00F03681B1F5801FF6D1ED
:1036D800036A23F480130362036A416D146821F0BE
:1036E800807121F4E04141EA0424116923F40013B4
:1036F80043EA0153516823F4801343EA0153A8496C
:1037080088420FD001F5006188420BD001F5406175
:10371800884207D001F58061884203D001F58061B5
:10372800884206D14168956921F4802141EA8521C2
:1037380041604465D268C2653EE0036A23F0010334
:103748000362036A41688469156824F4803424F0AC
:1037580073042C43156923F002032B43556823F0A7
:1037680001032B438E4DA8420FD005F50065A842F2
:103778000BD005F54065A84207D005F58065A8423D
:1037880003D005F58065A84212D1556923F00803D6
:1037980043EA8503956823F0040343EA85039569A2
:1037A80021F480712943D56921F4007141EA45016A
:1037B80041608461D26842630362002080E7036A43
:1037C80023F010030362036A41688469156824F0D2
:1037D800807424F4E64444EA0524156923F02003A0
:1037E80043EA0513556823F0100343EA05136C4DAB
:1037F800A8420FD005F50065A8420BD005F5406535
:10380800A84207D005F58065A84203D005F5806574
:10381800A84213D1556923F0800343EA85139568BC
:1038280023F0400343EA8513956921F4806141EA56
:103838008501D56921F4006141EAC50141608461CF
:10384800D2688263B8E7036A23F480730362036A69
:103858004168C469156824F4803424F073042C4347
:10386800156923F4007343EA0523556823F480732C
:1038780043EA05234A4DA8420FD005F50065A84242
:103888000BD005F54065A84207D005F58065A8422C
:1038980003D005F58065A84213D1556923F4006368
:1038A80043EA8523956823F4806343EA8523956971
:1038B80021F4805141EA0511D56921F4005141EA0A
:1038C80045114160C461D268C26375E7036A23F495
:1038D80080530362036A4468C169156821F08071E6
:1038E80021F4E64141EA0521156923F4005343EA2E
:1038F8000533556823F4805343EA0533284DA8421D
:103908000FD005F50065A8420BD005F54065A84223
:1039180007D005F58065A84203D005F58065A84263
:1039280004D1956924F4804444EA85144460C16153
:10393800D268026440E7036A23F480330362036AAF
:10394800416D146821F4803121F070010C43116934
:1039580023F4003343EA0143516823F4803343EAF4
:1039680001430F4988420FD001F5006188420BD00E
:1039780001F54061884207D001F58061884203D093
:1039880001F58061884206D14168956921F480314A
:1039980041EA052141604465D268816D82650BE783
:1039A800002C0140D8B10F4B984216D80E4B9842C4
:1039B80094BF002001200D4A136823F00703034336
:1039C8001360136803F0070398421CBF136803F0E1
:1039D8000703C01A18BF012070470220EBE7012037
:1039E800704700BF006CDC0200366E010020024008
:1039F80008B50A4A0A4B93420ED90A490A4A0B48A3
:103A0800182301F08EFF0A4801F08BFF06481821A1
:103A180001F07EFF1433EEE7FCD308BD9066000882
:103A28008C650008BF8000089C800008F16D0008C4
:103A3800447200081FB50446FDF7C0F9064B02930F
:103A480000231846CDE900330449012202F071FC35
:103A5800204602F07EFC00BFD7800008A869000855
:103A68002DE9F041044686B00E46EFF31188102385
:103A780083F31288BFF36F8F042898BF2B4B2C4A0F
:103A880098BF53F82030976888BF2A4B127C2A4980
:103A980003900025CDE90432284B0293CDE9005567
:103AA8002B460122284602F044FC6EB1F369C3F3A9
:103AB80008034BB1224B20490095CDE9015301225F
:103AC8002B46284602F035FC2FB1384602F065FC3B
:103AD80008B1037803B91B481B4B02930023CDE9B7
:103AE8000370CDE9003318461349012202F021FC86
:103AF80031462046FFF79EFF042C0CD11349144A87
:103B08001448862301F00DFF134801F00AFF1048FE
:103B1800862101F0FDFE88F31188BFF36F8F3846C8
:103B280006B0BDE8F041FEF75FB800BF506D000871
:103B3800C4040020E6800008A8690008FC8000088A
:103B480024810008F4800008458100087F8100086E
:103B58005D810008F16D00089C81000838B5094BAB
:103B680053F82040013053F82050A54200D838BD02
:103B7800636823B1204602F0F4FB0834F5E72368B4
:103B88009847FAE7646D000870B5384B384C394DE2
:103B9800012286B003201A70FFF7E0FF01F09EFBB8
:103BA8000420FFF7DBFFAC42264628D93249334AC6
:103BB8003348432301F0B5FE324801F0B2FE4321F9
:103BC8002E4801F0A5FE54F80C3C059354F8103C1F
:103BD800049354F8143C039354F8183C029354F893
:103BE8001C3C019354F8203C009354E90A2354E9FF
:103BF8000C0100F025F954F8303C5E65D3E7AE427D
:103C080004F13004DFD300F00DFD194C1E4EAC4218
:103C18001FD91949194A1A48672301F082FE194821
:103C280001F07FFE6721CBE7D4E90A23B3F1FF3F18
:103C380008BFB2F1FF3F05D052EA0301206803D163
:103C480002F0ADFB3034E2E73146183001F030F9CC
:103C5800F8E7E9D300F054FD02F0B5FB0B4A137BFB
:103C680023F00103137306B070BD00BFFF040020EA
:103C780020690008806900083C8200081B8200084F
:103C8800F16D000844720008BB6300086002002060
:103C980008B50348034A0021121A02F07AFB08BD4E
:103CA800D00000200405002070B5002386B0012252
:103CB800CDE90423134E144D01930F22CDE90232AE
:103CC8001249142303FB005506EBC01604464FF4B3
:103CD800C07000FB04110E4B00954FF4A0723046E3
:103CE80000F0AEF8737B0B4AEE6023F004037373A5
:103CF8004FF4046304FB033313442C746B6006B065
:103D080070BD00BFE0010020C4040020001E002098
:103D1800013E0008C0150020BFB50020FFF71EFFB8
:103D28002D4B83F308882D4D2D4E6B692D4F43F491
:103D380000736B610024F02385F82230EC772C7631
:103D48006C76AC7685F820406B6A43F4E0236B62AE
:103D5800FDF722FFFEF77EF84FF0FF33AB62EB6210
:103D6800214DFEF793F9FEF799F8FDF713F840F2A5
:103D780001132846AB81C5E9184401F0A9FAB560DA
:103D8800FFF736FE0120FFF7E9FE0220174DFFF787
:103D9800E5FE00F031FD164B7561059301231549C9
:103DA8000094CDE903434FF480623B46CDE90144DA
:103DB800284600F045F86A7B064622F004022846A9
:103DC8006A7300F095FA2046FFF76EFF3A463146CF
:103DD8002846FEF71DF800BF001E002000ED00E099
:103DE800C4040020913B0008E0020020600200208B
:103DF80069820008801F002008B50D4B9B6893F965
:103E08000E30002B09DB1024EFF3118384F31288A2
:103E1800BFF36F8F01F093FEF6E706490648074A9D
:103E28001B2301F07EFD05481B2101F071FD00BF39
:103E3800C404002092820008F16D00087182000815
:103E48002DE9F04385B005460F9C0F2C0E461F4602
:103E580045D12E4B9F4246D1073222F007027F32CE
:103E68001099297305F1580322F03F02C5E916336A
:103E7800042100233F2AC5E90633AB606973AC739C
:103E8800EB7306F14009A2F1400805D883F31188C5
:103E9800BFF36F8F084602DFB41821462846FDF7A6
:103EA8001DFB07300E9B20F00700A866C5E918988F
:103EB80002930D9B0193241A0C9B009322463B46C8
:103EC80031462846FDF772FF00236B65104B9B684F
:103ED80003B1DB6EEB66204605B0BDE8F08304F164
:103EE80010031E2BB8D90B4A0B490C4840F20D237E
:103EF80001F017FD0A4821466FF00F030E2201F06A
:103F080010FD044840F20D2101F002FD013E0008B9
:103F1800C4040020BA820008DD820008F16D0008A0
:103F28005D83000838B5144D2B4653F8184F9C4252
:103F380000D004B9EC68AB68A8B963B90F49104A56
:103F48001048C82301F0EDFC0F4801F0EAFC0C48CA
:103F5800C82101F0DDFC5A7BD20604D1A26912B94E
:103F6800DA897F2A05D89C4202D0204600F088FED4
:103F780023466B6138BD00BFC4040020BA83000823
:103F88008E830008F16D0008E183000808B590F9F8
:103F98000D20437B002A014611DA03F07F034373A7
:103FA8000B4B984209D10B490B480C4A802301F06E
:103FB800B8FC0A48802101F0ABFC02F0F2F9084B8A
:103FC8009868431A58425841BDE80840FFF7AABF0D
:103FD800E001002006840008F16D0008E483000871
:103FE800C404002008B583685BB90A490A480B4A2B
:103FF80040F2362301F095FC084840F2362101F0E2
:1040080087FC02F0CEF9437B23F0020343730023BD
:10401800836008BD27840008F16D0008E483000868
:1040280070B590F90D30427B002B38DBD30636D1C2
:104038008369002B33D162F07F024273184A9042A1
:1040480009D118491848194A792301F06AFC174818
:10405800792101F05DFC16490A4652F8184F94423E
:1040680018BF2346CC6923B9C0E900242060C86181
:104078000CE090F90E5093F90E60B5420BD0AE42A9
:1040880009DD5A68C0E9003210605860BDE8704028
:104098000020FFF747BFA342E6D01B68E3E770BDE7
:1040A800E001002006840008F16D0008E4830008A0
:1040B800C40400202DE9F843171E427B0E4614BFA6
:1040C80008211021114204460FD141EA0203D20906
:1040D80028D14373082937D00120FFF723FFBFF306
:1040E8005F8F637B23F060036373494B9B68A34234
:1040F80075D1EFF30583002B71D1464800F05AFEC5
:1041080000285BD1444A4549454840F26B1301F009
:1041180008FC4049434801F004FC40F26B113E485A
:1041280001F0F6FB03F07F0343733F4B984208D13D
:104138003E493F4A3A48802301F0F3FB80213C483E
:10414800EEE702F02EF9C5E7A36813B12046FFF7A2
:1041580049FF04F1180000F071FFA56D04F158083B
:10416800A84511D04FF0000975B12846FFF73AFF6E
:1041780005F1180000F062FFC5F878902846FFF7AF
:104188004FFFA56DA845EFD1DFF88480D8F8083037
:104198009C42A1D1EFF30583002B9DD0254D012032
:1041A800FFF7C0FE40F20113AB8128460023C5E9A2
:1041B800183301F08DF8C8F8085090E73046FDF73D
:1041C80029FD17B31C491A4A154840F2ED1301F0AE
:1041D800A8FB1A4801F0A5FB40F2ED11AFE70D4826
:1041E80000F0E8FD68B90C4A0C490D4840F231135B
:1041F80001F097FB07490B4801F093FB40F231119E
:104208008DE786F31188BFF36F8FBDE8F88300BF91
:10421800C4040020E4040020E87F0008408000086F
:10422800F16D000857800008E001002006840008AE
:10423800E4830008E00200203E8400084984000866
:1042480070B590F90D20437B244C002A014610DA02
:1042580003F07F03A042437309D12149214A224830
:10426800802301F05EFB80211E4801F051FB02F023
:1042780098F84B7BA14263F07F034B7307D1184931
:10428800184A1948792301F04CFB7921ECE7174AC1
:104298001046D46950F8183F834208BF002323B959
:1042A800C1E900042160D1610CE091F90E5093F945
:1042B8000E60B5420ED0AE420CDD5868C1E9003040
:1042C800016059609068431A5842BDE870405841EF
:1042D800FFF728BE9C42E3D01B68E0E7E00100201E
:1042E80006840008E4830008F16D0008C404002077
:1042F80038B50446EFF31185102383F31288BFF312
:104308006F8F174800F048FD68B9164A16491748D4
:10431800882301F006FB1249154801F002FB8821A9
:10432800104801F0F5FA0E4800F05AFD2046FFF754
:1043380077FE0B4800F03EFD68B90A4A0D490B4864
:1043480040F2311301F0EDFA05490B4801F0E9FAA2
:1043580040F23111E4E785F31188BFF36F8F38BD60
:10436800E4040020E87F000815800008F16D0008CB
:104378002A800008408000085780000838B50446A5
:10438800183000F05BFEEFF31185102383F31288D9
:10439800BFF36F8F1A4800F0FFFC68B9194A1A4931
:1043A8001A48882301F0BDFA1549194801F0B9FAED
:1043B8008821144801F0ACFA114800F011FD627B25
:1043C80012F0100216D00E4800F0F4FC68B90D4A3D
:1043D80010490E4840F2311301F0A3FA08490E487B
:1043E80001F09FFA40F23111E3E785F31188BFF33A
:1043F8006F8F38BD29462046BDE83840FFF75ABEC2
:10440800E4040020E87F000815800008F16D00082A
:104418002A800008408000085780000870B50446CC
:104428000D46EFF31186102383F31288BFF36F8FC5
:104438001F4800F0B1FC68B91E4A1F491F4888236D
:1044480001F06FFA1A491E4801F06BFA88211948E1
:1044580001F05EFA164800F0C3FC637B13F0280FE6
:104468000CD1A36813B12046FFF7BCFD637BBDB92F
:1044780003F0FB0363732046FFF7D2FD0C4800F0FE
:1044880099FC80B90B4A0F490C4840F2311301F0EE
:1044980048FA07490C4801F044FA40F23111D6E7CE
:1044A80003F0EB03E6E786F31188BFF36F8F70BD67
:1044B800E4040020E87F000815800008F16D00087A
:1044C8002A800008408000085780000870B504461C
:1044D8000D46F9B9EFF30586E6B91A4B5A699B6898
:1044E8009A4217D000F066FC78B9174A174918485D
:1044F80040F26B1301F015FA2146164801F011FA43
:1045080040F26B11104801F003FA3046BDE87040E4
:10451800FDF780BB204600F04DFC68B90A4A0B49FC
:104528000B4840F2311301F0FCF92146094801F02B
:10453800F8F940F23111E5E785F31188BFF36F8F81
:1045480070BD00BFC4040020E87F00084080000858
:10455800F16D00085780000838B50446EFF311855F
:10456800102383F31288BFF36F8F1D4800F014FCEB
:1045780068B91C4A1C491D48882301F0D2F918491A
:104588001B4801F0CEF98821164801F0C1F91448FA
:1045980000F026FC637B5A0716D4114800F00AFC89
:1045A80068B9104A1349114840F2311301F0B9F9BA
:1045B8000B49114801F0B5F940F23111E4E785F3F0
:1045C8001188BFF36F8F38BD23F00403204663734F
:1045D800FFF726FD29460248BDE83840FFF776BFB9
:1045E800E4040020E87F000815800008F16D000849
:1045F8002A8000084080000857800008034648B910
:10460800EFF3058232B9064A51699268914201D0A6
:10461800FDF700BB83F31188BFF36F8F704700BFAE
:10462800C404002010B5EFF31184102383F312881B
:10463800BFF36F8F264800F0AFFB60B9254A2649C3
:104648002648882301F06DF92149254801F069F9C8
:104658008821204810E01E4800F0C2FBEFF30583D4
:1046680063B12049204A1D488B2301F05AF91F489D
:1046780001F057F98B211C4801F04AF91C4B9A6844
:10468800D37B012B0AD11B49174A14488C2301F00C
:1046980048F9164801F045F98C21ECE7013BD37342
:1046A8000B4800F087FB68B90A4A13490B4840F2E7
:1046B800311301F036F90649104801F032F940F299
:1046C8003111C6E784F31188BFF36F8F10BD00BFA7
:1046D800E4040020E87F000815800008F16D000858
:1046E8002A800008968400086B840008E18300088B
:1046F800C4040020A88400084080000857800008EF
:1047080038B5EFF31185102484F31288BFF36F8F47
:104718002D4800F041FB60B92C4A2D492D488823CB
:1047280001F0FFF828492C4801F0FBF888212748B8
:1047380013E0254800F054FB284B9A68D37B73B9E3
:104748002749284A23484FF4537301F0EAF82648CA
:1047580001F0E7F84FF45371224801F0D9F8EFF36C
:10476800058060B121491F4A1A4840F24D3301F0D3
:10477800D8F81D4801F0D5F840F24D31ECE7013387
:10478800D373FFF7CFFB104800F014FB68B90F4A4A
:104798001749104840F2311301F0C3F80A49154887
:1047A80001F0BFF840F23111C1E785F31188BFF37A
:1047B8006F8FEFF3118084F31288BFF36F8FBDE81A
:1047C8003840FFF71BBF00BFE4040020E87F000863
:1047D80015800008F16D00082A800008C404002034
:1047E800D9840008E4830008E1830008968400085F
:1047F8004080000857800008024B03F11802C3E903
:1048080006227047C4040020F8B5EFF305836BB1A6
:104818004149424A424840F2544301F082F8414833
:1048280001F07FF840F254413C4816E0EFF311855F
:10483800102383F31288BFF36F8F3B4800F0ACFA64
:1048480068B93A4A3A493648882301F06AF836493D
:10485800384801F066F88821344801F059F83248A0
:10486800354C00F0BDFA35498868437BA04203F017
:104878007F03437307D13249284A2948802301F02E
:1048880050F88021D0E701F08CFD8B685A7BA34259
:1048980062F07F025A7307D12949204A20487923B8
:1048A80001F03FF87921BFE70846CC6950F8182F86
:1048B800824208BF002222B9C3E900042360CB6109
:1048C8000CE093F90E6092F90E70BE421BD0B7420D
:1048D80019DD5168C3E900210B6053600120FFF71F
:1048E80021FB114800F066FA88B9104A15490C48AE
:1048F80040F26B1301F015F80B49134801F011F859
:1049080040F26B11A8E7A242D6D01268D3E7284636
:10491800BDE8F840FDF77EB996840008E4830008F6
:10492800F16D0008E1830008E4040020E87F000836
:10493800158000082A800008E0010020C404002037
:104948000684000840800008578000082DE9F041DF
:1049580005460E46EFF305836BB13F493F4A404891
:1049680040F26F4300F0DDFF3E4800F0DAFF40F20E
:104978006F413A4824E050EA010303D1FFF744FFAE
:10498800002067E0821C71F1FF331BDB01F015FD8D
:104998004419EFF31188102383F31288BFF36F8F44
:1049A800314800F0F9F988B9304A31492C48882350
:1049B80000F0B7FF2C492F4800F0B3FF88212B489F
:1049C80000F0A6FF6FF00104241AE2E72A4F2648F8
:1049D80000F006FA294BB8681860FFF7D7FAB868EC
:1049E80027492A463346183000F062FABA681E484A
:1049F800537B43F01003537300F0DCF968B91B4A8A
:104A08002049174840F26B1300F08BFF16491E48E7
:104A180000F087FF40F26B11D1E74046FDF7FAF846
:104A2800BB685B7BDB060CD518490C4A0C4840F286
:104A38008B4300F076FF0B4800F073FF40F28B4188
:104A480097E701F0BAFC201A63EB0303012873F11E
:104A5800000395DBBDE8F08196840008E483000834
:104A6800F16D0008E1830008E4040020E87F0008F5
:104A7800158000082A800008C4040020E8040020EB
:104A8800BB63000840800008578000080A850008BA
:104A980008B5EFF3058373B11449154A154840F278
:104AA800994300F03EFF144800F03BFF104840F2E5
:104AB800994100F02DFFB1F1FF3F08BFB0F1FF3F72
:104AC80006D10E4B9868FFF759FC4FF0FF3008BD30
:104AD800FFF73CFFC11709304FF00A024FF00003FF
:104AE80041F10001FBF74CFBF1E700BF9684000899
:104AF800E4830008F16D0008E1830008C404002085
:104B0800014B9868704700BFC404002038B50446BC
:104B1800EFF31185102383F31288BFF36F8F2848B2
:104B280000F03AF968B9274A27492848882300F04D
:104B3800F8FE2349264800F0F4FE8821214800F0B9
:104B4800E7FE1F4800F04CF9237BDA0724D51C4800
:104B580000F030F968B91B4A1E491C4840F231136D
:104B680000F0DFFE16491C4800F0DBFE40F2311170
:104B7800E4E785F31188BFF36F8F184A1849134883
:104B880040F28E5300F0CDFE1648214600F0C9FED3
:104B9800124840F28E51D2E7637B1B0709D50848BB
:104BA80000F008F90028D6D085F31188BFF36F8F7D
:104BB80038BD294620460122BDE83840FFF77ABAB9
:104BC800E4040020E87F000815800008F16D000863
:104BD8002A8000084080000857800008E483000805
:104BE8005D6F00084A85000808B568B10F4B984208
:104BF8000AD303F11802904206D2C01A1822B0FB59
:104C0800F2F302FB13034BB109490A480A4A382355
:104C180000F087FE0848382100F07AFE074BC010E4
:104C28005843074B01221A5408BD00BF60030020F7
:104C380091850008F16D000869850008ABAAAAAA49
:104C480000050020C3897F2B12D80A4B1B6863B16B
:104C5800094B90F90E201B689A4209DB437BDB065F
:104C680006D1064BC31A18BF012303F00100704791
:104C78000023FAE7F0040020EC040020E001002003
:104C880070B50E4B0E4C1E7C06EB460304EBC304BA
:104C98000546204600F0D2F90A4B002228469A55CC
:104CA800FFF7D0FF48B1084B08491A68013A204677
:104CB800D317BDE8704000F0FBB870BDC4040020F5
:104CC8006003002000050020F0040020F14B0008DC
:104CD80038B5EFF31185102383F31288BFF36F8F74
:104CE800234800F059F868B9224A23492348882301
:104CF80000F017FE1E49224800F013FE88211D48C7
:104D080000F006FE1A4800F06BF81E4B1E4A9C681D
:104D18001068A04213D1FFF7B3FF154800F04AF816
:104D280008BB144A1949154840F2311300F0F9FD3F
:104D38000F49174800F0F5FD40F23111DFE7002177
:104D48001B7C1160134AD35C002BE6D02046FFF78A
:104D580079FF0028E1D0637BDB0602D12046FFF70C
:104D68006FFA2046D7E785F31188BFF36F8F38BDF8
:104D7800E4040020E87F000815800008F16D0008B1
:104D88002A800008C4040020E804002040800008AD
:104D98005780000800050020006838B1044B1B7CD0
:104DA80000F00300C01A18BF0120704701207047A7
:104DB800C4040020002302680360EFF30581074B59
:104DC80019B19968497BC90706D4197C98680843C2
:104DD800831A58425841704701207047C404002084
:104DE800024B1A7C9B68134303607047C40400207D
:104DF80008B50648064A0749121A01F0CCFABDE878
:104E08000840054A0549064801F0C5BA00000020D7
:104E1800CC000020FC87000800000000FC87000888
:104E280000000020034B1B680BB9FEF771BB002084
:104E3800704700BFF404002030B570B10B4B5B68BD
:104E480098420AD0036843B1D3E90421D0E9044564
:104E5800121941EB0501C3E90421D0E900321360BE
:104E68005A600023C0E9003330BD00BF7C00002039
:104E780010B50E4B1C689C4204D1FFF7D3FF6FF0AE
:104E8800004010BDFFF7CEFF002CF8D0D4E9043263
:104E98001B1A62EBE072B3F1004F72F10001EEDA17
:104EA800002AACBF18460020EBE700BF7C000020BA
:104EB800B3F1FF3F08BFB2F1FF3F2DE9F0470446C9
:104EC80092461D4600F09D80066866B14E494F4ADD
:104ED8004F486E2300F025FD4E4800F022FD4B4858
:104EE8006E2100F015FD8160EFF31187102383F325
:104EF8001288BFF36F8F4848FFF74EFF60B9474AE3
:104F080047494348882300F00CFD4349454800F0D1
:104F180008FD88214148E4E73F48FFF761FFBAF1FF
:104F2800FF3F75F1FF3323DA3F49D1E900206FF0E5
:104F380001039B1A4FF0FF3262EB0000B3EB0A0348
:104F480060EB0500012B70F1000201DA0123304605
:104F5800C4E90430354B1A68D3F804C09A4218BF24
:104F6800164686B9C4E9003CCCF800405C601CE0F9
:104F7800FFF758FF1AF1010845F1000518EB000387
:104F880045EBE070E4E7D6E90415D4E904208A4249
:104F980070EB050E28DA891A726865EB0005C6E918
:104FA8000415C4E90062146074601A689A4209D052
:104FB800944207D11E4B1C6824B9FFF759FF2146BC
:104FC800FEF7F4F91448FFF7F5FEB0B9134A19498A
:104FD8000F4840F2311300F0A4FC0F49164800F0C6
:104FE800A0FC40F2311195E7521A60EB05006645C6
:104FF800C4E90420B6D03668B3E787F31188BFF355
:105008006F8FBDE8F08700BF6687000842870008F9
:10501800F16D0008E1830008F8040020E87F00082B
:10502800158000082A800008780300207C000020F2
:10503800F4040020408000085780000838B5044672
:10504800EFF31185102383F31288BFF36F8F1B488A
:10505800FFF7A2FE68B91A4A1A491B48882300F0CC
:1050680060FC1649194800F05CFC8821144800F0DF
:105078004FFC1248FFF7B4FE2368ABB12046FFF798
:10508800DBFE00240D48FFF795FE80B90C4A104955
:105098000D4840F2311300F044FC08490D4800F077
:1050A80040FC40F23111E1E76FF01504EAE785F3BF
:1050B8001188BFF36F8F204638BD00BFF804002069
:1050C800E87F000815800008F16D00082A800008B4
:1050D80040800008578000082DE9F84F0446EFF398
:1050E8001188102383F31288BFF36F8F4748FFF7A7
:1050F80053FE68B9464A47494748882300F011FCDF
:105108004249464800F00DFC8821414800F000FC67
:10511800DFF80C91DFF80CB13C48DFF80CA1FFF781
:105128005FFECBF80040D9F8004000264C4508BF88
:1051380000240027DAE90021DBF80030002C4AD0EF
:10514800D4E904504FEAE37CAB427CEB000E05DA6D
:10515800ED1A60EB0C00C4E904503CE0AA1841EBDE
:10516800E5712046C4E90467CAE90021FFF764FE37
:105178002648FFF71FFE68B9254A2C49264840F201
:10518800311300F0CEFB2149294800F0CAFB40F258
:105198003111BAE788F31188BFF36F8FA3682046EF
:1051A8009847EFF31188102383F31288BFF36F8FAA
:1051B8001648FFF7F1FD00289CD01448FFF710FEB1
:1051C800DBF80030D9F800405B1B4C45CBF80030C9
:1051D800B0D1DAE900219A1841EBE3710024CAE959
:1051E8000021CBF80040FFF743FE2146FEF7DEF82A
:1051F8000648FFF7DFFD0028BED088F31188BFF30B
:105208006F8FBDE8F84FFFF763BD00BFF8040020BB
:10521800E87F000815800008F16D00082A80000862
:105228007C000020F404002078030020408000085F
:105238005780000870B5EFF31186102383F31288A6
:10524800BFF36F8F1A48FFF7A7FD68B9194A1A49C3
:105258001A48882300F065FB1549194800F061FBDE
:105268008821144800F054FB1148FFF7B9FDFFF7F7
:10527800D9FD144AD2E90045041945EBE0750C48FC
:10528800FFF798FD68B90B4A0F490C4840F23113F3
:1052980000F047FB06490D4800F043FB40F231118E
:1052A800DFE786F31188BFF36F8F2046294670BD6C
:1052B800F8040020E87F000815800008F16D000858
:1052C8002A800008780300204080000857800008E2
:1052D800014BC366704700BFB4000020014800F0CE
:1052E8000ABB00BF8687000838B50D4C0D4DAC428F
:1052F80013D90D490D4A0E48192300F012FB0D4829
:1053080000F00FFB0948192100F002FBD4E9011253
:10531800204601F05BF81834E9E7F7D3002038BDE0
:10532800B4000020CC000020D4870008B287000811
:10533800F16D000844720008F8B50E4B1D68AB7893
:105348009B07064612D56F6816F8014B29462CB9FB
:105358000A20B847002805DB204609E02046B84760
:105368000028F1DAAB7843F00403AB704FF0FF305C
:10537800F8BD00BF906A00082DE9F04F8DB0436872
:105388000293837815469A07804640F10D810024E0
:105398000E78002E00F00A81252E0BD04B1C0393AB
:1053A8000134029B4146304698470028C0F2F680F7
:1053B8000399EDE74E788B1C252E0393F0D0002738
:1053C800B946BB46BBF11F0F38D8A6F12003102BF6
:1053D8000AD8DFE803F02A0909300909092109096F
:1053E8000928092D09091F00A6F13003092B33D913
:1053F8002A2E37D11BF0400F55F8043B40F082802D
:10540800002BA7BF4BF0200B9946C3F100094BF0C6
:10541800280B01E04BF0010B039B13F8016B03937E
:10542800002ECFD130E04BF0020B4BF0040BF3E72A
:105438004BF0080BF0E74BF0100BEDE7BBF17F0FDB
:1054480019D8A6F13003092BD2D81BF0400F03D08E
:105458000A2101FB0737DFE70A2101FB09394BF075
:10546800200BD9E72E2E06D11BF0400F40F09E806E
:105478004BF0400BD0E76C2E31D02BD8682E36D0AD
:105488006A2E3CD04C2E3AD0002F46F02003B8BFED
:105498002BF04002A3F16501BCBF1FFA82FB002775
:1054A800022901D9612B2FD1073525F00705DFF82F
:1054B800ACA2083507271BF0080F66D00AEB070BCC
:1054C80056465E4563D1A4EB0A0A06EB0A02A9EB2D
:1054D80007096FE1742E9FD07A2E9DD0D4E71BF078
:1054E800800F18BF4BF4007B4BF0800B94E71BF444
:1054F800807F18BF4BF4007B4BF4807B8CE74BF428
:10550800207B89E71F4687E7A6F16301122900F28D
:10551800F080DFE811F013004F00EE00EE00EE001F
:10552800EE004F00EE00EE00EE00EE00EE00FE0092
:10553800E900EE00EE001B00EE00AF0055F8043B5A
:105548008DF8183001270DF1180AB4E755F804ABA7
:10555800834BBAF1000F08BF9A461BF0400F14BFE7
:1055680039464FF0FF31504600F038FF0746A2E7B2
:10557800029B41462020984700280FDB013EB74296
:10558800F6D34C44A41BB14698E74E46F7E716F805
:10559800010B029B41469847002892DA98F802309E
:1055A80043F0040388F802304FF0FF3420460DB072
:1055B800BDE8F08F1BF0800F34D01BF4007F2CD097
:1055C800073525F00705AA4669685AF8080B2BF035
:1055D80010050029ADB237DA404261EB410145F4CC
:1055E80080650DF1180B0A235A4600F003FFA0EB63
:1055F8000B0301936B0662D5019B25F001019F42C5
:1056080089B240F3A180002E00F0998015F01002B5
:1056180040F09C80BB460D4623E0AA465AF8040B8E
:10562800C117D4E7AA461BF4807F5AF8041B01D19E
:105638000846F5E71BF4007F15BF48B208B241F3EE
:10564800C01141F3C031C2E750EA0103C9D11BF0D0
:10565800400FC6D0002FC4D12BF0110295B2BB4623
:10566800019740F2064115EA01021CBF0BF1010B3C
:1056780000222CE02BF010021FFA82FB0A231BF0F9
:10568800800C49D01BF400711DBF073525F00705B4
:10569800AA46AA461ABF5AF8080B69685AF8040BB2
:1056A80050EA010545D12BF016051BF0400FADB2AD
:1056B80042D0002F40D12BF0170295B2019715F078
:1056C800100248D0019B002E42D103F1010B29079B
:1056D8005AD4EB0706D5D9456FDD0199A9EB0B0321
:1056E8005F18CB465B4649E04BF0100B1023782639
:1056F800C5E7782B04D1C6F1780343F01003BEE761
:10570800029B4146252098470028FFF647AF023400
:1057180047E608230026B2E7AA461BF480715AF828
:10572800040BBDD01BF400711ABFC0B2614680B231
:10573800B6E72BF0060295B20DF1180B54E725F0E9
:105748001105ADB2BB468CE70D46B8E73B460D46A2
:1057580003F1020BBBE7DDF804B082E7F487000829
:10576800ED870008CDE904324146029B2020984786
:105778000028FFF613AF049B059A01339945F1DC25
:10578800A4EB0B01CC189B460AB3029B4146302080
:1057980098470028FFF602AF8EB901342744019BD1
:1057A800391B994224DC1D465DBB019AA9EB0B0904
:1057B800224455461446914435E0019F92E702344D
:1057C80041463046029B98470028E7DAE6E640F271
:1057D80006410D42E2D015F0020F14BF2B20202005
:1057E80015F4806F04F10104414618BF2D20E9E744
:1057F800029B414630209847002804F10104CEDA84
:10580800CCE606AB013D4146585D029B984700280F
:10581800CADAC3E6029B414620209847002804F1D3
:105828000104FFF6BBAEA9EB0403002BF2DCBFE5D5
:105838007047704700EBC100408840087047F8B5D2
:105848000346FFF7F7FFB0FA80F0C0F11F0003EB43
:10585800800CCA00DCF81060171D0C4606328DB2A9
:1058680056B9012101FA00F0D9680143D960CCF892
:105878001040DD539D52F8BDF1000431585AD853F9
:1058880003EBC0009E52C5805D52F4E72DE9F04756
:1058980006460D46174698462BB398F8004093F8ED
:1058A8000190DB78A40004EB430498F802301C4410
:1058B80044444FF0000ACA4509D3D8F8042008F137
:1058C800080339463046AC46BDE8F047604714F84F
:1058D800013B48F823402046FAF7BCFD0130044458
:1058E8000AF1010AE7E76FF01500BDE8F08700202C
:1058F800704700F042B80FB407B504A951F8040B7B
:10590800019100F03AF803B05DF804EB04B0704779
:10591800002383F31188BFF36F8F0423184602DF37
:1059280070470FB407B504A951F8040B0191FFF7AC
:10593800E0FF03B05DF804EB04B070477047002047
:10594800704708B500F03DFD0A220023FAF718FC5D
:1059580008BD0346BFF35B8F53E8000F421C43E8C2
:1059680000210029F8D1BFF35B8F704708B50021EB
:105978000846FBF769F9002008BD1FB50023CDE9EB
:105988000201CDE900331A4619461846FBF7CCFA4E
:1059980005B05DF804FB70470020704770B50E46EF
:1059A80015461946044618B9BDE87040FBF73CBADD
:1059B80033B1C2F34A231030120D184400F071FDC0
:1059C800C4E900562046BDE87040FBF745BA07B564
:1059D800D1E900328DF80700526801210DF1070066
:1059E8009847002003B05DF804FB0A2838B5044640
:1059F8000D4602D10D20FFF7EAFF29462046FFF7A2
:105A0800E6FF002038BDF8B506460D4614461F4689
:105A180004B9F8BD214628463A46B047241A054439
:105A2800F6E710B5426881680446D2E900230068A9
:105A3800FFF7E9FF636800221A6010BD2DE9F04303
:105A4800054687B008460E8891F80090D1F808807E
:105A58000C461746FBF7CCFA011EC6F38216C9F3AB
:105A6800C2091EDB4846FBF72BFA0346214660882D
:105A780051F8102B0196C2F34A22002A01EB0204C6
:105A8800C0F30B1008BF00210022CDE90407CDE9BF
:105A98000214009241462846FBF7D6FA07B0BDE843
:105AA800F0830023E2E743681B685B680020196104
:105AB800704743681B685A68012111751868FFF719
:105AC800B0BF70B543681D686B6818690C46FBF772
