:020000040800F2
:10000000801A0020BD1B0008C1140008A91B0008AD
:10001000A91B0008A91B0008A91B0008000000007C
:10002000000000000000000000000000C11C0008EB
:10003000A91B0008000000008D1C00088D3200087C
:10004000791E0008791E0008791E0008791E000834
:10005000791E0008791E0008791E0008791E000824
:10006000791E0008791E0008791E0008791E000814
:10007000791E0008791E0008791E0008791E000804
:10008000791E0008791E0008791E0008791E0008F4
:10009000791E0008791E0008791E0008791E0008E4
:1000A000791E0008791E0008791E0008791E0008D4
:1000B000791E0008791E0008791E0008791E0008C4
:1000C000791E0008791E0008791E0008791E0008B4
:1000D000791E0008791E0008791E0008791E0008A4
:1000E000791E0008791E0008791E0008791E000894
:1000F000791E0008791E0008791E0008791E000884
:10010000791E0008791E0008791E0008791E000873
:10011000791E0008791E0008791E0008791E000863
:10012000791E0008791E0008791E0008791E000853
:10013000791E0008791E0008791E0008791E000843
:10014000791E0008791E0008791E0008791E000833
:10015000791E0008791E0008791E0008791E000823
:10016000791E0008791E0008791E0008791E000813
:10017000791E0008791E0008791E0008791E000803
:08018000791E0008791E000839
:1001880053B94AB9002908BF00281CBF4FF0FF31F6
:100198004FF0FF3000F00CB8ADF1080C6DE904CE5B
:1001A80000F008F8DDF804E0DDE9022304B0704748
:1001B800704700BF2DE9F04786468C460846089EE2
:1001C800154674461946002B40F0C2808542B2FAA3
:1001D80082F245D94AB1C2F1200300FA02FC2EFA94
:1001E80003F3954043EA0C0C94404FEA154EA8B22D
:1001F800BCFBFEF8230C0EFB18CC08FB00F943EA05
:100208000C43994528D9EB1808F1FF3704D29945D2
:1002180002D9A8F102072B44A3EB0903A4B2B3FB4C
:10022800FEFC0EFB1C330CFB00F044EA0344A04226
:1002380014D92C190CF1FF3304D2A04202D9ACF125
:1002480002032C44241A43EA07401EB1D440002379
:1002580034607360BDE8F0874746DDE76346F1E741
:1002680092BB431B01214FEA154EAFB2B3FBFEFC14
:10027800200C0EFB1C330CFB07F840EA034398459F
:1002880062D9EB180CF1FF3004D2984502D9ACF1D1
:1002980002002B44A3EB0803A4B2B3FBFEFC0EFB45
:1002A8001C330CFB07F744EA0344A7424ED92C1928
:1002B8000CF1FF3304D2A74202D9ACF102032C445B
:1002C800E41B43EA0040C0E7C2F1200320FA03F12F
:1002D800954090402EFA03F303434FEA154EAFB210
:1002E800B1FBFEFC0EFB1C10190C0CFB07F841EAD5
:1002F8000041884504FA02F422D969180CF1FF304C
:1003080004D2884502D9ACF102002944A1EB0801C6
:100318009BB2B1FBFEFC0EFB1C110CFB07F743EA7A
:1003280001439F420ED9EB180CF1FF3104D29F42D2
:1003380002D9ACF102012B44DB1B41EA004192E7F0
:100348006046E3E76146F7E76046A3E76346B7E739
:10035800834206D916B9002108467BE7C6E900E0C2
:10036800F9E7B3FA83F78FB9834201D3724508D806
:10037800BEEB020460EB030301209C461EB900217A
:1003880068E73846FAE7C6E9004CF8E7C7F1200CF9
:10039800BB4022FA0CF41C432EFA0CF120FA0CF3A1
:1003A800B84001434FEA14490EFA07F5B3FBF9F8D0
:1003B8001FFA84FE09FB18300B0C08FB0EFA43EAFF
:1003C80000439A4502FA07F240D9E31808F1FF30D2
:1003D80004D29A4502D9A8F102002344A3EB0A03E8
:1003E80089B2B3FBF9F809FB183308FB0EFE41EAA2
:1003F80003418E452CD9611808F1FF3304D28E458C
:1004080002D9A8F10203214443EA0040A0FB029864
:10041800A1EB0E014145CE46434602D306D14D45D8
:1004280004D2B9EB020E68EB04030138002EA6D003
:10043800B5EB0E0261EB030101FA0CFC22FA07F39B
:100448004CEA0303F940C6E9003198E74046C5E79E
:100458004346D9E7034613F8012B002AFBD1181AA3
:100468000138704710B5012303FA01F143680469A4
:100478001B6819420ED10E490E4A0F484FF4CB6340
:1004880005F0D6F90D4805F0D3F90A484FF4CB61C9
:1004980005F0C5F92368194218BF82F0010222B19C
:1004A8008368DB68BDE81040184783681B69F9E773
:1004B800B76A0008866A0008F56A0008126B000827
:1004C8002DE9F04103460C46DA8800681979224381
:1004D80002F03003302BD0E9017605690ED12549A9
:1004E800254A264840F2D33305F0A2F9244805F0FE
:1004F8009FF940F2D331204805F091F9214B224C65
:100508001340A3420CD121491B4A1C4840F2D7335F
:1005180005F08EF91E4805F08BF940F2D731EAE76D
:1005280002F00603042B09D11A49134A134840F272
:10053800DA3305F07DF940F2DA31DCE73B68012473
:100548008C401C420CD114490B4A0C4840F2ED3344
:1005580005F06EF9114805F06BF940F2ED31CAE784
:100568002B68D7074CBF2343A3432B603368BDE8F0
:10057800F0411847246B0008866A0008F56A0008ED
:100588005D6B000802000300020001009A6B00087E
:10059800E16B0008306C0008B76A0008126B0008AD
:1005A8002DE9F34705464FF4003110461446FFF78E
:1005B80087FF4FF480312846FFF782FFDFF87C8001
:1005C8001F4F204E2B7928684FF0010909FA03F9CB
:1005D80043681B6819EA030F0ED11B491B4A1C48C4
:1005E80040F2FF5305F024F91A4805F021F917489D
:1005F80040F2FF5105F013F9D0F810A0836801A963
:100608005B689847217938B9DAF80020019B20689F
:10061800534013EA090207D020680122FFF722FF9E
:10062800404605F0EFF8CDE7FFF71CFF384605F028
:10063800E9F83146084804F015FEC3E7636C000882
:100648006F6C00087C6C0008B76A0008866A0008AE
:10065800F56A0008126B0008986C000808B50023BA
:10066800024A03481946FFF79BFF00BF346700089A
:1006780028670008B2F5802F2DE9F0410ED33C49D8
:100688003C4A3D4840F2EB1305F0D2F83B4805F0F0
:10069800CFF840F2EB11374805F0C1F8042A0CD81E
:1006A8003749344A34484FF4F97305F0C1F83548EE
:1006B80005F0BEF84FF4F971EDE7043ACD1D8E1838
:1006C80025F0070526F00706761B172E4FEAD607F2
:1006D8000CD82D49274A284840F2FB1305F0A8F802
:1006E800284805F0A5F840F2FB11D4E7B7FA87F4DB
:1006F800C4F12002C4F12404A4000734E408631CF4
:100708004FF00008BB420560AF60C5F80C800CD9FB
:100718001E49184A18484FF4037305F089F8194818
:1007280005F086F84FF40371B5E74146920005F1EC
:10073800100005F081FD630043F001036B8005EBB9
:10074800C4023B1B5900A5F800805180AA1925F85E
:100758003440A2F80280AB5305EBC70321465A8800
:1007680042F001025A802846BDE8F04104F0EEBF8D
:10077800816D0008B36C0008F56A0008976D0008E1
:10078800AE6D0008CF6D0008E86D0008116E000816
:100798002DE9F04F91B08407009302F0040302930F
:1007A800C2F3C20303F10103DDF868800392054632
:1007B8000E46059340F0F581041D30B1072909D88C
:1007C8006FF01B0011B0BDE8F08F01F00706341D73
:1007D800C6F10806009B4FF00009013B4FF0040BDF
:1007E8000193CDF810904F464B464FF0FF32DA4652
:1007F8000DB1009921600598002800F3D78098482A
:100808000099814203D397488142C0F0CF80039971
:10081800A4EB050E89074FEA9E0040F1E2804FF0F5
:10082800000CCCE07A285AD84B280CD8472856D840
:1008380029282AD8252851D051D8202877D02338DC
:100848004342434173E04C382E2848D8DFE800F093
:100858006F474747474747474747474749474747F6
:100868004747474747594749495959596F496C4775
:100878006F471849184747807D49474749477D00D2
:10088800002000234FF0040B39E02A38C0B20121C0
:1008980001FA00F010EA0E0F49D110F0625C30D175
:1008A80010EA010343D06046013C5C44B4FBFBF40E
:1008B8000BFB04F4002D60D0AAEB050CA444B4454E
:1008C8003FF67EAF00286AD1BAF1040F45D158F837
:1008D800040B206004344FF0040A28E0013A002396
:1008E80025E0019B13F8013C6C2B33D1019B13F8D5
:1008F800023C00206C2B0346C4D14FF0080BDA46AB
:10090800D2E708F1070828F007080734F8E802AB2F
:1009180024F0070435B106982044B0423FF650AFA2
:10092800C4E900AB083400234FF0080BDA460199FC
:1009380011F8010F0191002800F0BB80002B7FF413
:1009480071AF2528F3D1013201234FF0040BEDE7F5
:10095800184696E700200346A6E7BAF1080F40F0CC
:100968009A8008F1070828F00708F8E80201C4E9A6
:10097800000108344FF0080AD9E780B9BAF1040F2A
:1009880002D108F10408A5E7BAF1080F40F0838006
:1009980008F1070828F0070808F10808E9E70599A9
:1009A8000139059158F8041B009121E7039988073C
:1009B8004AD5A4EB050E4FEA9E004FF0010CBEF598
:1009C800007F1ED32849294A294840F27B2304F096
:1009D8002FFF284804F02CFF40F27B21234804F025
:1009E8001EFF0F2F0FD8002D48D007F140010DEB47
:1009F800010C0CF8200C0CF8102C04980130049011
:100A080021E00F2F0CD91849184A19484FF42073C0
:100A180004F00EFF184804F00BFF4FF42071DDE7D7
:100A2800CDB107F140010DEB010EC0B20EF8200C5C
:100A38000EF8102CBCF1000FDFD060F07F000EF82C
:100A4800200C09F101090137C5F1080104340691A8
:100A58004FF6DA7E6BE7BCF1000F0FD00136F2E7F4
:100A68006462000818850008616C00083C6E000884
:100A7800F56A00086A6E00088B6E00080298023654
:100A88000028E0D10098CDE90632FFF7E3FCDDE964
:100A980006320644D7E7444A4449454840F2C5234C
:100AA80004F0C6FE5146434804F0C2FE40F2C52198
:100AB80094E7631BB3F5806F0CD33C493A4A3C4832
:100AC80040F2D12304F0B4FE3B4804F0B1FE40F2FA
:100AD800D12183E71DB9A6F10804E01872E6029A4D
:100AE80028609B082B709DF81030C2B1EB7085F818
:100AF8000290B9F1000F05D008A80022C5F1010C39
:100B080097420ED1C5F101030DF120084FF0000AFC
:100B180001930DF1300B574512D1601B52E66B70F3
:100B2800E5E710F8013B190608D504EB0C0EB645AD
:100B380003F07F033FF644AE04F8013B0132DFE7E0
:100B4800B9F1000F03D098F90020002A17DB029BA7
:100B5800D3B11AF80B2004F8012B0022019B981836
:100B68002044B0423FF62CAE98F8000004F8010B80
:100B780000990392204605F051FB039A14440AF1A8
:100B8800010A08F10108C6E798F8002055F8223054
:100B98000093029B45F822300098FFF75BFC421C4B
:100BA800DCE76FF00D000DE63C6E0008616C000894
:100BB800F56A0008A56E0008BA6E0008014B1860B7
:100BC800704700BF0000002080B505460E46174656
:100BD800984603F02BFF034605F036FBDFF8189024
:100BE800044649F80030424630463946A84754F88A
:100BF800090000F0F5FF00BF08000000034A536831
:100C080023F0020353600020704700BF002004E077
:100C1800074A136843F010031360064B064A1A602C
:100C2800064A536843F0010353600020704700BF31
:100C3800002002406000002000127A00002004E03A
:100C48002DE9F84FDFF8F8A03E4FAAEB07038F2BEA
:100C5800814688460BD93C493C4A3D4840F23F13FF
:100C680004F0E6FD40F23F11384804F0D8FD394859
:100C780004F0F6FD0646002834D13C4605464FF000
:100C8800010B544527D93449304A31484FF4A673EB
:100C980004F0CEFD314804F0CBFD4FF4A671E3E734
:100CA800237B6BB12368DB680BB120469847236828
:100CB8001B6943B9636804221968204600F00AF9E1
:100CC80001361034DDE7204698470028F2D00BFAA9
:100CD80006F31D43F4E7E3D3B9F1000F02D04FF058
:100CE800010A0DB9BDE8F88FA94695FAA5F4B4FA3A
:100CF80084F40AFA04F3260107EB04146FEA030BE1
:100D080025EA0305237B5BB1BB591B699BB93E44AC
:100D1800042273682046196809EA0B0900F0DAF81A
:100D2800002DE2D1B8F1000F03D06420002103F0B8
:100D380045FE4D46D5E7204698470028F0D1E6E71E
:100D480020670008106700080F6F0008E26E0008AF
:100D5800F56A0008F00200203F6F0008606F000885
:100D6800014B53F8200070474067000808B5034658
:100D780008462BB1044A136000F0F0FA002008BDC1
:100D88006FF01500FBE700BF04000020054A064885
:100D980000231370054A1360054A4FF47A711360F3
:100DA800FFF7E4BF6404002059580008E802002057
:100DB800EC02002070B5134D297809BB0120FFF71C
:100DC8003FFF114C114EB44217D91149114A12482C
:100DD8004FF4DC7304F02CFD104804F029FD0D4895
:100DE8004FF4DC7104F01BFD63685B791BB1236869
:100DF80020469B6898471034E5E7F5D301232B700C
:100E080070BD00BF64040020106700082067000858
:100E18003F6F0008E26E0008F56A0008606F00087E
:100E280010B50446084804F01BFD5CB1BFF35B8FA6
:100E3800064B53E8001F013943E80012002AF8D195
:100E4800BFF35B8F10BD00BFE8020020EC0200205A
:100E580070B5124B124C1B68124E05469847A86095
:100E6800B44218D91049114A114840F2F31304F05A
:100E7800DFFC104804F0DCFC0C4840F2F31104F0ED
:100E8800CEFC63685B7923B1236829461B6820463A
:100E980098471034E4E7F4D370BD00BF0400002085
:100EA80010670008206700083F6F0008E26E00081E
:100EB800F56A0008606F0008044A054B9B1AB1EBFD
:100EC800D30F34BF52F8310000207047C8660008BD
:100ED800106700080E4BC31A1B11013310B5DBB2A3
:100EE80048B90C490C480D4ADF2304F0A1FC0B4813
:100EF800DF2104F094FC4468237143689A714368C5
:100F08001960436801225A71BDE8104004F0CABC58
:100F18001067000803700008F56A0008CB6F000826
:100F28002DE9F04F85B002AFD7E90EA93D6B044615
:100F38000E4693469846BAF1000F17D0C7F80490AA
:100F4800CDF8009010217A6B53460020FFF720FC63
:100F5800011E0CDA2049214A214840F2631304F0AB
:100F680067FC40F263111D4804F059FC51461D4AC4
:100F780004F007040BF0070BE40044EA8B1402EAC0
:100F88004122144344EA055417350D4425F007055A
:100F9800ADEB050D02ADBAF1000F13D0CDF80090FE
:100FA8007A6B534605F11000FFF7F2FB002809DAC7
:100FB80009490A4A0A4840F27D1304F039FC40F214
:100FC8007D11D0E7434622463146284604F06DFCA1
:100FD8000C37BD46BDE8F08F4F700008237000083D
:100FE800F56A000800FE0F00406820B1034BC01AE4
:100FF80040F3CF0070474FF0FF307047C8660008D5
:101008000EB403B503AB014653F8042B044801930F
:1010180001F064F902B05DF804EB03B0704700BF5B
:10102800E5580008CA0605D48B064CBF0249034997
:10103800FFF7E6BF704700BFFE8000085970000840
:101048002DE9F04F89B09B46149B06939DF84CA060
:10105800159B0593169B179E049304460D469046D0
:10106800BAF1000F00F0AD80BAF1040F0BD9A34913
:10107800A34AA44840F2622304F0DAFB40F262215A
:101088009F4804F0CCFB06F48073079304F00BFC34
:1010980006F00209024600283FD09B492046FFF788
:1010A800AFFF0746B9F1000F08D016F0440F36D14C
:1010B80096492A462046FFF7A3FF074406F0010396
:1010C80053B1934B934953F82A20934B2046002A57
:1010D80008BF1A46FFF794FF06F48073002B4AD026
:1010E80006F00803002B64D1B8F1000F67D08B49D4
:1010F80042462046FFF784FF0546069B3D44002BE9
:101108006ED1049B002B40F08380F30700F1F08040
:1011180031462046FFF786FFE4E00746C2E7804BEA
:1011280018680028C9D07F4B4FF47A791B68B5FB43
:10113800F3F54FF46161B5FBF0F300FB135509FBC0
:1011480005F54FF03C0CB3FBF1F201FB1231B5FB96
:10115800F0FEB1FBFCF300FB1E550CFB131109FB61
:1011680005F50091B5FBF0F56F49CDE901E520469D
:10117800FFF746FFA1E706F00803EBB16B4B6C499C
:1011880053F82A202046FFF73BFF0546B8F1000F29
:1011980005D0624942462046FFF732FF0544BBF1BD
:1011A800000FAAD063495A462046FFF729FF054495
:1011B800A3E74FF0000BE1E706F00805E6E7454630
:1011C8009BE7BBF1010F069B06D1DBB9049B002B03
:1011D80000F0888000251BE0002BF7D0564812E06D
:1011E8005648069B5649224604F0D7FA00280CDADE
:1011F8005449434A43484FF42F7304F019FB4FF402
:101208002F713DE74D485546EBE7049B002B65D011
:10121800DFF83481DFF83491049F3146102F2046DF
:1012280028BF1027FFF7FEFE4FF0000B5D4542DC9C
:10123800059B49461A782046FFF7E2FE4FF0010B5E
:101248001BF0070F03D141462046FFF7D9FE5F4543
:1012580038D9059B494613F80B202046FFF7D0FEE6
:101268000BF1010BBBF1100FEAD1394920464FF0C1
:10127800000BFFF7C5FE5A46059B9A5CA2F12001B8
:101288005F2928BF2E2233492046FFF7B9FE0BF10C
:10129800010BBBF1100F1AD01BF0070F03D1414609
:1012A8002046FFF7ADFE5F455A46E5D84146204641
:1012B800FFF7A6FEEBE741462046FFF7A1FE0BF13C
:1012C800010BB3E724492046FFF79AFEC8E7059BC0
:1012D8003B440593049BDB1B04939DD1BAF1000F9B
:1012E8007FF413AF204609B0BDE8F04F04F020BBEF
:1012F800094A08492046FFF783FE09E7907000086D
:1013080061700008F56A00089C700008A070000869
:1013180050670008C57000085C700008C8700008B5
:10132800F8020020F4020020A97000086467000891
:10133800CC700008D270000801590008E558000870
:10134800E5220008D7700008E8700008E07000087F
:10135800EA700008EC700008E6700008074A0021EF
:101368000123904206D8064A01B901231360054BB0
:101378001860704740085B000121F2E740420F0007
:10138800F4020020F8020020F8B5074F0D46044685
:101398004618B44201D12846F8BD14F8011BBB68B1
:1013A80001485B689847F4E7E063000810B54368B4
:1013B8001C68094804F06FFE48B908490848094AFA
:1013C800992304F035FA0748992104F028FA23688C
:1013D8005B685C6010BD00BFE06300084D710008E9
:1013E800F56A00080F710008014B03600020704780
:1013F800AC67000870B5064686B00D46002938D09F
:101408008B6805934B6804930B6803930024244B63
:1014180024490293012223462046CDE9004404F0E2
:10142800E6FA6B6905932B690493EB6803931E4BEB
:101438001C490094CDE9014301222346204604F0CB
:10144800D6FAEB690393194B16490094CDE9014389
:1014580001222346204604F0CAFAAB690393144BD1
:1014680010490094CDE9014301222346204604F0A7
:10147800BEFA012E0DD1EFF30583103B03930D4BFC
:1014880002930023CDE9003306493246184604F09A
:10149800AEFA2946304606B0BDE8704002F076BA8A
:1014A80081710008F0660008B0710008DF7100085B
:1014B800EE7100081C72000808B5034B1B689847BA
:1014C800BDE8084000F026B81000002030BFFFF744
:1014D800FDBF00BF2DE9F0410B4EDFF8308006EB71
:1014E8000807CC1B054632460949204604F096FEFB
:1014F800A01942460021083C04F09EFE2C6707F123
:101508000800BDE8F08100BF0000000004000000F2
:1015180020670008074A936893F90E10002907DB33
:10152800526993421FBF044A536843F08053536083
:10153800704700BF2C04002000ED00E0F0B585B036
:101548000024434B0293CDE90044234607460E4648
:1015580001224049204604F05EFA3F4B9B6ADB04B7
:1015680065D53E4B3B490094CDE9014320462346CF
:10157800012204F050FA1720374B9B6A1D050AD543
:10158800374B029300231846CDE900333149012235
:1015980004F041FA1820304DAB6A9C051FD5002491
:1015A800304B0293012223462046CDE900442949C5
:1015B80004F031FAAB6BAA6A10040FD503932A4BD7
:1015C80024490094CDE9014301222346204604F032
:1015D80022FA1FB1AB6A23F40043AB6219201E4BF9
:1015E8009B6A59050AD5214B029300231846CDE979
:1015F80000331849012204F00EFA1A20164A936A99
:1016080013F4807315D01A4B029300231846CDE9C2
:1016180000331049012204F0FEF91B200E4A936A98
:1016280043F47F4393620023337005B0F0BD162066
:10163800A2E7926A9204F1D50E4A06490093CDE9D1
:1016480001321846012204F0E6F91C20E6E700BF43
:101658002F720008F066000800ED00E045720008EF
:1016680056720008697200088272000897720008B2
:10167800B2720008CA7200081FB50024374B0293E3
:1016880001222346CDE900443549204604F0C3F938
:10169800344B9B6A9A015ED5334B31490094CDE9AE
:1016A800014320462346012204F0B5F91E202D4BA4
:1016B8009B6ADB010AD52D4B029300231846CDE91E
:1016C80000332749012204F0A6F91F20254B9B6A05
:1016D8001C030AD5264B029300231846CDE9003394
:1016E8001F49012204F097F921201E4B9B6A5903D8
:1016F8000AD5204B029300231846CDE90033184938
:10170800012204F088F92220164B9B6A9A030AD515
:10171800194B029300231846CDE9003310490122E2
:1017280004F079F923200F4B9B6ADB030AD5134B8E
:10173800029300231846CDE900330949012204F039
:101748006AF92420074A936A6FEA03436FEA13434E
:10175800936204B010BD1D20A9E700BFF97200080C
:10176800F066000800ED00E011730008247300081B
:101778003E7300085C730008817300089B730008BF
:101788002DE9F04385B00024564B0293CDE900447F
:10179800234680468946204653491646012204F0CE
:1017A8003AF9524B9B6AD80640D5514B0094CDE983
:1017B8000143204623464C49012204F02CF9112408
:1017C8004A4B9B6A19070AD54A4B02930023CDE975
:1017D800003345490122184604F01DF91224434DEF
:1017E800AB6A9A0724D50024434B0293CDE9004401
:1017F80023463D490122204604F00DF96F6BAB6A80
:101808001B0659D53D4B38490397CDE90143009450
:1018180023460122204604F0FEF8B9F1000F03D058
:10182800AB6A23F08003AB62132403E01024C7E7FC
:101838006FF015072D4B9B6AD8070AD5304B0293DA
:101848000023CDE9003328490122184604F0E3F8C3
:101858001424264B9B6A99060AD52A4B0293002327
:10186800CDE9003320490122184604F0D4F81524A4
:101878001E4DAB6ADA0602D4AB6A9B070AD56B68C1
:10188800180507D54146384600F0A8FAB8B180F3E4
:1018980009880224154B9A6A920642BF5A6A22F4B2
:1018A80000525A629A6A42F0FF029A622046002366
:1018B800337005B0BDE8F0836FF01507B4E7AB6A85
:1018C800D906E7D51049114A114840F25D1303F0D3
:1018D800AFFF104803F0ACFF0C4840F25D1103F075
:1018E8009EFF00BFC6730008F066000800ED00E028
:1018F800DC730008567200080F740008277400088B
:101908003D740008CA7200088E7400085C740008F0
:10191800F56A0008D87400082DE9F041894B04469F
:10192800586890B0C0F30806002383F31188BFF30A
:101938006F8F02F07F45B5F17F4F0CD102F00C0597
:10194800082D17D1804A81490093CDE90132184604
:10195800012204F060F87E497E4A7F484FF48B6389
:1019680003F066FF7D4803F063FF4FF48B6179480D
:1019780003F055FF120746BF0C461D460125002CF3
:10198800E9D04FF00008F31E8DF81F80092B00F2F4
:10199800BF80DFE803F005B3B796BDBDBDBDBDBBD5
:1019A8006F4B6A49674FCDF80080CDE9018300236A
:1019B8000122184604F02FF88DF81F80FE6A16F0F1
:1019C800020605D0674BCDF80080CDE9018306E01B
:1019D800FB6A002B0BDA644B0096CDE90163002308
:1019E8005A490122184604F016F8002230E0FB6A32
:1019F8005B0076D55D4B55490096CDE90163012220
:101A08003346304604F007F87B69A26943F48073D3
:101A18007B61BFF34F8FBFF36F8F7B6932F8022C66
:101A280023F480737B61BFF34F8FBFF36F8F4DF645
:101A380002739A422CD1236803934D4B4349009675
:101A4800CDE9016301223346304603F0E4FF226802
:101A58009DF81F30CBB908AE04F1200720686168F3
:101A6800334603C30834BC421E46F7D10F9B002DF2
:101A780062D0C3F3080121B96FEA53236FEA432305
:101A88000F9308A91046FFF7B5FC10B0BDE8F08128
:101A9800BB6ADBB23BB10DF11F0201212046FFF703
:101AA8006FFE0246D4E7BB6A13F47F4F05D00DF1F1
:101AB8001F010120FFF742FDF3E7BB6AB3F5803F42
:101AC80002D3FFF7D9FDECE72A49224A224840F21F
:101AD8002A3303F0ADFE284803F0AAFE40F22A316B
:101AE80045E724491B4A1C4840F22E3303F0A0FE68
:101AF800224803F09DFE40F22E3138E70DF11F0217
:101B08000021CBE70DF11F010020D3E71C4B5AE75A
:101B18001C4A1D4B0D4910F4F87F18BF1346103EA0
:101B2800CDE90336194B02930023CDE90033012296
:101B3800184603F070FF58E723F4FF7323F00103FE
:101B48009EE700BF00ED00E029750008F066000878
:101B5800547500085C740008F56A00086775000889
:101B6800A5750008BC750008DD750008EB75000850
:101B78000A760008616C0008267600084A76000894
:101B88007A76000810750008FB7400089E76000835
:101B9800024A536943F010035361704700ED00E0B7
:101BA800EFF30880EFF3098101B57246FFF7B4FE41
:101BB80001BD00BF102080F3118808484FF404616C
:101BC800401880F30988EFF314800221084380F35A
:101BD8001488BFF36F8F00F0C1F80000C00C00201C
:101BE800084B9B6883420BD1EFF3058343B1064B47
:101BF8005A6842F080525A605A6A22F400425A6285
:101C080002F01ABF2C04002000ED00E0094A936896
:101C18006FF00A019967084958674B6843F0805389
:101C28004B60002383F31188BFF36F8F9368986F1D
:101C3800704700BF2C04002000ED00E010B50446FA
:101C4800EFF31183102383F31288BFF36F8F0A4BCE
:101C580058699860094B4FF000625A60084B026F50
:101C68001A600022436F426783F31188BFF36F8FB6
:101C780000F01CF9204610BD2C04002000ED00E007
:101C8800200300200B498A684FF030001044EFF31E
:101C9800098C80E8F01F74467046FFF7CFFFA64610
:101CA80004498A6802F1300090E8F01F8CF3098833
:101CB800704700002C0400201EF0040F0CBFEFF347
:101CC8000880EFF30980816911F8021C0229FFD00E
:101CD80001B503F09CFE01BD40B2002807DB044AB1
:101CE8004109012300F01F00834042F8213070476A
:101CF80000E100E038B54B1C0F2B04460D460FD908
:101D0800114A12491248582303F092FD11482946F6
:101D18000F23224603F08CFD0B48582103F07FFD6A
:101D280040B20028ACBF00F160400B4A4FEA0313F1
:101D3800B8BF00F00F00DBB2AABF00F56140135432
:101D480080F8003338BD00BFB1760008E876000897
:101D5800F56A00080377000814ED00E00F4A08B59B
:101D68000F4B22F07F029A60BFF34F8FBFF36F8F44
:101D7800D3F8882022F47002C3F88820EFF3148384
:101D880023F0040383F31488BFF36F8F01F016FF69
:101D980002F0C4FF00F060F801F054FF00000008F2
:101DA80000ED00E042F8203C009B42F81C3C0A4948
:101DB800019B42F8183C029B42F8143C21F00101B7
:101DC8004FF0807342F8043C42F8081C0023203A84
:101DD80002654367704700BFD10B0008094A0346F4
:101DE800906870B113F1160F006E05D0A0F1400293
:101DF8009A4205D8834203D2814228BF0020704707
:101E0800002070472C04002008B515460B4A0C4BDF
:101E18009060026F1A600E4600F048F82C4686F370
:101E280009884FF00000074B984720464FF0000103
:101E38004FF000024FF00003034C20472C04002011
:101E480020030020475A0008D10B0008014B10223C
:101E58001A61704700ED00E0044800231021C21801
:101E68000133522B82F80013F9D1704700E100E0EA
:101E780008B5EFF30583064A103B02EBC30152F89D
:101E8800330049688847BDE80840FFF743BB00BFF7
:101E980008640008024B034A0348012100F096B881
:101EA80000A0002000000020AC670008026E054B6F
:101EB800403A1A60044A4021C3E901121846012138
:101EC80000F0AAB82403002000000B151FB5144A1F
:101ED800D2F89030C3F30723013B98420FD9114B36
:101EE800029300230390CDE9003318460E490122DE
:101EF80003F0C9FD6FF0150005B05DF804FBC2F8EA
:101F080098000B6823F01F03034343F01003C2F843
:101F18009C308B6843F00103C2F8A030ECE700BFA7
:101F280000ED00E047770008E8660008F0B50E46C7
:101F380089B01F4604460025B54212DA606838B3F6
:101F4800BFB1431E18420FD0134B02930023CDE9B3
:101F58000033124903950122184603F094FD6FF0EF
:101F68001502104609B0F0BD1F28EDD921680B42B3
:101F7800EAD12368059303F076FDA36805A9034316
:101F8800D0B20793FFF7A2FF10F1160FE7D0421C5B
:101F980001350C34D0E700BF6D770008E86600080B
:101FA800044B0522C3F89420BFF34F8FBFF36F8F04
:101FB800704700BF00ED00E0BFF35F8F024B0022C7
:101FC800C3F89420704700BF00ED00E038B50D4D10
:101FD80001232A780C46FFF7A9FF287016300FD185
:101FE800094A0A490A4840F2671303F021FC0948E4
:101FF800214603F01DFC044840F2671103F00FFC72
:1020080038BD00BF6604002090770008616C0008A6
:10201800F56A0008BF77000810B5144A0023127843
:102028000C46FFF783FF10F1160F08D0104A002165
:10203800D2F89030C3F30723984210DB10BD0D4A45
:102048000D490E484FF4C37303F0F2FB0C482146C8
:1020580003F0EEFB07484FF4C37103F0E0FBC2F84E
:102068009800C2F8A0100130E2E700BF6604002023
:1020780000ED00E090770008616C0008F56A000840
:10208800EB7700082DE9F04F7B4C7C49D4F8903071
:102098000D68C3F307239D4285B013D9784A79495F
:1020A80079484FF4CF7303F0C3FBD4F890207748F6
:1020B8002946C2F3072203F0BBFB4FF4CF717048E7
:1020C80003F0ADFBFFF778FF49680022954201F164
:1020D8000C012DD16E4C6F4F25706846FFF784F9BF
:1020E800DFF8B481DFF8B49106460025AE4232D15C
:1020F800237861490020D1F89020C2F30722934247
:10210800C0F2AF80FFF74CFFD1F89030C3F307233C
:10211800082B00F0AC806249594A5B4840F20E2314
:1021280003F086FB5F4803F083FB40F20E21C6E70D
:10213800C4F8982051F80C3C23F01F03134343F0D4
:102148001003C4F89C3051F8043C43F00103C4F870
:10215800A0300132BAE7009A02EB05132901D3F83F
:102168000CA00AEA0700B0F5000F60D00AD8B0F555
:10217800001F38D0B0F5800F4ED0B0F5801F12D0B8
:102188000135B3E7B0F1807F5CD0B0F1007FF7D1C3
:102198009868D3F804A0525803F065FCCDE901A271
:1021A80040F480200BE09868D3F804A0525803F05C
:1021B8005AFCCDE901A240F0885040F43020039049
:1021C800207801A9FFF782FE002846DA2D492C4A1B
:1021D8002D484FF4E47303F02BFB334803F028FB3E
:1021E8004FF4E4716BE79868D3F804B0525803F0E1
:1021F8003AFC1AF0010F40EA0800CDE901B2039059
:10220800DED02A491E4A20486C2303F011FB2848D7
:1022180003F00EFB6C2152E79868D3F804A05258DB
:1022280003F021FCCDE901A240EA0900C7E798685C
:10223800D3F804A0525803F016FCCDE901A240F0EF
:102248008270BCE79868D3F804A0525803F00BFCDE
:10225800CDE901A240F08870B1E7237801332370FB
:102268008EE7C1F89830C1F8A000013343E7002099
:1022780005B0BDE8F08F00BF00ED00E0B8670008CA
:1022880090770008616C0008F56A00081878000863
:10229800660400200000F0FF00000811000002079B
:1022A800CB7800081B790008A17800084C78000852
:1022B8007278000808B5024B1B689847002008BDD3
:1022C80030030020034B044A1860937843F002035C
:1022D800937070473003002014000020F0B587B0D9
:1022E80007460E4614460021102268461D4603F094
:1022F800A3FF02238DF802302A46054B019321469D
:102308006846CDE9047602F0BFFF07B0F0BD00BF14
:10231800AF5A000808B50649064821F00701C1F17F
:10232800005202F52042FEF7A5F9002008BD00BFC3
:10233800C71B0020340300202DE9F0410F4E104F39
:10234800054600244FF001082B7853FA84F01F2823
:102358000DDC726908FA00F333EA020207D17361EF
:1023680057F830301BB107EBC002516898476A78BC
:102378000134E3B29A42E7D2BDE8F081000401409B
:1023880040030020044B184400230133994200F80D
:10239800012BFADC704700BF6C00002010B4064B1C
:1023A800064902460C6818560123934023430B60E4
:1023B80010BCFFF791BC00BF6C0000200004014076
:1023C8001F2806DC034901220B68824023EA020326
:1023D8000B6070470004014003292AD8DFE801F0A8
:1023E800020E141F134B01229968824021EA020150
:1023F8009960D96821EA0202DA6070470D4B012220
:10240800996882401143F3E70A4B0122D968824058
:102418001143D960996821EA02029A607047012342
:1024280003FA00F0034B9A6802439A60DA68104393
:10243800D86070470004014030B50A4B53F830406B
:102448008C4204D103EBC0056D68954205D034B9C0
:1024580043F8301003EBC0035A60002030BD6FF022
:102468000F00FBE740030020034B002243F8302015
:1024780003EBC0035A6070474003002010B5164BA9
:1024880018680B68052B144610D0062B08D86BB1BA
:10249800013B052B0AD8DFE803F00D0C180C0912D4
:1024A800182B07D01C2B08D0142B03D06FF08500F5
:1024B80002E000202060002010BD4008FAE700F08C
:1024C80099F828B100F096F8F4E749F64040F1E7AA
:1024D8006FF00400F0E700BF60000020F8B53A4F45
:1024E8003A4C00F097F8384603F0A6FB00F0F8FFE6
:1024F8006368374AC3F303131578D35C47FA05F5C5
:1025080020FA03F6AE4202D2284601F0E1F9236828
:1025180043F480232360236843F4803323602368D3
:102528009B03FCD5636A43F001036362636A9807FF
:10253800FCD5636803F00C03082B15D123689907B1
:1025480006D4236843F00103236023689A07FCD567
:10255800636823F003036360636813F00C0FFBD117
:10256800636823F0F0036360236823F080732360BB
:1025780000F032F8236843F08073236023689B01DE
:10258800FCD5636823F0F0036360636823F00303FA
:1025980043F002036360636803F00C03082BFAD16D
:1025A800AE4202D3284601F093F90A4B1F606368D4
:1025B80023F4E06343F480636360636823F4605347
:1025C80063600020F8BD00BF00A24A04001002406A
:1025D800887D000860000020054A536823F47413BE
:1025E80043F4E8135360D36A23F00F03D3627047B0
:1025F800001002404FF4E0134FF4701292FAA2F266
:10260800B2FA82F2D340024802335843704700BFFF
:1026180000127A00064BDA6942F08052DA61DB690F
:1026280082B003F080530193019B02B0704700BF52
:102638000010024008B5074803F02DFD38B10648E0
:10264800FFF740FE0448FEF7B9FA002008BD6FF016
:102658001200FBE7E0630008652600080A2838B581
:10266800074D044604D1AB680D215B68284698479E
:10267800AB6803485B68E1B29847204638BD00BFA5
:10268800E063000810B5036961B92049204A214870
:102698003A2303F0CDF8204803F0CAF83A211C4841
:1026A80003F0BDF8486850B91C49194A19483B233A
:1026B80003F0BEF81A4803F0BBF83B21EFE798682F
:1026C800F8B1884219D1DC6808689860A14200D145
:1026D800D860002008602AB19A680A60DA689960B0
:1026E80002B9D960002010E0814206D10868206054
:1026F800D8688142EDD1DC60EBE704460068002829
:10270800F2D1002AE8D16FF0150010BDC079000899
:1027180084790008F56A0008C9790008D8790008A2
:10272800EA79000838B5036904465860084D284618
:1027380003F0B1FC40B16168AB680C311B682846F6
:10274800984700EAE07038BD6FF01200FBE700BF61
:102758000463000870B5D1E9016119B101250C685D
:10276800854001B970BD8A682A4010D04B6863B9AA
:102778000A490B4A0B485D2303F05AF80A4803F04C
:1027880057F807485D2103F04AF8304698471CB1CE
:10279800236821461C46E4E72346FAE7017A000845
:1027A80084790008F56A0008EA790008F7B50C464C
:1027B8001146B1F5001F476802691D4625D104F08E
:1027C8000302043292000F23934043EA940303F078
:1027D80003023549023251F82220190C02EA134348
:1027E80091FAA1F2B2FA82F2D340BA689A4209D1B8
:1027F8002046FFF7E5FD2046FFF736FE002120467C
:10280800FFF7EAFD002003B0F0BDB1F5800F42D01C
:1028180026492046FFF710FE00283FD1B5F1806F0A
:1028280035D0B5F1C06F34D0B5F1007F39D102266B
:102838001F4ABD6892E803006B4683E803001D4801
:102848008268194612689047C8B904F00303043334
:102858009B000F229A4042EA940202F003039B0075
:1028680003F1804303F58033110C986820EA124085
:1028780091FAA1F2B2FA82F2954005439D60204692
:102888003146FFF7A9FD2046FFF788FDBAE7012684
:10289800CEE70326CCE76FF08500B4E76FF00F00B2
:1028A800B1E76FF01500AEE7000001405D270008B2
:1028B80020670008046300082DE9F047264F044606
:1028C80000EBC1060025B44201D1002014E02068C5
:1028D800C30600F01F0811D4656845F02005C0F351
:1028E800481AC0F344200F2832D857F82090B9F17D
:1028F800000F1CD16FF01200BDE8F087B8F1100F7F
:1029080013D0B8F1110F01D16568E8E7B8F1000FED
:10291800E5D112491248134A4FF4887302F088FF30
:1029280010484FF4887102F07AFF3025D7E74846FF
:1029380003F0B1FB0028DDD043462A460AF00F0118
:10294800484603F056FA002804F10804BBDAD3E736
:102958006FF01500D0E700BF94680008947A00086B
:10296800F56A0008617A0008B1F5807F22D016D890
:10297800102921D00FD8012920D0042908BF01230C
:1029880018BF08231049026AC85C02238340134019
:1029980023FA00F07047402908BF0323F0E7B1F598
:1029A800805F0DD0B1F5803F0CD0B1F5806F08BFC6
:1029B8000523E5E70423E5E70223E3E70023E1E74E
:1029C8000623DFE70723DDE7BA7B00082DE9F04798
:1029D80001F1FF3C8CB0BCF1050FBDF850704468A4
:1029E800164698460FD98A4B03910293002318463E
:1029F800CDE900338749012203F03BFA6FF0150057
:102A08000CB0BDE8F0872268B2F1804F03D0B6F56C
:102A1800803F00F2FA80804B032953F82C5007F4CA
:102A2800807A0BD9BAF1000F11D12846D146AEB938
:102A3800136A23EA000313620020E1E7774B53F897
:102A48002C90BAF1000F05D0B9F1000F04D1744BE6
:102A58000391CAE72846EAE74846E8E7A36863BB64
:102A6800013E136A07F0010730EA03034FEA4707FC
:102A780044D1B0F5807F00F0BE8032D8102800F035
:102A8800BC802AD8012800F0BA80042808BF012396
:102A980018BF08236348116AC05C0223834021EAF7
:102AA800030387401F43604B176253F82C3020689C
:102AB800414698472368DE62BEE7102B02D108F131
:102AC800FF38CDE723F04001202902D0402B40F009
:102AD8009C804FEA58087608C3E7402808BF0323BC
:102AE800D6E7B0F5805F00F08C80B0F5803F00F04D
:102AF8008A80B0F5806F08BF0523C9E704A803F0F2
:102B0800C0FA602304930123BAF1000F23D006937F
:102B1800099723681B6A35EA03030CBF01230023C6
:102B2800059320682946FFF71FFF0890CDF81C8001
:102B3800206804AA294600F049FDF8B13B4B0293EE
:102B480000231846CDE900333249012203F091F9F8
:102B58006FF0040054E705930897B9F1000FE5D02A
:102B680023681B6A39EA03030CBF01230023069379
:102B780020684946FFF7F8FE0990D7E722681368EE
:102B880043F080031360B5F5807F22682BD01FD8EF
:102B9800102D2AD018D8012D04D0042D08BF0120EB
:102BA80018BF0820224B195C224B1832185C555864
:102BB800082383402B4353502368DE6222685369FD
:102BC80043F00103536137E7402D08BF0320E7E7CF
:102BD800B5F5805F0BD0B5F5803F0AD0B5F5806FAD
:102BE80008BF0520DCE70420DCE70220DAE706203E
:102BF800D8E70720D6E704234CE702234AE7002357
:102C080048E7062346E7072344E76FF08500F7E621
:102C1800AC7A0008F86600083069000824690008E2
:102C2800C17A0008BA7B00080C690008E87A000835
:102C3800CC7B0008C37B00082DE9F0430769456891
:102C48008BB0494E304603F026FA034668B9474A26
:102C580047490090CDE90102012203F00AF96FF01B
:102C6800120420460BB0BDE8F083D6F8089005F1B1
:102C78000C08D9F80030414630469847041E0BDA54
:102C88003C4B039402930023CDE9003338490122D9
:102C9800184603F0EEF8E4E7D9F80C301BB305AAA0
:102CA800414630469847041E1FDBEA68059B1C2AEC
:102CB80000D15B00D7E901013B608368DB6803B1A1
:102CC8009847686905AA002103F0A8F8041E07DBE5
:102CD800059B002219791868FFF7EEFD041E07DA34
:102CE800254B0394CEE76FF05704244B0394C9E7B0
:102CF80005A803F0BDF96B68ADF814300024AB6883
:102D08000693CDE9074405A9286800F00DFC60B1D9
:102D18001B4B0094CDE90143204623461449012268
:102D280003F0A7F86FF004049BE72B68154A934259
:102D38000FD002F5006293420BD002F54062934235
:102D480007D002F58062934203D002F58062934275
:102D580003D15A6C42F400425A642A68136843F05B
:102D68000103136000247CE704630008127B000859
:102D7800F8660008317B0008737B0008517B000867
:102D8800917B0008002C014030B502694368106847
:102D98001C680D46D9688368DB6887B05BB9154B3A
:102DA80002930023CDE9003313490122184603F0AA
:102DB800D5F807B030BD05AA98470028EFDB23688F
:102DC80023F400432360059B03EB5503B3FBF5F3A2
:102DD8009BB2E360E3680F2BEBD80849084A09481F
:102DE800D12302F025FD084802F022FD0448D12134
:102DF80002F015FDE67B000808670008437C000820
:102E0800147C0008F56A0008587C0008F8B50369C6
:102E1800D0F804E05E680B79012B0C4635D0991E7A
:102E28004D424D41AD026279022A9CBF404931F8BA
:102E380012C0A27988BF4FF4005C042A28D0003B56
:102E480018BF01231B03E179DEF80020012914BF14
:102E580000274FF44077A6421DD1116821F4B051E4
:102E680029430B431360536823F4405343EA0C038C
:102E7800536043681A68936823F440733B43936034
:102E88003168BDE8F840FFF77FBF4FF4C065CAE777
:102E98004FF48053D7E7D2F800E00EF4C06E7545C2
:102EA8001FBFD2F800E02EF4C06E4EEA050515608B
:102EB800426815686A6802F4405294451FBF6A6800
:102EC80022F4405242EA0C026A60426815682A6895
:102ED80002F4805293421FBF2A6822F4805213439F
:102EE8002B6043681A68936803F440739F421FBFBE
:102EF800936823F440733B43936043681B689A6864
:102F0800520405D5032909D09A6822F4804204E0C6
:102F1800032903D19A6842F480429A602168336891
:102F2800994203D0FFF730FF23683360F8BD00BF34
:102F3800806A0008F0B5046945680646594820606B
:102F480087B003F0A8F8034650B9574A5749009389
:102F5800CDE90132012203F001F86FF012040DE00F
:102F68002068E96883681B689847044648B9286A56
:102F780005AA002102F052FF041E0FDA204607B00E
:102F8800F0BD4B4B02930023CDE9003347490122A2
:102F9800184602F0E3FF002CF0DBE8E7059B00226F
:102FA80019791868FFF788FC041EE7DB7568336930
:102FB8002C685F68236823F001032360686803F0C6
:102FC8006AF8034608B93B4AC0E7D5E901018368B6
:102FD800DB6803B1984754E8003F43F00C0344E82A
:102FE8000032002AF7D139463046FFF70FFF2B7D14
:102FF8001BB1A36843F00803A3606B7D1BB1636832
:1030080043F400436360AB7D1BB1636843F48033D2
:103018006360EB7D1BB1636843F4003363602B7E10
:10302800002B33D0244B9C4216D0A3F574439C420A
:1030380012D003F580639C420ED0336803931F4B74
:1030480002930023CDE9003318490122184602F003
:1030580085FF6FF0150491E773681A68936843F465
:103068008043936023686A7E23F0787343EA42536F
:1030780023602368AA7E23F4F81343EA02432360FB
:10308800EB7E1BB1A36843F40043A360236843F0BD
:1030980001032360E3699A02FCD5E3695B02FCD56E
:1030A80000246BE704630008127B00080867000827
:1030B8006C7C00088C7C000800380140A77C000864
:1030C8002DE9F04143681C680369D3F804800B7943
:1030D8000D46012B4979AE7933D1022951D9042EF5
:1030E8004CD04FF480574FF4C06203238B4245D134
:1030F800002F78D0002A14BF03220422B2423DD107
:10310800EB7963B1012B73D13B4B9C4207D0A3F5FC
:1031180074439C4203D003F580639C422ED12368FC
:1031280023F0010323602946FFF770FE236843F06C
:103138000103236095E8030088E803000020BDE848
:10314800F081022B08D1022926D9042E16D04FF47B
:1031580080624FF48057C8E702290A4624D9042E12
:1031680004D15BB94FF480571A46BEE723B1033B3D
:10317800012B03D90022ECE70329BFD06FF08500AB
:10318800DDE71E4A042E32F811C0F7D04FF4C062B2
:10319800033B012B10D8F1E7184A042E32F811C06E
:1031A800ECD04FF48062F3E7144A042E32F811C0D1
:1031B8000FD1002BE2D11A464FF48057BCF5805F3F
:1031C8000DD0BCF5405F0CD0BCF1000F8DD10123B0
:1031D8008CE70BB10022DBE71A461F46EEE7002317
:1031E80084E7022382E7002A14BF0222032285E72C
:1031F800032B89D0C2E700BF00380140806A00086D
:1032080010B54FF0E0230F499C691A6908689B695B
:103218000D4902F4803234B993B903464AB90A68B1
:103228001044C01A10BD002B08BF03460AB9A342B8
:10323800F5D90A6802440A604FF0E0221269EEE705
:103248000446F3E724040020200400200A4B10223F
:1032580083F82320094B4FF4E1521A60084B0020F1
:1032680018604FF0E02341F61F425A6198611A69CD
:1032780042F007021A61704700ED00E024040020C4
:103288002004002010B5FFF7BBFF104B1049D3E90D
:1032980000420868001942F10002C3E900020D4A21
:1032A80000230B60D2E900414FF4E153001BB0FB4F
:1032B800F3F043431B1941F10001C2E9003101F069
:1032C800A1FEBDE81040FEF725B900BF400100206F
:1032D80020040020380100202DE9F041DFF82C817E
:1032E80099B1421C0BD14FF0E022136923F001037E
:1032F80013614FF07F43C8F80030BDE8F081D8F87B
:103308000050012807DC00270BE0431CD8F80050C8
:10331800F7D140F6191040F61A139842A8BF18467C
:10332800471EEFF31184102383F31288BFF36F8FC6
:10333800374801F0C7FC68B9364A37493748882307
:1033480002F076FA3249364802F072FA882131489A
:1033580002F065FA2E48334E01F0D8FCFFF750FF13
:103368004FF0E0239969D6E90023801843F1000360
:10337800C6E900032C4B00221A602C4B1A68831AEA
:103388003BD44FF4E15C0CFB073303F5E0531F33E8
:10339800B3FBFCF7131A0CFB0733B3F5806F244A11
:1033A80038BF4FF48063934228BF13464FF0E022A2
:1033B800C8F80030013B9069536100239361814252
:1033C800A1EB0003D6E9001238BF5B195B1842F184
:1033D80000020F48C6E9003201F082FC80B90D4AAC
:1033E80014490E4840F2311302F022FA08491248F3
:1033F80002F01EFA40F23111A9E74FF48063D5E7D5
:1034080084F31188BFF36F8F77E700BF240400208F
:1034180028040020047D0008317D0008F56A0008B2
:10342800467D0008400100202004002038010020CB
:1034380020DFFF005C7D0008737D000838B5EFF3DE
:103448001185102383F31288BFF36F8F1B4801F097
:1034580039FC68B91A4A1B491B48882302F0E8F965
:1034680016491A4802F0E4F98821154802F0D7F9FC
:10347800124801F04BFC164B1C68164B1B68E41AEB
:10348800FFF7BEFE04440D4801F02AFC68B90C4A57
:1034980011490D4840F2311302F0CAF907490F48A3
:1034A80002F0C6F940F23111DFE785F31188BFF366
:1034B8006F8F4FF4E150B4FBF0F038BD28040020C2
:1034C800047D0008317D0008F56A0008467D000883
:1034D80040010020380100205C7D0008737D000851
:1034E8000C4B5A6802F00C01082911D1DB6A0A4812
:1034F800C2F38341D20344BF03F00F03074A405C81
:1035080049BFD25C064B074BB3FBF2F358437047F5
:103518000448704700100240A87D0008987D000804
:1035280000093D0000127A00254A036890420ED037
:10353800B0F1804F0BD0A2F59432904207D002F53B
:103548008062904203D002F59632904222D14A68B6
:1035580023F070031343CA6823F4407313430360D2
:103568008B68C3620B888362154B98420FD003F5B2
:10357800006398420BD003F54063984207D003F5E7
:103588008063984203D003F58063984211D10B6998
:1035980003630EE00B4A9042DDD00B4A9042DAD02A
:1035A80002F580629042D6D003608B68C3620B88B4
:1035B8008362436943F0010343610020704700BF01
:1035C800002C01400040014000440140B1F5805FFB
:1035D80030B500F011810AD8102900F08680B1F5C5
:1035E800807F00F0C68001293DD0012030BDB1F5B3
:1035F800803F00F03681B1F5801FF6D1036A23F4CD
:1036080080130362036A416D146821F0807121F40C
:10361800E04141EA0424116923F4001343EA015309
:10362800516823F4801343EA0153A84988420FD014
:1036380001F5006188420BD001F54061884207D04E
:1036480001F58061884203D001F58061884206D186
:103658004168956921F4802141EA852141604465EA
:10366800D268C2653EE0036A23F001030362036A7D
:1036780041688469156824F4803424F073042C4369
:10368800156923F002032B43556823F001032B43EC
:103698008E4DA8420FD005F50065A8420BD005F560
:1036A8004065A84207D005F58065A84203D005F516
:1036B8008065A84212D1556923F0080343EA8503BF
:1036C800956823F0040343EA8503956921F4807122
:1036D8002943D56921F4007141EA450141608461BB
:1036E800D26842630362002080E7036A23F0100374
:1036F8000362036A41688469156824F0807424F4BD
:10370800E64444EA0524156923F0200343EA051337
:10371800556823F0100343EA05136C4DA8420FD0F7
:1037280005F50065A8420BD005F54065A84207D00D
:1037380005F58065A84203D005F58065A84213D138
:10374800556923F0800343EA8513956823F0400305
:1037580043EA8513956921F4806141EA8501D569B9
:1037680021F4006141EAC50141608461D268826345
:10377800B8E7036A23F480730362036A4168C46983
:10378800156824F4803424F073042C43156923F459
:10379800007343EA0523556823F4807343EA05233D
:1037A8004A4DA8420FD005F50065A8420BD005F593
:1037B8004065A84207D005F58065A84203D005F505
:1037C8008065A84213D1556923F4006343EA852331
:1037D800956823F4806343EA8523956921F4805131
:1037E80041EA0511D56921F4005141EA45114160CA
:1037F800C461D268C26375E7036A23F48053036225
:10380800036A4468C169156821F0807121F4E641B2
:1038180041EA0521156923F4005343EA0533556845
:1038280023F4805343EA0533284DA8420FD005F509
:103838000065A8420BD005F54065A84207D005F5FC
:103848008065A84203D005F58065A84204D1956932
:1038580024F4804444EA85144460C161D268026457
:1038680040E7036A23F480330362036A416D1468F6
:1038780021F4803121F070010C43116923F40033E5
:1038880043EA0143516823F4803343EA01430F4973
:1038980088420FD001F5006188420BD001F54061E4
:1038A800884207D001F58061884203D001F5806124
:1038B800884206D14168956921F4803141EA0521A1
:1038C80041604465D268816D82650BE7002C014038
:1038D800D8B10F4B984216D80E4B984294BF00208F
:1038E80001200D4A136823F007030343136013688C
:1038F80003F0070398421CBF136803F00703C01ABC
:1039080018BF012070470220EBE70120704700BF75
:10391800006CDC0200366E010020024008B50A4A3D
:103928000A4B93420ED90A490A4A0B48182301F058
:103938007FFF0A4801F07CFF0648182101F06FFF5D
:103948001433EEE7FCD308BD0864000804630008DC
:10395800DB7D0008B87D0008F56A0008606F000884
:103968001FB50446FDF726FA064B029300231846B6
:10397800CDE900330449012202F098FB204602F009
:10398800A5FB00BFF37D0008F06600082DE9F041B3
:10399800044686B00E46EFF31188102383F312888D
:1039A800BFF36F8F042898BF2B4B2C4A98BF53F84E
:1039B8002030976888BF2A4B127C2A49039000253B
:1039C800CDE90432284B0293CDE900552B4601225C
:1039D800284602F06BFB6EB1F369C3F308034BB1E1
:1039E800224B20490095CDE9015301222B46284658
:1039F80002F05CFB2FB1384602F08CFB08B103786B
:103A080003B91B481B4B02930023CDE90370CDE992
:103A1800003318461349012202F048FB314620467C
:103A2800FFF79EFF042C0CD11349144A144886232F
:103A380001F0FEFE134801F0FBFE1048862101F05C
:103A4800EEFE88F31188BFF36F8F384606B0BDE8E5
:103A5800F041FEF7C5B800BF546A00082C040020E6
:103A6800027E0008F0660008187E0008407E000804
:103A7800107E0008617E00089B7E0008797E0008A1
:103A8800F56A0008B87E000838B5094B53F820409D
:103A9800013053F82050A54200D838BD636823B1DF
:103AA800204602F01BFB0834F5E723689847FAE73D
:103AB800686A000870B5384B384C394D012286B019
:103AC80003201A70FFF7E0FF01F09EFB0420FFF7C8
:103AD800DBFFAC42264628D93249334A33484323D0
:103AE80001F0A6FE324801F0A3FE43212E4801F062
:103AF80096FE54F80C3C059354F8103C049354F883
:103B0800143C039354F8183C029354F81C3C01935A
:103B180054F8203C009354E90A2354E90C0100F0BE
:103B280025F954F8303C5E65D3E7AE4204F1300421
:103B3800DFD300F00DFD194C1E4EAC421FD91949B8
:103B4800194A1A48672301F073FE194801F070FEFC
:103B58006721CBE7D4E90A23B3F1FF3F08BFB2F1ED
:103B6800FF3F05D052EA0301206803D102F0D4FADE
:103B78003034E2E73146183001F030F9F8E7E9D39C
:103B880000F054FD02F0DCFA0B4A137B23F001032A
:103B9800137306B070BD00BF670400209866000864
:103BA800C8660008587F0008377F0008F56A0008D3
:103BB800606F000835610008C801002008B5034897
:103BC800034A0021121A02F0A1FA08BDB800002029
:103BD8006C04002070B5002386B00122CDE90423CF
:103BE800134E144D01930F22CDE9023212491423CA
:103BF80003FB005506EBC01604464FF4C07000FBEB
:103C080004110E4B00954FF4A072304600F0AEF848
:103C1800737B0B4AEE6023F0040373734FF4046361
:103C280004FB033313442C746B6006B070BD00BFF3
:103C3800480100202C040020001500202D3D00081C
:103C4800C00C0020BFB50020FFF71EFF2D4B83F3EB
:103C580008882D4D2D4E6B692D4F43F400736B6111
:103C68000024F02385F82230EC772C766C76AC763D
:103C780085F820406B6A43F4E0236B62FDF788FF08
:103C8800FEF7E4F84FF0FF33AB62EB62214DFEF72D
:103C9800F9F9FEF7FFF8FDF779F840F20113284625
:103CA800AB81C5E9184401F0A9FAB560FFF736FE03
:103CB8000120FFF7E9FE0220174DFFF7E5FE00F0AF
:103CC80031FD164B75610593012315490094CDE923
:103CD80003434FF480623B46CDE90144284600F097
:103CE80045F86A7B064622F0040228466A7300F00B
:103CF80095FA2046FFF76EFF3A4631462846FEF70A
:103D080083F800BF0015002000ED00E02C0400201F
:103D1800BD3A000848020020C8010020857F00083D
:103D28008016002008B50D4B9B6893F90E30002BC8
:103D380009DB1024EFF3118384F31288BFF36F8F2C
:103D480001F084FEF6E706490648074A1B2301F0FE
:103D58006FFD05481B2101F062FD00BF2C04002007
:103D6800AE7F0008F56A00088D7F00082DE9F04352
:103D780085B005460F9C0F2C0E461F4645D12E4B8D
:103D88009F4246D1073222F007027F3210992973E9
:103D980005F1580322F03F02C5E916330421002338
:103DA8003F2AC5E90633AB606973AC73EB7306F160
:103DB8004009A2F1400805D883F31188BFF36F8F3B
:103DC800084602DFB41821462846FDF783FB073072
:103DD8000E9B20F00700A866C5E9189802930D9B72
:103DE8000193241A0C9B009322463B4631462846F1
:103DF800FDF7D8FF00236B65104B9B6803B1DB6EA2
:103E0800EB66204605B0BDE8F08304F110031E2BD5
:103E1800B8D90B4A0B490C4840F20D2301F008FDB4
:103E28000A4821466FF00F030E2201F001FD0448F5
:103E380040F20D2101F0F3FC2D3D00082C04002078
:103E4800D67F0008F97F0008F56A00087980000825
:103E580038B5144D2B4653F8184F9C4200D004B97E
:103E6800EC68AB68A8B963B90F49104A1048C82371
:103E780001F0DEFC0F4801F0DBFC0C48C82101F022
:103E8800CEFC5A7BD20604D1A26912B9DA897F2AFC
:103E980005D89C4202D0204600F088FE23466B617C
:103EA80038BD00BF2C040020D6800008AA80000876
:103EB800F56A0008FD80000808B590F90D20437BDD
:103EC800002A014611DA03F07F0343730B4B984233
:103ED80009D10B490B480C4A802301F0A9FC0A4878
:103EE800802101F09CFC02F019F9084B9868431AEC
:103EF80058425841BDE80840FFF7AABF48010020D2
:103F080022810008F56A0008008100082C040020BE
:103F180008B583685BB90A490A480B4A40F2362358
:103F280001F086FC084840F2362101F078FC02F0E6
:103F3800F5F8437B23F0020343730023836008BD35
:103F480043810008F56A00080081000870B590F9FF
:103F58000D30427B002B38DBD30636D18369002B2A
:103F680033D162F07F024273184A904209D118494E
:103F78001848194A792301F05BFC1748792101F0A8
:103F88004EFC16490A4652F8184F944218BF234669
:103F9800CC6923B9C0E900242060C8610CE090F91D
:103FA8000E5093F90E60B5420BD0AE4209DD5A6847
:103FB800C0E9003210605860BDE870400020FFF78B
:103FC80047BFA342E6D01B68E3E770BD4801002065
:103FD80022810008F56A0008008100082C040020EE
:103FE8002DE9F843171E427B0E4614BF0821102105
:103FF800114204460FD141EA0203D20928D1437382
:10400800082937D00120FFF723FFBFF35F8F637BB9
:1040180023F060036373494B9B68A34275D1EFF3A8
:104028000583002B71D1464800F05AFE00285BD169
:10403800444A4549454840F26B1301F0F9FB4049B1
:10404800434801F0F5FB40F26B113E4801F0E7FBF5
:1040580003F07F0343733F4B984208D13E493F4AE0
:104068003A48802301F0E4FB80213C48EEE702F067
:1040780055F8C5E7A36813B12046FFF749FF04F1D7
:10408800180000F071FFA56D04F15808A84511D07B
:104098004FF0000975B12846FFF73AFF05F11800FF
:1040A80000F062FFC5F878902846FFF74FFFA56D2E
:1040B800A845EFD1DFF88480D8F808309C42A1D118
:1040C800EFF30583002B9DD0254D0120FFF7C0FE9F
:1040D80040F20113AB8128460023C5E9183301F0EB
:1040E8008DF8C8F8085090E73046FDF78FFD17B3F4
:1040F8001C491A4A154840F2ED1301F099FB1A4879
:1041080001F096FB40F2ED11AFE70D4800F0E8FD35
:1041180068B90C4A0C490D4840F2311301F088FB8C
:1041280007490B4801F084FB40F231118DE786F313
:104138001188BFF36F8FBDE8F88300BF2C040020FF
:104148004C040020047D00085C7D0008F56A000826
:10415800737D0008480100202281000800810008C2
:10416800480200205A8100086581000870B590F95E
:104178000D20437B244C002A014610DA03F07F030C
:10418800A042437309D12149214A2248802301F0E2
:104198004FFB80211E4801F042FB01F0BFFF4B7B23
:1041A800A14263F07F034B7307D11849184A194895
:1041B800792301F03DFB7921ECE7174A1046D469D1
:1041C80050F8183F834208BF002323B9C1E900040F
:1041D8002160D1610CE091F90E5093F90E60B5425F
:1041E8000ED0AE420CDD5868C1E90030016059605C
:1041F8009068431A5842BDE870405841FFF728BEFE
:104208009C42E3D01B68E0E74801002022810008B7
:1042180000810008F56A00082C04002038B504461F
:10422800EFF31185102383F31288BFF36F8F1748BC
:1042380000F048FD68B9164A16491748882301F066
:10424800F7FA1249154801F0F3FA8821104801F0ED
:10425800E6FA0E4800F05AFD2046FFF777FE0B48B5
:1042680000F03EFD68B90A4A0D490B4840F2311387
:1042780001F0DEFA05490B4801F0DAFA40F2311193
:10428800E4E785F31188BFF36F8F38BD4C04002035
:10429800047D0008317D0008F56A0008467D0008A5
:1042A8005C7D0008737D000838B50446183000F0BE
:1042B8005BFEEFF31185102383F31288BFF36F8F32
:1042C8001A4800F0FFFC68B9194A1A491A488823A5
:1042D80001F0AEFA1549194801F0AAFA88211448E4
:1042E80001F09DFA114800F011FD627B12F01002F6
:1042F80016D00E4800F0F4FC68B90D4A10490E4873
:1043080040F2311301F094FA08490E4801F090FA8E
:1043180040F23111E3E785F31188BFF36F8F38BDA1
:1043280029462046BDE83840FFF75ABE4C04002015
:10433800047D0008317D0008F56A0008467D000804
:104348005C7D0008737D000870B504460D46EFF3E8
:104358001186102383F31288BFF36F8F1F4800F074
:10436800B1FC68B91E4A1F491F48882301F060FA4A
:104378001A491E4801F05CFA8821194801F04FFAE1
:10438800164800F0C3FC637B13F0280F0CD1A36818
:1043980013B12046FFF7BCFD637BBDB903F0FB03F7
:1043A80063732046FFF7D2FD0C4800F099FC80B9F2
:1043B8000B4A0F490C4840F2311301F039FA07490A
:1043C8000C4801F035FA40F23111D6E703F0EB035F
:1043D800E6E786F31188BFF36F8F70BD4C040020A9
:1043E800047D0008317D0008F56A0008467D000854
:1043F8005C7D0008737D000870B504460D46F9B968
:10440800EFF30586E6B91A4B5A699B689A4217D0AA
:1044180000F066FC78B9174A1749184840F26B1340
:1044280001F006FA2146164801F002FA40F26B1133
:10443800104801F0F4F93046BDE87040FDF7E6BBDE
:10444800204600F04DFC68B90A4A0B490B4840F277
:10445800311301F0EDF92146094801F0E9F940F27C
:104468003111E5E785F31188BFF36F8F70BD00BF89
:104478002C040020047D00085C7D0008F56A000813
:10448800737D000838B50446EFF31185102383F3D4
:104498001288BFF36F8F1D4800F014FC68B91C4ADE
:1044A8001C491D48882301F0C3F918491B4801F02D
:1044B800BFF98821164801F0B2F9144800F026FC2B
:1044C800637B5A0716D4114800F00AFC68B9104AF1
:1044D8001349114840F2311301F0AAF90B49114868
:1044E80001F0A6F940F23111E4E785F31188BFF332
:1044F8006F8F38BD23F0040320466373FFF726FD52
:1045080029460248BDE83840FFF776BF4C04002032
:10451800047D0008317D0008F56A0008467D000822
:104528005C7D0008737D0008034648B9EFF30582F7
:1045380032B9064A51699268914201D0FDF766BBCB
:1045480083F31188BFF36F8F704700BF2C040020DE
:1045580010B5EFF31184102383F31288BFF36F8F24
:10456800264800F0AFFB60B9254A2649264888232B
:1045780001F05EF92149254801F05AF988212048BF
:1045880010E01E4800F0C2FBEFF3058363B1204939
:10459800204A1D488B2301F04BF91F4801F048F9C8
:1045A8008B211C4801F03BF91C4B9A68D37B012BEB
:1045B8000AD11B49174A14488C2301F039F91648C7
:1045C80001F036F98C21ECE7013BD3730B4800F07E
:1045D80087FB68B90A4A13490B4840F2311301F0C6
:1045E80027F90649104801F023F940F23111C6E7CE
:1045F80084F31188BFF36F8F10BD00BF4C040020F7
:10460800047D0008317D0008F56A0008467D000831
:10461800B281000887810008FD8000082C04002072
:10462800C48100085C7D0008737D000838B5EFF38D
:104638001185102484F31288BFF36F8F2D4800F082
:1046480041FB60B92C4A2D492D48882301F0F0F828
:1046580028492C4801F0ECF88821274813E0254820
:1046680000F054FB284B9A68D37B73B92749284A32
:1046780023484FF4537301F0DBF8264801F0D8F8CB
:104688004FF45371224801F0CAF8EFF3058060B186
:1046980021491F4A1A4840F24D3301F0C9F81D4814
:1046A80001F0C6F840F24D31ECE70133D373FFF760
:1046B800CFFB104800F014FB68B90F4A174910489F
:1046C80040F2311301F0B4F80A49154801F0B0F886
:1046D80040F23111C1E785F31188BFF36F8FEFF313
:1046E800118084F31288BFF36F8FBDE83840FFF75D
:1046F8001BBF00BF4C040020047D0008317D00086A
:10470800F56A0008467D00082C040020F5810008A1
:1047180000810008FD800008B28100085C7D000867
:10472800737D0008024B03F11802C3E906227047A3
:104738002C040020F8B5EFF305836BB14149424AD8
:10474800424840F2544301F073F8414801F070F8D0
:1047580040F254413C4816E0EFF31185102383F3EF
:104768001288BFF36F8F3B4800F0ACFA68B93A4A39
:104778003A493648882301F05BF83649384801F051
:1047880057F88821344801F04AF83248354C00F08F
:10479800BDFA35498868437BA04203F07F03437321
:1047A80007D13249284A2948802301F041F880215D
:1047B800D0E701F0B3FC8B685A7BA34262F07F021A
:1047C8005A7307D12949204A2048792301F030F843
:1047D8007921BFE70846CC6950F8182F824208BFF4
:1047E800002222B9C3E900042360CB610CE093F9ED
:1047F8000E6092F90E70BE421BD0B74219DD5168A7
:10480800C3E900210B6053600120FFF721FB114829
:1048180000F066FA88B9104A15490C4840F26B1343
:1048280001F006F80B49134801F002F840F26B1149
:10483800A8E7A242D6D01268D3E72846BDE8F840D8
:10484800FDF7E4B9B281000800810008F56A0008A4
:10485800FD8000084C040020047D0008317D00081C
:10486800467D0008480100202C0400202281000811
:104878005C7D0008737D00082DE9F04105460E4671
:10488800EFF305836BB13F493F4A404840F26F431D
:1048980000F0CEFF3E4800F0CBFF40F26F413A48AF
:1048A80024E050EA010303D1FFF744FF002067E04A
:1048B800821C71F1FF331BDB01F03CFC4419EFF360
:1048C8001188102383F31288BFF36F8F314800F0EB
:1048D800F9F988B9304A31492C48882300F0A8FFF3
:1048E8002C492F4800F0A4FF88212B4800F097FF9F
:1048F8006FF00104241AE2E72A4F264800F006FA6E
:10490800294BB8681860FFF7D7FAB86827492A46CC
:104918003346183000F062FABA681E48537B43F0F9
:104928001003537300F0DCF968B91B4A2049174893
:1049380040F26B1300F07CFF16491E4800F078FF28
:1049480040F26B11D1E74046FDF760F9BB685B7B2D
:10495800DB060CD518490C4A0C4840F28B4300F092
:1049680067FF0B4800F064FF40F28B4197E701F0C6
:10497800E1FB201A63EB0303012873F1000395DBC5
:10498800BDE8F081B281000800810008F56A0008DE
:10499800FD8000084C040020047D0008317D0008DB
:1049A800467D00082C0400205004002035610008D2
:1049B8005C7D0008737D00082682000808B5EFF3C7
:1049C800058373B11449154A154840F2994300F01C
:1049D8002FFF144800F02CFF104840F2994100F0D6
:1049E8001EFFB1F1FF3F08BFB0F1FF3F06D10E4BEC
:1049F8009868FFF759FC4FF0FF3008BDFFF73CFF00
:104A0800C11709304FF00A024FF0000341F10001CD
:104A1800FBF7B6FBF1E700BFB28100080081000890
:104A2800F56A0008FD8000082C040020014B9868F6
:104A3800704700BF2C04002038B50446EFF31185F9
:104A4800102383F31288BFF36F8F284800F03AF9D8
:104A580068B9274A27492848882300F0E9FE2349EE
:104A6800264800F0E5FE8821214800F0D8FE1F48BE
:104A780000F04CF9237BDA0724D51C4800F030F904
:104A880068B91B4A1E491C4840F2311300F0D0FE99
:104A980016491C4800F0CCFE40F23111E4E785F3DA
:104AA8001188BFF36F8F184A1849134840F28E5384
:104AB80000F0BEFE1648214600F0BAFE124840F249
:104AC8008E51D2E7637B1B0709D5084800F008F927
:104AD8000028D6D085F31188BFF36F8F38BD2946DB
:104AE80020460122BDE83840FFF77ABA4C0400207E
:104AF800047D0008317D0008F56A0008467D00083D
:104B08005C7D0008737D000800810008616C000866
:104B18006682000808B568B10F4B98420AD303F1C2
:104B28001802904206D2C01A1822B0FBF2F302FB18
:104B380013034BB109490A480A4A382300F078FEA2
:104B48000848382100F06BFE074BC0105843074B4C
:104B580001221A5408BD00BFC8020020AD82000817
:104B6800F56A000885820008ABAAAAAA6804002092
:104B7800C3897F2B12D80A4B1B6863B1094B90F984
:104B88000E201B689A4209DB437BDB0606D1064BE5
:104B9800C31A18BF012303F0010070470023FAE786
:104BA80058040020540400204801002070B50E4B22
:104BB8000E4C1E7C06EB460304EBC3040546204658
:104BC80000F0D2F90A4B002228469A55FFF7D0FF89
:104BD80048B1084B08491A68013A2046D317BDE87E
:104BE800704000F0FBB870BD2C040020C802002003
:104BF80068040020580400201D4B000838B5EFF366
:104C08001185102383F31288BFF36F8F234800F0B8
:104C180059F868B9224A23492348882300F008FE36
:104C28001E49224800F004FE88211D4800F0F7FDC7
:104C38001A4800F06BF81E4B1E4A9C681068A04288
:104C480013D1FFF7B3FF154800F04AF808BB144A20
:104C58001949154840F2311300F0EAFD0F49174889
:104C680000F0E6FD40F23111DFE700211B7C116006
:104C7800134AD35C002BE6D02046FFF779FF0028C3
:104C8800E1D0637BDB0602D12046FFF76FFA2046AE
:104C9800D7E785F31188BFF36F8F38BD4C04002028
:104CA800047D0008317D0008F56A0008467D00088B
:104CB8002C040020500400205C7D0008737D00084F
:104CC80068040020006838B1044B1B7C00F0030026
:104CD800C01A18BF01207047012070472C0400201B
:104CE800002302680360EFF30581074B19B1996847
:104CF800497BC90706D4197C98680843831A584227
:104D080058417047012070472C040020024B1A7C40
:104D18009B681343036070472C04002008B50648BD
:104D2800064A0749121A01F0F3F9BDE80840054A96
:104D38000549064801F0ECB900000020B400002045
:104D480018850008000000001885000800000020F1
:104D5800034B1B680BB9FEF771BB0020704700BFFF
:104D68005C04002030B570B10B4B5B6898420AD0E8
:104D7800036843B1D3E90421D0E90445121941EB92
:104D88000501C3E90421D0E9003213605A60002309
:104D9800C0E9003330BD00BF6400002010B50E4BE1
:104DA8001C689C4204D1FFF7D3FF6FF0004010BD90
:104DB800FFF7CEFF002CF8D0D4E904321B1A62EBBF
:104DC800E072B3F1004F72F10001EEDA002AACBFD5
:104DD80018460020EBE700BF64000020B3F1FF3F56
:104DE80008BFB2F1FF3F2DE9F047044692461D4641
:104DF80000F09D80066866B14E494F4A4F486E23C1
:104E080000F016FD4E4800F013FD4B486E2100F0EF
:104E180006FD8160EFF31187102383F31288BFF337
:104E28006F8F4848FFF74EFF60B9474A47494348E4
:104E3800882300F0FDFC4349454800F0F9FC88212F
:104E48004148E4E73F48FFF761FFBAF1FF3F75F1DA
:104E5800FF3323DA3F49D1E900206FF001039B1AA1
:104E68004FF0FF3262EB0000B3EB0A0360EB050082
:104E7800012B70F1000201DA01233046C4E9043045
:104E8800354B1A68D3F804C09A4218BF164686B93B
:104E9800C4E9003CCCF800405C601CE0FFF758FF18
:104EA8001AF1010845F1000518EB000345EBE07025
:104EB800E4E7D6E90415D4E904208A4270EB050E2C
:104EC80028DA891A726865EB0005C6E90415C4E991
:104ED8000062146074601A689A4209D0944207D13B
:104EE8001E4B1C6824B9FFF759FF2146FEF7F4F959
:104EF8001448FFF7F5FEB0B9134A19490F4840F2B4
:104F0800311300F095FC0F49164800F091FC40F26F
:104F1800311195E7521A60EB05006645C4E9042093
:104F2800B6D03668B3E787F31188BFF36F8FBDE853
:104F3800F08700BF828400085E840008F56A0008D4
:104F4800FD80000860040020047D0008317D000811
:104F5800467D0008E0020020640000205C04002078
:104F68005C7D0008737D000838B50446EFF31185B1
:104F7800102383F31288BFF36F8F1B48FFF7A2FE3D
:104F880068B91A4A1A491B48882300F051FC164987
:104F9800194800F04DFC8821144800F040FC1248E4
:104FA800FFF7B4FE2368ABB12046FFF7DBFE002411
:104FB8000D48FFF795FE80B90C4A10490D4840F29C
:104FC800311300F035FC08490D4800F031FC40F27F
:104FD8003111E1E76FF01504EAE785F31188BFF3B3
:104FE8006F8F204638BD00BF60040020047D000894
:104FF800317D0008F56A0008467D00085C7D0008E0
:10500800737D00082DE9F84F0446EFF3118810234B
:1050180083F31288BFF36F8F4748FFF753FE68B9D1
:10502800464A47494748882300F002FC4249464817
:1050380000F0FEFB8821414800F0F1FBDFF80C91FD
:10504800DFF80CB13C48DFF80CA1FFF75FFECBF8A6
:105058000040D9F8004000264C4508BF002400272E
:10506800DAE90021DBF80030002C4AD0D4E90450FA
:105078004FEAE37CAB427CEB000E05DAED1A60EBFD
:105088000C00C4E904503CE0AA1841EBE571204645
:10509800C4E90467CAE90021FFF764FE2648FFF760
:1050A8001FFE68B9254A2C49264840F2311300F002
:1050B800BFFB2149294800F0BBFB40F23111BAE798
:1050C80088F31188BFF36F8FA36820469847EFF3E2
:1050D8001188102383F31288BFF36F8F1648FFF7E8
:1050E800F1FD00289CD01448FFF710FEDBF80030D3
:1050F800D9F800405B1B4C45CBF80030B0D1DAE959
:1051080000219A1841EBE3710024CAE90021CBF889
:105118000040FFF743FE2146FEF7DEF80648FFF79A
:10512800DFFD0028BED088F31188BFF36F8FBDE87C
:10513800F84FFFF763BD00BF60040020047D00083E
:10514800317D0008F56A0008467D000864000020EB
:105158005C040020E00200205C7D0008737D0008EC
:1051680070B5EFF31186102383F31288BFF36F8FA6
:105178001A48FFF7A7FD68B9194A1A491A48882337
:1051880000F056FB1549194800F052FB88211448D5
:1051980000F045FB1148FFF7B9FDFFF7D9FD144AA8
:1051A800D2E90045041945EBE0750C48FFF798FD76
:1051B80068B90B4A0F490C4840F2311300F038FB2C
:1051C80006490D4800F034FB40F23111DFE786F361
:1051D8001188BFF36F8F2046294670BD60040020F8
:1051E800047D0008317D0008F56A0008467D000846
:1051F800E00200205C7D0008737D0008014BC36657
:10520800704700BF9C000020014800F0FBBA00BFB7
:10521800A284000838B50D4C0D4DAC4213D90D4988
:105228000D4A0E48192300F003FB0D4800F000FB5F
:105238000948192100F0F3FAD4E90112204600F0D8
:1052480082FF1834E9E7F7D3002038BD9C0000201E
:10525800B4000020F0840008CE840008F56A000835
:10526800606F00080FB407B5064B04AA186852F817
:10527800041B019200F008F803B05DF804EB04B0D9
:10528800704700BFD86700082DE9F04F8DB043681C
:105298000293837815469A07804640F10D810024D1
:1052A8000E78002E00F00A81252E0BD04B1C03939C
:1052B8000134029B4146304698470028C0F2F680E8
:1052C8000399EDE74E788B1C252E0393F0D0002729
:1052D800B946BB46BBF11F0F38D8A6F12003102BE7
:1052E8000AD8DFE803F02A09093009090921090960
:1052F8000928092D09091F00A6F13003092B33D904
:105308002A2E37D11BF0400F55F8043B40F082801D
:10531800002BA7BF4BF0200B9946C3F100094BF0B7
:10532800280B01E04BF0010B039B13F8016B03936F
:10533800002ECFD130E04BF0020B4BF0040BF3E71B
:105348004BF0080BF0E74BF0100BEDE7BBF17F0FCC
:1053580019D8A6F13003092BD2D81BF0400F03D07F
:105368000A2101FB0737DFE70A2101FB09394BF066
:10537800200BD9E72E2E06D11BF0400F40F09E805F
:105388004BF0400BD0E76C2E31D02BD8682E36D09E
:105398006A2E3CD04C2E3AD0002F46F02003B8BFDE
:1053A8002BF04002A3F16501BCBF1FFA82FB002766
:1053B800022901D9612B2FD1073525F00705DFF820
:1053C800ACA2083507271BF0080F66D00AEB070BBD
:1053D80056465E4563D1A4EB0A0A06EB0A02A9EB1E
:1053E80007096FE1742E9FD07A2E9DD0D4E71BF069
:1053F800800F18BF4BF4007B4BF0800B94E71BF435
:10540800807F18BF4BF4007B4BF4807B8CE74BF418
:10541800207B89E71F4687E7A6F16301122900F27E
:10542800F080DFE811F013004F00EE00EE00EE0010
:10543800EE004F00EE00EE00EE00EE00EE00FE0083
:10544800E900EE00EE001B00EE00AF0055F8043B4B
:105458008DF8183001270DF1180AB4E755F804AB98
:10546800834BBAF1000F08BF9A461BF0400F14BFD8
:1054780039464FF0FF31504600F06DFE0746A2E76F
:10548800029B41462020984700280FDB013EB74287
:10549800F6D34C44A41BB14698E74E46F7E716F8F6
:1054A800010B029B41469847002892DA98F802308F
:1054B80043F0040388F802304FF0FF3420460DB063
:1054C800BDE8F08F1BF0800F34D01BF4007F2CD088
:1054D800073525F00705AA4669685AF8080B2BF026
:1054E80010050029ADB237DA404261EB410145F4BD
:1054F80080650DF1180B0A235A4600F038FEA0EB20
:105508000B0301936B0662D5019B25F001019F42B5
:1055180089B240F3A180002E00F0998015F01002A6
:1055280040F09C80BB460D4623E0AA465AF8040B7F
:10553800C117D4E7AA461BF4807F5AF8041B01D18F
:105548000846F5E71BF4007F15BF48B208B241F3DF
:10555800C01141F3C031C2E750EA0103C9D11BF0C1
:10556800400FC6D0002FC4D12BF0110295B2BB4614
:10557800019740F2064115EA01021CBF0BF1010B2D
:1055880000222CE02BF010021FFA82FB0A231BF0EA
:10559800800C49D01BF400711DBF073525F00705A5
:1055A800AA46AA461ABF5AF8080B69685AF8040BA3
:1055B80050EA010545D12BF016051BF0400FADB29E
:1055C80042D0002F40D12BF0170295B2019715F069
:1055D800100248D0019B002E42D103F1010B29078C
:1055E8005AD4EB0706D5D9456FDD0199A9EB0B0312
:1055F8005F18CB465B4649E04BF0100B102378262A
:10560800C5E7782B04D1C6F1780343F01003BEE751
:10561800029B4146252098470028FFF647AF0234F1
:1056280047E608230026B2E7AA461BF480715AF819
:10563800040BBDD01BF400711ABFC0B2614680B222
:10564800B6E72BF0060295B20DF1180B54E725F0DA
:105658001105ADB2BB468CE70D46B8E73B460D4693
:1056680003F1020BBBE7DDF804B082E71085000800
:1056780009850008CDE904324146029B202098475D
:105688000028FFF613AF049B059A01339945F1DC16
:10569800A4EB0B01CC189B460AB3029B4146302071
:1056A80098470028FFF602AF8EB901342744019BC2
:1056B800391B994224DC1D465DBB019AA9EB0B09F5
:1056C800224455461446914435E0019F92E702343E
:1056D80041463046029B98470028E7DAE6E640F262
:1056E80006410D42E2D015F0020F14BF2B202020F6
:1056F80015F4806F04F10104414618BF2D20E9E735
:10570800029B414630209847002804F10104CEDA74
:10571800CCE606AB013D4146585D029B9847002800
:10572800CADAC3E6029B414620209847002804F1C4
:105738000104FFF6BBAEA9EB0403002BF2DCBFE5C6
:10574800704700EBC100408840087047F8B5034631
:10575800FFF7F7FFB0FA80F0C0F11F0003EB800CF1
:10576800CA00DCF81060171D0C4606328DB256B917
:10577800012101FA00F0D9680143D960CCF8104042
:10578800DD539D52F8BDF1000431585AD85303EB4C
:10579800C0009E52C5805D52F4E72DE9F0470646E9
:1057A8000D46174698462BB398F8004093F8019099
:1057B800DB78A40004EB430498F802301C4444440A
:1057C8004FF0000ACA4509D3D8F8042008F10803A5
:1057D80039463046AC46BDE8F047604714F8013B0F
:1057E80048F823402046FAF735FE013004440AF110
:1057F800010AE7E76FF01500BDE8F0870020704761
:1058080000F042B80FB407B504A951F8040B019190
:1058180000F03AF803B05DF804EB04B070470023D9
:1058280083F31188BFF36F8F0423184602DF704794
:105838000FB407B504A951F8040B0191FFF7E0FF75
:1058480003B05DF804EB04B0704770470020704760
:1058580008B500F073FC0A220023FAF791FC08BD92
:105868000346BFF35B8F53E8000F421C43E8002157
:105878000029F8D1BFF35B8F704708B500210846AF
:10588800FBF7DEF9002008BD1FB50023CDE90201B2
:10589800CDE900331A4619461846FBF741FB05B017
:1058A8005DF804FB70470020704770B50E4615463A
:1058B8001946044618B9BDE87040FBF7B1BA33B1D0
:1058C800C2F34A231030120D184400F0A7FCC4E9B3
:1058D80000562046BDE87040FBF7BABA07B5D1E9D3
:1058E80000328DF80700526801210DF10700984732
:1058F800002003B05DF804FB0A2838B504460D46BD
:1059080002D10D20FFF7EAFF29462046FFF7E6FF00
:10591800002038BDF8B506460D4614461F4604B9A2
:10592800F8BD214628463A46B047241A0544F6E70A
:1059380010B5426881680446D2E900230068FFF781
:10594800E9FF636800221A6010BD2DE9F04305469F
:1059580087B008460E8891F80090D1F808800C4668
:105968001746FBF741FB011EC6F38216C9F3C209AD
:105978001EDB4846FBF7A0FA03462146608851F82B
:10598800102B0196C2F34A22002A01EB0204C0F34D
:105998000B1008BF00210022CDE90407CDE902144D
:1059A800009241462846FBF74BFB07B0BDE8F08361
:1059B8000023E2E743681B685B68002019617047B1
:1059C80043681B685A68012111751868FFF7B0BF52
:1059D80070B543681D686B6818690C46FBF7C0F919
:1059E800214603460F222868BDE8704018477FB556
:1059F8000BAB059303930A9B02930023CDE9003375
:105A080001221846FBF78CFA07B05DF804FB014643
:105A18000068FBF7EFBC7FB50BAB059303930A9BBC
:105A280002930023CDE9003301221846FBF778FAE8
:105A380007B05DF804FB00210120FBF7DBBC61B671
:105A480062B680F31188BFF36F8F704772B6002378
:105A580083F31188BFF36F8FBFF34F8F30BF62B6E8
:105A6800BFF36F8F7047202809D9B0F1004F08D8CD
:105A78000138B0FA80F0C0F11F00400070470820DC
:105A880070473E2070477FB50BAB059303930A9B85
:105A980002930023CDE9003301221846FBF740FAB0
:105AA80007B05DF804FB08B5D1E904319847002038
:105AB80008BD08B5FCF7FEFB002008BD08B50622A6
:105AC80001210020FCF75EFC002211460620FCF7AD
