:020000040800F2
:10000000C011002035160008D90F0008211600087D
:100010002116000821160008211600080000000023
:100020000000000000000000000000003917000878
:100030002116000800000000051700085D2A0008CE
:10004000B9180008B9180008B9180008B91800084C
:10005000B9180008B9180008B9180008B91800083C
:10006000B9180008B9180008B9180008B91800082C
:10007000B9180008B9180008B9180008B91800081C
:10008000B9180008B9180008B9180008B91800080C
:10009000B9180008B9180008B9180008B9180008FC
:1000A000B9180008B9180008B9180008B9180008EC
:1000B000B9180008B9180008B9180008B9180008DC
:1000C000B9180008B9180008B9180008B9180008CC
:1000D000B9180008B9180008B9180008B9180008BC
:1000E000B9180008B9180008B9180008B9180008AC
:1000F000B9180008B9180008B9180008B91800089C
:10010000B9180008B9180008B9180008B91800088B
:10011000B9180008B9180008B9180008B91800087B
:10012000B9180008B9180008B9180008B91800086B
:10013000B9180008B9180008B9180008B91800085B
:10014000B9180008B9180008B9180008B91800084B
:10015000B9180008B9180008B9180008B91800083B
:10016000B9180008B9180008B9180008B91800082B
:10017000B9180008B9180008B9180008B91800081B
:08018000B9180008B9180008C5
:1001880053B94AB9002908BF00281CBF4FF0FF31F6
:100198004FF0FF3000F00CB8ADF1080C6DE904CE5B
:1001A80000F008F8DDF804E0DDE9022304B0704748
:1001B800704700BF2DE9F04786468C460846089EE2
:1001C800154674461946002B40F0C2808542B2FAA3
:1001D80082F245D94AB1C2F1200300FA02FC2EFA94
:1001E80003F3954043EA0C0C94404FEA154EA8B22D
:1001F800BCFBFEF8230C0EFB18CC08FB00F943EA05
:100208000C43994528D9EB1808F1FF3704D29945D2
:1002180002D9A8F102072B44A3EB0903A4B2B3FB4C
:10022800FEFC0EFB1C330CFB00F044EA0344A04226
:1002380014D92C190CF1FF3304D2A04202D9ACF125
:1002480002032C44241A43EA07401EB1D440002379
:1002580034607360BDE8F0874746DDE76346F1E741
:1002680092BB431B01214FEA154EAFB2B3FBFEFC14
:10027800200C0EFB1C330CFB07F840EA034398459F
:1002880062D9EB180CF1FF3004D2984502D9ACF1D1
:1002980002002B44A3EB0803A4B2B3FBFEFC0EFB45
:1002A8001C330CFB07F744EA0344A7424ED92C1928
:1002B8000CF1FF3304D2A74202D9ACF102032C445B
:1002C800E41B43EA0040C0E7C2F1200320FA03F12F
:1002D800954090402EFA03F303434FEA154EAFB210
:1002E800B1FBFEFC0EFB1C10190C0CFB07F841EAD5
:1002F8000041884504FA02F422D969180CF1FF304C
:1003080004D2884502D9ACF102002944A1EB0801C6
:100318009BB2B1FBFEFC0EFB1C110CFB07F743EA7A
:1003280001439F420ED9EB180CF1FF3104D29F42D2
:1003380002D9ACF102012B44DB1B41EA004192E7F0
:100348006046E3E76146F7E76046A3E76346B7E739
:10035800834206D916B9002108467BE7C6E900E0C2
:10036800F9E7B3FA83F78FB9834201D3724508D806
:10037800BEEB020460EB030301209C461EB900217A
:1003880068E73846FAE7C6E9004CF8E7C7F1200CF9
:10039800BB4022FA0CF41C432EFA0CF120FA0CF3A1
:1003A800B84001434FEA14490EFA07F5B3FBF9F8D0
:1003B8001FFA84FE09FB18300B0C08FB0EFA43EAFF
:1003C80000439A4502FA07F240D9E31808F1FF30D2
:1003D80004D29A4502D9A8F102002344A3EB0A03E8
:1003E80089B2B3FBF9F809FB183308FB0EFE41EAA2
:1003F80003418E452CD9611808F1FF3304D28E458C
:1004080002D9A8F10203214443EA0040A0FB029864
:10041800A1EB0E014145CE46434602D306D14D45D8
:1004280004D2B9EB020E68EB04030138002EA6D003
:10043800B5EB0E0261EB030101FA0CFC22FA07F39B
:100448004CEA0303F940C6E9003198E74046C5E79E
:100458004346D9E7034613F8012B002AFBD1181AA3
:1004680001387047F8B5184D284604F07AFB044661
:1004780038B32A69A968136823F4806313600B688A
:100488004FF420220A2128469847002819DB0F4FED
:100498000F4EAB684FF480615B6928469847002887
:1004A8000FDB84F0010414F0FF0414BF3946314611
:1004B800084803F0D1FB002142F2107003F0C2F9A2
:1004C800E7E70020F8BD00BF2C4F0008FA550008E8
:1004D800FD550008015600082DE9F04F91B084073A
:1004E800009302F004030293C2F3C20303F1010371
:1004F800DDF86890039205460E46059340F0BA81F0
:10050800041D30B1072909D86FF01B0011B0BDE8F0
:10051800F08F01F00706341DC6F10806009B4FF066
:100528000008591E4FF0040A4FF0FF330193CDF82D
:1005380010804746C34653460DB1009A226005987D
:10054800002800F3E8809848009A824203D397482D
:100558008242C0F0E080039AA4EB050E92074FEAAE
:100568009E0000F103810F2F00F2B180002D00F0F2
:10057800058107F140020DEB020C019A0CF8200CE2
:100588000CF8102C049801300490E7E07A285DD824
:100598004B280ED8472859D829282DD8252852D095
:1005A80054D820287AD02338D0F1000B4BEB000B1D
:1005B80074E04C382E2849D8DFE800F070484848E5
:1005C80048484848484848484B48484848484848A0
:1005D8004859484B4B595959704B6D487048184BFE
:1005E800184848827F4B48484B487F0000204FF00E
:1005F800000B4FF0040A38E02A38C0B2012202FA90
:1006080000F010EA0E0F49D110F0625C2FD110EA09
:10061800020B43D06046013C5444B4FBFAF40AFB95
:1006280004F4002D61D0A3EB050CA444B4453FF6B7
:100638006BAF002868D1042B47D159F8043B2360DD
:10064800043404232AE0019A013A01924FF0000B86
:1006580024E011F8010C6C2834D111F8023C002078
:100668006C2B8346C5D14FF0080A5346D3E709F1EE
:10067800070929F007090734F9E802AB24F0070451
:1006880035B106982044B0423FF63EAFC4E900AB0E
:1006980008344FF0000B4FF0080A534611F8010FC9
:1006A800002878D0BBF1000F7FF470AF2528F5D172
:1006B800019B013301934FF0010B4FF0040AECE763
:1006C800584694E700208346A5E7082B02D06FF030
:1006D80015001BE709F1070929F00709F9E80223C2
:1006E800C4E9002308340823D8E768B9042B02D1E9
:1006F80009F10409A4E7082BE9D109F1070929F050
:10070800070909F10809EDE7059A013A059259F830
:10071800042B009210E7039A900720D5A4EB050E4E
:100728004FEA9E004FF0010CBEF5007FCFD20F2F8D
:10073800CDD8F5B107F140020DEB020EC0B2019A17
:100748000EF8200C0EF8102CBCF1000F3FF41AAF75
:1007580060F07F000EF8200C08F101080137C5F1A0
:100768000802043406924FF6DA7E97E74FF0000C41
:10077800DAE7BCF1000F01D00136EFE70298023644
:100788000028EBD10098CDE90631FFF763FEDDE9DB
:1007980006310644E2E7631BB3F5806F97D23DB993
:1007A800A6F10804E018B1E6444E0008E45E00082B
:1007B800029A28609B082B709DF81030C2B1EB702C
:1007C80085F80280B8F1000F05D008A80022C5F10D
:1007D800010C97420ED1C5F101030DF120094FF02C
:1007E800000A01930DF1300B574512D1601B8DE6BD
:1007F8006B70E5E710F8013B190608D504EB0C0E01
:10080800B64503F07F033FF67FAE04F8013B0132A3
:10081800DFE7B8F1000F03D099F90020002A17DBB1
:10082800029BD3B11AF80B2004F8012B0022019B7C
:1008380098182044B0423FF667AE99F8000004F8D3
:10084800010B00990392204604F0D8FA039A144445
:100858000AF1010A09F10109C6E799F8002055F8DB
:1008680022300093029B45F822300098FFF7F2FDF2
:10087800421CDCE76FF00D0048E600BF014B186032
:10088800704700BF0000002080B505460E46174699
:10089800984602F0F5FF034604F0C6FADFF8189010
:1008A800044649F80030424630463946A84754F8CD
:1008B800090000F0D1FE00BF08000000034A536899
:1008C80023F0020353600020704700BF002004E0BB
:1008D800044B054A1A60054A536843F00103536004
:1008E800002070477C00002000127A00002004E0FD
:1008F8002DE9F84F81462E480F4603F0D0FC0646F6
:1009080070B92C4CDFF8B0A00546A0464FF0010B9B
:10091800544507D3B9F1000F02D04FF0010AE5B9E9
:10092800BDE8F88F237B6BB12368DB680BB12046E9
:10093800984723681B6943B96368042219682046ED
:1009480000F0C6F801361034E2E720469847002840
:10095800F2D00BFA06F31D43F4E7A94695FAA5F47D
:10096800B4FA84F40AFA04F3260108EB04146FEAD3
:10097800030B25EA0305237B63B158F806301B698E
:100988008BB94644042273682046196809EA0B09A2
:1009980000F09EF8002DE1D11FB16420002102F083
:1009A80051FF4D46BBE7204698470028F2D1E8E7BB
:1009B80070020020B8520008C8520008014B53F8D2
:1009C80020007047D052000808B5034608462BB1EE
:1009D800044A136000F06CFA002008BD6FF015009F
:1009E800FBE700BF04000020054A064800231370F7
:1009F800054A1360054A4FF47A711360FFF7E4BFA4
:100A0800D803002097420008680200206C020020EA
:100A180070B50B4D297841B90120FFF769FF094CE2
:100A2800094EB44202D301232B7070BD63685B7911
:100A38001BB1236820469B6898471034F1E700BF34
:100A4800D8030020B8520008C852000810B5044660
:100A5800084803F024FC5CB1BFF35B8F064B53E8F6
:100A6800001F013943E80012002AF8D1BFF35B8F59
:100A780010BD00BF680200206C02002070B50A4B50
:100A88000A4C1B680A4E05469847A860B44200D332
:100A980070BD63685B7923B1236829461B682046CB
:100AA80098471034F2E700BF04000020B85200084D
:100AB800C8520008044A054B9B1AB1EBD30F34BF48
:100AC80052F831000020704770520008B8520008F0
:100AD800084BC31A10B41B114468013323714368CF
:100AE8009A7143681960436801225A7110BC03F077
:100AF800F8BB00BFB85200082DE9F04F85B002AF2F
:100B0800D7E90EA93D6B04460E4693469846BAF1BE
:100B1800000F33D0C7F80490CDF8009010217A6BFD
:100B280053460020FFF7D8FC0146154A04F0070495
:100B38000BF0070BE40044EA8B1402EA4122144349
:100B480044EA055417350D4425F00705ADEB050DAE
:100B580002ADBAF1000F07D0CDF800907A6B53467A
:100B680005F11000FFF7B8FC4346224631462846F7
:100B780003F0BAFB0C37BD46BDE8F08F5146D4E709
:100B880000FE0F00406820B1034BC01A40F3CF00AD
:100B980070474FF0FF307047705200080EB403B52D
:100BA80003AB014653F8042B0448019301F026F8DF
:100BB80002B05DF804EB03B0704700BF23430008A0
:100BC800CA0605D48B064CBF02490349FFF7E6BFA6
:100BD800704700BF2F5600082E5600082DE9F04F29
:100BE80089B09B46149B06939DF84CA0159B0593D2
:100BF800169B179E049304460D469046BAF1000FC3
:100C080000F09D8006F48073079303F06BFB06F0F9
:100C18000209024600283ED091492046FFF7BEFF50
:100C28000746B9F1000F08D016F0440F35D18D49A9
:100C38002A462046FFF7B2FF074406F0010353B1E6
:100C4800894B8A4953F82A20894B2046002A08BF35
:100C58001A46FFF7A3FF06F48073002B49D006F06D
:100C68000803002B63D1B8F1000F66D081494246D2
:100C78002046FFF793FF0546069B3D44002B6DD1A8
:100C8800049B002B73D1F30700F1E4803146204622
:100C9800FFF796FFD8E00746C3E7774B18680028A8
:100CA800CAD0764B4FF47A791B68B5FBF3F54FF44D
:100CB8006161B5FBF0F300FB135509FB05F54FF037
:100CC8003C0CB3FBF1F201FB1231B5FBF0FEB1FBBA
:100CD800FCF300FB1E550CFB131109FB05F50091F5
:100CE800B5FBF0F56649CDE901E52046FFF756FF6B
:100CF800A2E706F00803EBB1624B634953F82A20D8
:100D08002046FFF74BFF0546B8F1000F05D05949BB
:100D180042462046FFF742FF0544BBF1000FABD027
:100D28005A495A462046FFF739FF0544A4E74FF0D1
:100D3800000BE1E706F00805E6E745469CE7BBF14E
:100D4800010F069B06D1002B64D1049B002B7BD09E
:100D580000250CE0002BF8D04D485CE04D48069B80
:100D68004D49224603F050FA049B002B68D0DFF867
:100D78002C81DFF82C91049F3146102F204628BF84
:100D88001027FFF71DFF4FF0000B5D4545DC059B65
:100D980049461A782046FFF701FF4FF0010B1BF078
:100DA800070F03D141462046FFF7F8FE5F453BD9C0
:100DB800059B494613F80B202046FFF7EFFE0BF181
:100DC800010BBBF1100FEAD1364920464FF0000B5A
:100DD800FFF7E4FE5A46059B9A5CA2F120015F29C1
:100DE80028BF2E2230492046FFF7D8FE0BF1010B11
:100DF800BBF1100F1DD01BF0070F03D14146204651
:100E0800FFF7CCFE5F455A46E5D841462046FFF736
:100E1800C5FEEBE71F485546A1E741462046FFF7C8
:100E2800BDFE0BF1010BB0E720492046FFF7B6FEE7
:100E3800C5E7059B3B440593049BDB1B04939AD1B0
:100E4800BAF1000F7FF41FAF204609B0BDE8F04F9C
:100E580003F08DBA064A05492046FFF79FFE15E7BD
:100E6800365600083A560008E05200085F56000857
:100E780031560008625600087802002074020020EB
:100E880043560008F4520008665600086C560008DD
:100E98003F43000823430008051C00087956000852
:100EA800715600087B5600087D56000877560008E2
:100EB800074A00210123904206D8064A01B90123B6
:100EC8001360054B1860704740085B000121F2E78A
:100ED80040420F007402002078020020F8B5074F46
:100EE8000D4604464618B44201D12846F8BD14F808
:100EF800011BBB6801485B689847F4E7B84F0008D6
:100F0800014B0360002070473C53000870B506464B
:100F180086B00D46002938D08B6805934B6804933A
:100F28000B6803930024244B24490293012223468F
:100F38002046CDE9004403F07FFA6B6905932B69DD
:100F48000493EB6803931E4B1C490094CDE90143BD
:100F580001222346204603F06FFAEB690393194BED
:100F680016490094CDE9014301222346204603F0A7
:100F780063FAAB690393144B10490094CDE901431C
:100F880001222346204603F057FA012E0DD1EFF334
:100F98000583103B03930D4B02930023CDE90033E7
:100FA80006493246184603F047FA2946304606B045
:100FB800BDE8704002F058B8BA56000898520008C8
:100FC800E956000818570008275700085557000821
:100FD80008B5034B1B689847BDE8084000F026B8E1
:100FE8001000002030BFFFF7FDBF00BF2DE9F04122
:100FF8000B4EDFF8308006EB0807CC1B054632465F
:101008000949204603F0FAFEA01942460021083C8F
:1010180003F002FF2C6707F10800BDE8F08100BF6C
:101028000000000004000000C8520008074A936846
:1010380093F90E10002907DB526993421FBF044A37
:10104800536843F080535360704700BFA8030020E3
:1010580000ED00E0F0B585B00024434B0293CDE9E4
:101068000044234607460E4601224049204603F025
:10107800F7F93F4B9B6ADB0465D53E4B3B4900942F
:10108800CDE9014320462346012203F0E9F9172060
:10109800374B9B6A1D050AD5374B02930023184628
:1010A800CDE900333149012203F0DAF91820304D37
:1010B800AB6A9C051FD50024304B029301222346BE
:1010C8002046CDE90044294903F0CAF9AB6BAA6A66
:1010D80010040FD503932A4B24490094CDE901430A
:1010E80001222346204603F0BBF91FB1AB6A23F463
:1010F8000043AB6219201E4B9B6A59050AD5214B48
:10110800029300231846CDE900331849012203F061
:10111800A7F91A20164A936A13F4807315D01A4B4C
:10112800029300231846CDE900331049012203F049
:1011380097F91B200E4A936A43F47F439362002376
:10114800337005B0F0BD1620A2E7926A9204F1D57B
:101158000E4A06490093CDE901321846012203F0F0
:101168007FF91C20E6E700BF68570008985200087E
:1011780000ED00E07E5700088F570008A2570008CE
:10118800BB570008D0570008EB5700080358000861
:101198001FB50024374B029301222346CDE90044B2
:1011A8003549204603F05CF9344B9B6A9A015ED5B9
:1011B800334B31490094CDE90143204623460122AF
:1011C80003F04EF91E202D4B9B6ADB010AD52D4BEF
:1011D800029300231846CDE900332749012203F082
:1011E8003FF91F20254B9B6A1C030AD5264B029307
:1011F80000231846CDE900331F49012203F030F9D6
:1012080021201E4B9B6A59030AD5204B02930023C9
:101218001846CDE900331849012203F021F92220AC
:10122800164B9B6A9A030AD5194B0293002318465A
:10123800CDE900331049012203F012F923200F4BA6
:101248009B6ADB030AD5134B029300231846CDE9AA
:1012580000330949012203F003F92420074A936A5D
:101268006FEA03436FEA1343936204B010BD1D2075
:10127800A9E700BF325800089852000800ED00E0C6
:101288004A5800085D580008775800089558000823
:10129800BA580008D45800082DE9F04385B0002456
:1012A8004D4B0293CDE900442346804689461646B5
:1012B8004A490122204603F0D3F8494B9B6ADF06CE
:1012C80040D5484B0094CDE9014320462346434985
:1012D800012203F0C5F81124414B9B6A1D070AD56A
:1012E800414B02930023CDE900333C4901221846C3
:1012F80003F0B6F812243A4DAB6A980724D50024B7
:101308003A4B36490293CDE9004423460122204650
:1013180003F0A6F86F6BAB6A190659D5344B2F4901
:101328000397CDE90143009423460122204603F0A8
:1013380097F8B9F1000F03D0AB6A23F08003AB62D2
:10134800132403E01024C7E76FF01507244B9B6AAA
:10135800DA070AD5274B02930023CDE900331F494A
:101368000122184603F07CF814241D4B9B6A9B0647
:101378000AD5214B02930023CDE9003317490122F6
:10138800184603F06DF81524154B9A6AD50602D451
:101398009A6A90070AD55B68190507D54146384609
:1013A80000F03CFA10B180F3098802240C4B9A6AC9
:1013B800920642BF5A6A22F400525A629A6A42F06E
:1013C800FF029A6220460023337005B0BDE8F0831F
:1013D8006FF01507B4E700BFFF58000898520008DF
:1013E80000ED00E0155900088F570008485900081B
:1013F8006059000876590008035800082DE9F041A3
:10140800754B5F6890B00446C7F30806002383F362
:101418001188BFF36F8F02F07F40B0F17F4F0CD17E
:1014280002F00C00082819D16C4A6D490093CDE9E7
:1014380001321846012203F013F800252C464FF01C
:101448000008F31E8DF81F80092B00F2AC80DFE83E
:1014580003F00BA0A49DAAAAAAAAAAA8120746BF8D
:101468000C461D460125EAE75E4B5D495A4FCDF80B
:101478000080CDE9018300230122184602F0F0FF25
:101488008DF81F80FE6A16F0020605D0564BCDF87F
:101498000080CDE9018306E0FB6A002B0BDA534B91
:1014A8000096CDE9016300234D490122184602F058
:1014B800D7FF00223CE0FB6A5B00FAD54C4B484959
:1014C8000096CDE9016301223346304602F0C8FF99
:1014D8007B69A26943F480737B61BFF34F8FBFF3CD
:1014E8006F8F7B6932F8022C23F480737B61BFF322
:1014F8004F8FBFF36F8F4DF602739A420BD0BB6AC2
:10150800DBB2002B34D00DF11F0201212046FFF77A
:10151800C3FE02460CE023680393364B304900961D
:10152800CDE9016301223346304602F099FF226873
:101538009DF81F30CBB908AE04F120072068616818
:10154800334603C30834BC421E46F7D10F9B002D17
:101558003DD0C3F3080121B96FEA53236FEA43234F
:101568000F9308A91046FFF7D1FC10B0BDE8F08131
:10157800BB6A13F47F4F05D00DF11F010120FFF75F
:1015880069FDC6E7BB6AB3F5803F92D3FFF700FE5B
:10159800BFE70DF11F020021B8E70DF11F01002080
:1015A800EDE7154B73E7154A154B0D4917F4F87F0E
:1015B80018BF1346103ECDE90336124B02930023A1
:1015C800CDE900330122184602F04AFF71E723F4FF
:1015D800FF7323F00103C3E700ED00E0C3590008DF
:1015E80098520008EE590008055A0008265A0008C3
:1015F800345A0008535A00086F5A0008AA590008BC
:1016080095590008935A0008024A536943F0100399
:101618005361704700ED00E0EFF30880EFF30981B4
:1016280001B57246FFF7EAFE01BD00BF102080F346
:10163800118808484FF40461401880F30988EFF3D3
:1016480014800221084380F31488BFF36F8F00F0E1
:10165800A5F8000000040020084B9B6883420BD1CA
:10166800EFF3058343B1064B5A6842F080525A6043
:101678005A6A22F400425A6203F020BBA8030020F1
:1016880000ED00E0094A93686FF00A01996708497C
:1016980058674B6843F080534B60002383F31188ED
:1016A800BFF36F8F9368986F704700BFA80300203F
:1016B80000ED00E010B50446EFF31183102383F327
:1016C8001288BFF36F8F0A4B58699860094B4FF027
:1016D80000625A60084B026F1A600022436F42672B
:1016E80083F31188BFF36F8F00F000F9204610BD17
:1016F800A803002000ED00E0A00200200B498A6842
:101708004FF030001044EFF3098C80E8F01F744666
:101718007046FFF7CFFFA64604498A6802F13000F9
:1017280090E8F01F8CF3098870470000A803002098
:101738001EF0040F0CBFEFF30880EFF309808169F6
:1017480011F8021C0229FFD001B502F085FE01BD87
:1017580040B2002807DB044A4109012300F01F00BA
:10176800834042F82130704700E100E040B2002891
:10177800A8BF00F1604001F10101B8BF064B4FEA74
:101788000111ACBF00F5614000F00F00C9B2B4BF51
:10179800195480F80013704714ED00E00F4A08B59B
:1017A8000F4B22F07F029A60BFF34F8FBFF36F8F0A
:1017B800D3F8882022F47002C3F88820EFF314834A
:1017C80023F0040383F31488BFF36F8F01F028FD1F
:1017D80002F0E2F800F060F801F066FD0000000891
:1017E80000ED00E042F8203C009B42F81C3C0A490E
:1017F800019B42F8183C029B42F8143C21F001017D
:101808004FF0807342F8043C42F8081C0023203A49
:1018180002654367704700BF91080008094A0346FC
:10182800906870B113F1160F006E05D0A0F1400258
:101838009A4205D8834203D2814228BF00207047CC
:1018480000207047A803002008B515460B4A0C4B2A
:101858009060026F1A600E4600F048F82C4686F336
:1018680009884FF00000074B984720464FF00001C9
:101878004FF000024FF00003034C2047A80300205C
:10188800A00200209144000891080008014B102292
:101898001A61704700ED00E0044800231021C218C7
:1018A8000133522B82F80013F9D1704700E100E0B0
:1018B80008B5EFF30583064A103B02EBC30152F863
:1018C800330049688847BDE80840FFF7AFBB00BF51
:1018D800E04F0008024B034A0348012100F096B884
:1018E80000A00020000000203C530008026E054BB9
:1018F800403A1A60044A4021C3E9011218460121FE
:1019080000F08EB8A402002000000B151FB5144A81
:10191800D2F89030C3F30723013B98420FD9114BFB
:10192800029300230390CDE9003318460E490122A3
:1019380002F0CEFD6FF0150005B05DF804FBC2F8AB
:1019480098000B6823F01F03034343F01003C2F809
:101958009C308B6843F00103C2F8A030ECE700BF6D
:1019680000ED00E0AA5A000890520008F0B50E46B3
:1019780089B01F4604460025B54212DA606838B3BC
:10198800BFB1431E18420FD0134B02930023CDE979
:101998000033124903950122184602F099FD6FF0B1
:1019A8001502104609B0F0BD1F28EDD921680B4279
:1019B800EAD12368059302F07BFDA36805A90343D8
:1019C800D0B20793FFF7A2FF10F1160FE7D0421C21
:1019D80001350C34D0E700BFD05A000890520008F7
:1019E800044B0522C3F89420BFF34F8FBFF36F8FCA
:1019F800704700BF00ED00E0BFF35F8F024B00228D
:101A0800C3F89420704700BF00ED00E010B5034C08
:101A180001232278FFF7AAFF207010BDDA03002007
:101A280008B50B4A00231278FFF7A0FF10F1160F34
:101A380007D0084A0021D2F89030C3F30723984210
:101A480000DB08BDC2F89800C2F8A0100130F2E728
:101A5800DA03002000ED00E02DE9F043574858492B
:101A6800D0F890300D68C3F307239D4285B000F28B
:101A7800A180FFF7C1FF49680022954201F10C01DE
:101A88001AD1504C504F25706846FFF739FADFF8E5
:101A98003C81DFF83C9106460025AE421FD12378F1
:101AA80046490020D1F89020C2F3072293427BDBFD
:101AB800FFF796FF00204CE0C0F8982051F80C3C46
:101AC80023F01F03134343F01003C0F89C3051F870
:101AD800043C43F00103C0F8A0300132CDE7009880
:101AE80000EB05114FEA051CCB683B40B3F5000F2E
:101AF80044D00AD8B3F5001F2ED0B3F5800F34D0E8
:101B0800B3F5801F10D00135C7E7B3F1807F3ED011
:101B1800B3F1007FF7D150F80C3088684A6802F0BA
:101B2800C7FC40F4802009E050F80C3088684A6807
:101B380002F0BEFC40F0885040F43020039001A928
:101B48002078CDE90123FFF7E1FE002828DA6FF0BD
:101B5800150005B0BDE8F08350F80C3088684A6875
:101B680002F0A6FC40EA0800E8E750F80C30886864
:101B78004A6802F09DFC40EA0900DFE750F80C30A3
:101B880088684A6802F094FC40F08270D6E750F802
:101B98000C3088684A6802F08BFC40F08870CDE70A
:101BA800237801332370AEE7C1F89830C1F8A0005C
:101BB800013377E74FF0FF30CBE700BF00ED00E0DF
:101BC80048530008DA0300200000F0FF0000081165
:101BD8000000020708B5024B1B689847002008BDA3
:101BE800B0020020034B044A1860937843F00203C4
:101BF80093707047B002002014000020F0B587B041
:101C080007460E4614460021102268461D4603F07A
:101C180003F902238DF802302A46054B0193214629
:101C28006846CDE9047602F029F807B0F0BD00BF98
:101C3800F944000808B50649064821F00701C1F132
:101C4800005202F5204202F0A2FA002008BD00BFAF
:101C580007120020B40200202DE9F0410F4E104F6A
:101C6800054600244FF001082B7853FA84F01F280A
:101C78000DDC726908FA00F333EA020207D17361D6
:101C880057F830301BB107EBC002516898476A78A3
:101C98000134E3B29A42E7D2BDE8F0810004014082
:101CA800C0020020044B184400230133994200F875
:101CB800012BFADC704700BF8800002010B4064BE7
:101CC800064902460C6818560123934023430B60CB
:101CD80010BCFFF73DBD00BF880000200004014094
:101CE8001F2806DC034901220B68824023EA02030D
:101CF8000B6070470004014003292AD8DFE801F08F
:101D0800020E141F134B01229968824021EA020136
:101D18009960D96821EA0202DA6070470D4B012206
:101D2800996882401143F3E70A4B0122D96882403F
:101D38001143D960996821EA02029A607047012329
:101D480003FA00F0034B9A6802439A60DA6810437A
:101D5800D86070470004014030B50A4B53F8304052
:101D68008C4204D103EBC0056D68954205D034B9A7
:101D780043F8301003EBC0035A60002030BD6FF009
:101D88000F00FBE7C0020020034B002243F830207D
:101D980003EBC0035A607047C002002010B5164B11
:101DA80018680B68052B144610D0062B08D86BB1A1
:101DB800013B052B0AD8DFE803F00D0C180C0912BB
:101DC800182B07D01C2B08D0142B03D06FF08500DC
:101DD80002E000202060002010BD4008FAE700F073
:101DE80099F828B100F096F8F4E749F64040F1E791
:101DF8006FF00400F0E700BF7C000020F8B53A4F10
:101E08003A4C00F097F8384602F03BFC00F0E6FE4A
:101E18006368374AC3F303131578D35C47FA05F5AB
:101E280020FA03F6AE4202D2284601F0E1F8236810
:101E380043F480232360236843F4803323602368BA
:101E48009B03FCD5636A43F001036362636A9807E6
:101E5800FCD5636803F00C03082B15D12368990798
:101E680006D4236843F00103236023689A07FCD54E
:101E7800636823F003036360636813F00C0FFBD1FE
:101E8800636823F0F0036360236823F080732360A2
:101E980000F032F8236843F08073236023689B01C5
:101EA800FCD5636823F0F0036360636823F00303E1
:101EB80043F002036360636803F00C03082BFAD154
:101EC800AE4202D3284601F093F80A4B1F606368BC
:101ED80023F4E06343F480636360636823F460532E
:101EE80063600020F8BD00BF00A24A040010024051
:101EF8008F5D00087C000020054A536823F47413A2
:101F080043F4E8135360D36A23F00F03D362704796
:101F1800001002404FF4E0134FF4701292FAA2F24C
:101F2800B2FA82F2D340024802335843704700BFE6
:101F380000127A00064BDA6942F08052DA61DB69F6
:101F480082B003F080530193019B02B0704700BF39
:101F58000010024008B5074802F003FE38B10648F1
:101F6800FFF740FE0448FEF789FC002008BD6FF02B
:101F78001200FBE7B84F0008851F00080A2838B58B
:101F8800074D044604D1AB680D215B682846984785
:101F9800AB6803485B68E1B29847204638BD00BF8C
:101FA800B84F000838B5036904465860084D2846FC
:101FB80002F0D7FD40B16168AB680C311B68284658
:101FC800984700EAE07038BD6FF01200FBE700BFE9
:101FD800DC4E0008F7B50C461146B1F5001F4768FE
:101FE80002691D4625D104F00302043292000F2332
:101FF800934043EA940303F003023549023251F84F
:102008002220190C02EA134391FAA1F2B2FA82F2E1
:10201800D340BA689A4209D12046FFF761FE2046AC
:10202800FFF7B2FE00212046FFF766FE002003B04E
:10203800F0BDB1F5800F42D026492046FFF78CFE4F
:1020480000283FD1B5F1806F35D0B5F1C06F34D0DD
:10205800B5F1007F39D102261F4ABD6892E8030016
:102068006B4683E803001D4882681946126890474A
:10207800C8B904F0030304339B000F229A4042EAD4
:10208800940202F003039B0003F1804303F58033BD
:10209800110C986820EA124091FAA1F2B2FA82F281
:1020A800954005439D6020463146FFF725FE2046B2
:1020B800FFF704FEBAE70126CEE70326CCE76FF068
:1020C8008500B4E76FF00F00B1E76FF01500AEE7D9
:1020D8000000014097480008C8520008DC4E00087C
:1020E8002DE9F0471E4F044600EBC1060025B44217
:1020F80001D1002014E02068C30600F01F0911D4A4
:10210800656845F02005C0F3481AC0F344200F283D
:1021180023D857F82080B8F1000F0DD16FF01200C6
:10212800BDE8F087B9F1100F04D0B9F1110FEAD169
:102138006568E8E73025E6E7404602F012FD00282A
:10214800ECD04B462A460AF00F01404602F0B6FB97
:10215800002804F10804CADAE2E76FF01500DFE7A7
:1021680008540008B1F5807F22D016D8102921D054
:102178000FD8012920D0042908BF012318BF08233C
:102188001049026AC85C02238340134023FA00F016
:102198007047402908BF0323F0E7B1F5805F0DD0F1
:1021A800B1F5803F0CD0B1F5806F08BF0523E5E796
:1021B8000423E5E70223E3E70023E1E70623DFE75B
:1021C8000723DDE79D5C00082DE9F04701F1FF3C9E
:1021D8008CB0BCF1050FBDF850704468164698469F
:1021E8000FD98A4B0391029300231846CDE9003397
:1021F8008749012202F0A2FB6FF015000CB0BDE880
:10220800F0872268B2F1804F03D0B6F5803F00F224
:10221800FA80804B032953F82C5007F4807A0BD9A5
:10222800BAF1000F11D12846D146AEB9136A23EA94
:10223800000313620020E1E7774B53F82C90BAF1C2
:10224800000F05D0B9F1000F04D1744B0391CAE710
:102258002846EAE74846E8E7A36863BB013E136AF5
:1022680007F0010730EA03034FEA470744D1B0F506
:10227800807F00F0BE8032D8102800F0BC802AD8B9
:10228800012800F0BA80042808BF012318BF0823DA
:102298006348116AC05C0223834021EA0303874034
:1022A8001F43604B176253F82C302068414698470B
:1022B8002368DE62BEE7102B02D108F1FF38CDE7B4
:1022C80023F04001202902D0402B40F09C804FEAA7
:1022D80058087608C3E7402808BF0323D6E7B0F5B7
:1022E800805F00F08C80B0F5803F00F08A80B0F508
:1022F800806F08BF0523C9E704A802F027FC602304
:1023080004930123BAF1000F23D006930997236899
:102318001B6A35EA03030CBF0123002305932068D9
:102328002946FFF71FFF0890CDF81C80206804AAF3
:10233800294600F0DBFCF8B13B4B0293002318461A
:10234800CDE900333249012202F0F8FA6FF00400B7
:1023580054E705930897B9F1000FE5D023681B6A85
:1023680039EA03030CBF012300230693206849467A
:10237800FFF7F8FE0990D7E72268136843F0800357
:102388001360B5F5807F22682BD01FD8102D2AD076
:1023980018D8012D04D0042D08BF012018BF08202B
:1023A800224B195C224B1832185C5558082383407D
:1023B8002B4353502368DE622268536943F00103BC
:1023C800536137E7402D08BF0320E7E7B5F5805F85
:1023D8000BD0B5F5803F0AD0B5F5806F08BF052052
:1023E800DCE70420DCE70220DAE70620D8E707204C
:1023F800D6E704234CE702234AE7002348E70623ED
:1024080046E7072344E76FF08500F7E68F5B00088F
:10241800A0520008A454000898540008A45B0008BF
:102428009D5C000880540008CB5B0008AF5C000886
:10243800A65C00082DE9F043076945688BB0494E52
:10244800304602F08EFB034668B9474A4749009078
:10245800CDE90102012202F071FA6FF01204204660
:102468000BB0BDE8F083D6F8089005F10C08D9F850
:102478000030414630469847041E0BDA3C4B039423
:1024880002930023CDE9003338490122184602F0AF
:1024980055FAE4E7D9F80C301BB305AA4146304693
:1024A8009847041E1FDBEA68059B1C2A00D15B00C5
:1024B800D7E901013B608368DB6803B19847686925
:1024C80005AA002102F00FFA041E07DB059B002273
:1024D80019791868FFF704FE041E07DA254B0394E0
:1024E800CEE76FF05704244B0394C9E705A802F020
:1024F80024FB6B68ADF814300024AB680693CDE973
:10250800074405A9286800F09FFB60B11B4B0094A5
:10251800CDE90143204623461449012202F00EFA70
:102528006FF004049BE72B68154A93420FD002F51D
:10253800006293420BD002F54062934207D002F545
:102548008062934203D002F58062934203D15A6CB1
:1025580042F400425A642A68136843F00103136086
:1025680000247CE7DC4E0008F55B0008A052000858
:10257800145C0008565C0008345C0008745C0008B1
:10258800002C014030B50269436810681D680C468C
:10259800D9688368DB6887B05BB90E4B0293002368
:1025A800CDE900330C490122184602F03CFA07B085
:1025B80030BD05AA98470028EFDB2B6823F40043B9
:1025C8002B60059B03EB5403B3FBF4F39BB2EB6066
:1025D800EDE700BFC95C0008B0520008F8B5036910
:1025E800D0F804E05E680B79012B0C4635D0991EB3
:1025F8004D424D41AD026279022A9CBF404931F8F3
:1026080012C0A27988BF4FF4005C042A28D0003B8E
:1026180018BF01231B03E179DEF80020012914BF4C
:1026280000274FF44077A6421DD1116821F4B0511C
:1026380029430B431360536823F4405343EA0C03C4
:10264800536043681A68936823F440733B4393606C
:102658003168BDE8F840FFF795BF4FF4C065CAE799
:102668004FF48053D7E7D2F800E00EF4C06E7545FA
:102678001FBFD2F800E02EF4C06E4EEA05051560C3
:10268800426815686A6802F4405294451FBF6A6838
:1026980022F4405242EA0C026A60426815682A68CD
:1026A80002F4805293421FBF2A6822F480521343D7
:1026B8002B6043681A68936803F440739F421FBFF6
:1026C800936823F440733B43936043681B689A689C
:1026D800520405D5032909D09A6822F4804204E0FF
:1026E800032903D19A6842F480429A6021683368CA
:1026F800994203D0FFF746FF23683360F8BD00BF57
:10270800F4550008F0B50469456806465948206044
:1027180087B002F026FA034650B9574A5749009342
:10272800CDE90132012202F07EF96FF012040DE0CA
:102738002068E96883681B689847044648B9286A8E
:1027480005AA002102F0CFF8041E0FDA204607B0D0
:10275800F0BD4B4B02930023CDE9003347490122DA
:10276800184602F060F9002CF0DBE8E7059B002230
:1027780019791868FFF7B4FC041EE7DB756833693C
:102788002C685F68236823F001032360686802F0FF
:10279800E8F9034608B93B4AC0E7D5E9010183686F
:1027A800DB6803B1984754E8003F43F00C0344E862
:1027B8000032002AF7D139463046FFF70FFF2B7D4C
:1027C8001BB1A36843F00803A3606B7D1BB163686A
:1027D80043F400436360AB7D1BB1636843F480330B
:1027E8006360EB7D1BB1636843F4003363602B7E49
:1027F800002B33D0244B9C4216D0A3F574439C4243
:1028080012D003F580639C420ED0336803931F4BAC
:1028180002930023CDE9003318490122184602F03B
:1028280002F96FF0150491E773681A68936843F426
:102838008043936023686A7E23F0787343EA4253A7
:1028480023602368AA7E23F4F81343EA0243236033
:10285800EB7E1BB1A36843F40043A360236843F0F5
:1028680001032360E3699A02FCD5E3695B02FCD5A6
:1028780000246BE7DC4E0008F55B0008B052000846
:10288800F75C0008175D000800380140325D000859
:102898002DE9F04143681C680369D3F804800B797B
:1028A8000D46012B4979AE7933D1022951D9042E2D
:1028B8004CD04FF480574FF4C06203238B4245D16C
:1028C800002F78D0002A14BF03220422B2423DD13F
:1028D800EB7963B1012B73D13B4B9C4207D0A3F535
:1028E80074439C4203D003F580639C422ED1236835
:1028F80023F0010323602946FFF770FE236843F0A5
:102908000103236095E8030088E803000020BDE880
:10291800F081022B08D1022926D9042E16D04FF4B3
:1029280080624FF48057C8E702290A4624D9042E4A
:1029380004D15BB94FF480571A46BEE723B1033B75
:10294800012B03D90022ECE70329BFD06FF08500E3
:10295800DDE71E4A042E32F811C0F7D04FF4C062EA
:10296800033B012B10D8F1E7184A042E32F811C0A6
:10297800ECD04FF48062F3E7144A042E32F811C009
:102988000FD1002BE2D11A464FF48057BCF5805F77
:102998000DD0BCF5405F0CD0BCF1000F8DD10123E8
:1029A8008CE70BB10022DBE71A461F46EEE700234F
:1029B80084E7022382E7002A14BF0222032285E764
:1029C800032B89D0C2E700BF00380140F455000846
:1029D80010B54FF0E0230F499C691A6908689B6994
:1029E8000D4902F4803234B993B903464AB90A68EA
:1029F8001044C01A10BD002B08BF03460AB9A342F1
:102A0800F5D90A6802440A604FF0E0221269EEE73D
:102A18000446F3E7A4030020A00300200A4B102279
:102A280083F82320094B4FF4E1521A60084B002029
:102A380018604FF0E02341F61F425A6198611A6905
:102A480042F007021A61704700ED00E0A40300207D
:102A5800A003002010B5FFF7BBFF104B1049D3E9C6
:102A680000420868001942F10002C3E900020D4A59
:102A780000230B60D2E900414FF4E153001BB0FB87
:102A8800F3F043431B1941F10001C2E9003101F0A1
:102A98005DF8BDE81040FEF7C9BA00BFC0000020CD
:102AA800A0030020B80000202DE9F041DFF8DC8009
:102AB80099B1421C0BD14FF0E022136923F00103B6
:102AC80013614FF07F43C8F80030BDE8F081D8F8B3
:102AD8000060012807DC00270BE0431CD8F80060E1
:102AE800F7D140F6191040F61A139842A8BF1846B5
:102AF800471EEFF31185102383F31288BFF36F8FFE
:102B0800FFF766FF224C4FF0E0239969D4E90023D0
:102B1800801843F10003C4E900031E4B00221A6029
:102B28001D4B1A68831A2ED44FF4E15C0CFB073353
:102B380003F5E0531F33B3FBFCF7131A0CFB073301
:102B4800B3F5806F154A38BF4FF48063934228BFAE
:102B580013464FF0E022C8F80030013B90695361FA
:102B6800002393618142A1EB0003D4E9001238BF2E
:102B78009B195B1842F10002C4E9003285F3118801
:102B8800BFF36F8FA1E74FF48063E2E7A40300204F
:102B9800C0000020A0030020B800002020DFFF00B4
:102BA80038B5EFF31185102383F31288BFF36F8FC5
:102BB800084B1C68084B1B68E41AFFF709FF85F3EC
:102BC8001188BFF36F8F4FF4E1532044B0FBF3F04B
:102BD80038BD00BFC0000020B800002010B5154C5B
:102BE800616801F00C03082B21D101F470124FF435
:102BF800701393FAA3F3B3FA83F322FA03F30E4A9A
:102C0800D05CE36AC90348BF03F00F034FF00F021B
:102C180092FAA2F2B2FA82F245BFD340074A084BB1
:102C2800D25C44BF074BB3FBF2F3584310BD0548D1
:102C3800FCE700BF00100240AF5D00089F5D000880
:102C480000093D0000127A00254A036890420ED020
:102C5800B0F1804F0BD0A2F59432904207D002F524
:102C68008062904203D002F59632904222D14A689F
:102C780023F070031343CA6823F4407313430360BB
:102C88008B68C3620B888362154B98420FD003F59B
:102C9800006398420BD003F54063984207D003F5D0
:102CA8008063984203D003F58063984211D10B6981
:102CB80003630EE00B4A9042DDD00B4A9042DAD013
:102CC80002F580629042D6D003608B68C3620B889D
:102CD8008362436943F0010343610020704700BFEA
:102CE800002C01400040014000440140B1F5805FE4
:102CF80030B500F011810AD8102900F08680B1F5AE
:102D0800807F00F0C68001293DD0012030BDB1F59B
:102D1800803F00F03681B1F5801FF6D1036A23F4B5
:102D280080130362036A416D146821F0807121F4F5
:102D3800E04141EA0424116923F4001343EA0153F2
:102D4800516823F4801343EA0153A84988420FD0FD
:102D580001F5006188420BD001F54061884207D037
:102D680001F58061884203D001F58061884206D16F
:102D78004168956921F4802141EA852141604465D3
:102D8800D268C2653EE0036A23F001030362036A66
:102D980041688469156824F4803424F073042C4352
:102DA800156923F002032B43556823F001032B43D5
:102DB8008E4DA8420FD005F50065A8420BD005F549
:102DC8004065A84207D005F58065A84203D005F5FF
:102DD8008065A84212D1556923F0080343EA8503A8
:102DE800956823F0040343EA8503956921F480710B
:102DF8002943D56921F4007141EA450141608461A4
:102E0800D26842630362002080E7036A23F010035C
:102E18000362036A41688469156824F0807424F4A5
:102E2800E64444EA0524156923F0200343EA051320
:102E3800556823F0100343EA05136C4DA8420FD0E0
:102E480005F50065A8420BD005F54065A84207D0F6
:102E580005F58065A84203D005F58065A84213D121
:102E6800556923F0800343EA8513956823F04003EE
:102E780043EA8513956921F4806141EA8501D569A2
:102E880021F4006141EAC50141608461D26882632E
:102E9800B8E7036A23F480730362036A4168C4696C
:102EA800156824F4803424F073042C43156923F442
:102EB800007343EA0523556823F4807343EA052326
:102EC8004A4DA8420FD005F50065A8420BD005F57C
:102ED8004065A84207D005F58065A84203D005F5EE
:102EE8008065A84213D1556923F4006343EA85231A
:102EF800956823F4806343EA8523956921F480511A
:102F080041EA0511D56921F4005141EA45114160B2
:102F1800C461D268C26375E7036A23F4805303620D
:102F2800036A4468C169156821F0807121F4E6419B
:102F380041EA0521156923F4005343EA053355682E
:102F480023F4805343EA0533284DA8420FD005F5F2
:102F58000065A8420BD005F54065A84207D005F5E5
:102F68008065A84203D005F58065A84204D195691B
:102F780024F4804444EA85144460C161D268026440
:102F880040E7036A23F480330362036A416D1468DF
:102F980021F4803121F070010C43116923F40033CE
:102FA80043EA0143516823F4803343EA01430F495C
:102FB80088420FD001F5006188420BD001F54061CD
:102FC800884207D001F58061884203D001F580610D
:102FD800884206D14168956921F4803141EA05218A
:102FE80041604465D268816D82650BE7002C014021
:102FF800D8B10F4B984216D80E4B984294BF002078
:1030080001200D4A136823F0070303431360136874
:1030180003F0070398421CBF136803F00703C01AA4
:1030280018BF012070470220EBE70120704700BF5E
:10303800006CDC0200366E01002002401FB5044619
:10304800FDF7E6FC064B029300231846CDE9003352
:103058000449012201F090FD204601F09DFD00BFCA
:10306800BF5D0008985200082DE9F041054686B07A
:103078000E46EFF31188102383F31288BFF36F8F86
:10308800042898BF234B244A98BF53F820309768E8
:1030980088BF224B127C224903900024CDE90432D8
:1030A800204B0293CDE9004423460122204601F03B
:1030B80063FD6EB1F369C3F308034BB11A4B1849AA
:1030C8000094CDE9014301222346204601F054FD36
:1030D8002FB1384601F08FFD08B1037803B91348C2
:1030E800134B02930023CDE90370CDE90033184652
:1030F80001220B4901F040FD31462846FFF79EFFAB
:1031080088F31188BFF36F8F384606B0BDE8F041E9
:10311800FEF7A2BAC8550008A8030020CE5D000833
:1031280098520008E45D00080C5E0008DC5D0008A9
:103138002D5E000838B5094B53F82040013053F88C
:103148002050A54200D838BD636823B1204601F05D
:103158002BFD0834F5E723689847FAE7DC550008A3
:1031680070B52A4B2A4C2B4D012286B003201A70C9
:10317800FFF7E0FF00F06AFD0420FFF7DBFF2646BB
:10318800AE4204F1300410D300F09EFA204C224ED7
:10319800AC4226D300F0ACFAFDF764F91F4A137B62
:1031A80023F00103137306B070BD54F80C3C05936B
:1031B80054F8103C049354F8143C039354F8183C06
:1031C800029354F81C3C019354F8203C009354E9B2
:1031D8000A2354E90C0100F0D5F854F8303C5E6538
:1031E800CDE7D4E90A23B3F1FF3F08BFB2F1FF3FAF
:1031F80005D052EA0301206803D101F0FEFC303407
:10320800C6E73146183000F027FCF8E7DB0300205A
:103218007052000870520008BD4C00084801002098
:1032280008B50348034A0021121A01F0D5FC08BD6D
:10323800B8000020E003002070B5002386B001220A
:10324800CDE90423134E144D01930F22CDE9023228
:103258001249142303FB005506EBC01604464FF42D
:10326800C07000FB04110E4B00954FF4A07230465D
:1032780000F088F8737B0B4AEE6023F00403737345
:103288004FF4046304FB033313442C746B6006B0DF
:1032980070BD00BFC8000020A8030020400C00201B
:1032A800E94B000800040020BFB50020FFF742FFEB
:1032B8002C4B83F308882C4D2C4E6B692C4F43F410
:1032C80000736B610024F02385F82230EC772C76AC
:1032D8006C76AC7685F820406B6A43F4E0236B6229
:1032E800FEF792F9FEF7D2FA4FF0FF33AB62EB62CA
:1032F800FEF7B2FBFEF7EEFAFDF776FB1D4BB36067
:1033080040F201129A81C3E91844DC6601F028FCF6
:103318000120FFF70FFF0220174DFFF70BFF00F00A
:1033280007FA164B75610593012315490094CDE9F9
:1033380003434FF480623B46CDE90144284600F040
:1033480021F86A7B064622F0040228466A7301F0D7
:1033580068FC2046FFF770FF3A4631462846FEF7DC
:1033680073FA00BF400C002000ED00E0A803002025
:1033780069310008C8010020480100208F5E00085C
:10338800C00D00202DE9F043073285B022F0070276
:103398000E461F461099017300F158037F32C0E9A9
:1033A80016330446002322F03F0204218360417350
:1033B8003F2A0F98A073C4E90633E37306F1400966
:1033C800A2F1400805D883F31188BFF36F8F084630
:1033D80002DFB51829462046FDF708FE07300E9B88
:1033E80020F00700A066C4E9189802930D9B01938A
:1033F8002D1A0C9B00932A463B4631462046FEF781
:10340800F1F900236365044B9B6803B1DB6EE36647
:10341800284605B0BDE8F083A803002038B50D4D57
:103428002B4653F8184F9C4200D004B9EC68AB689F
:1034380038B95A7BD20604D1A26912B9DA897F2A2F
:1034480005D89C4202D0204600F04EFA23466B6114
:1034580038BD00BFA803002008B590F90D20437BB4
:10346800002A014604DA03F07F03437301F0C7FB27
:10347800044B9868431A58425841BDE80840FFF782
:10348800CDBF00BFA803002070B490F90D30427B77
:10349800002B29DBD30627D183692BBB134962F0A4
:1034A8007F0242730A4652F8184F944218BF2346C7
:1034B800CC6923B9C0E900242060C8610CE090F908
:1034C8000E5093F90E60B5420AD0AE4208DD5A6834
:1034D800C0E900321060586070BC0020FFF79EBF42
:1034E8009C42E7D01B68E4E770BC7047A803002043
:1034F8002DE9F041002A427B0E460CBF102108211D
:10350800114204460FD141EA0203D20918D143738C
:1035180008291BD00120FFF781FFBFF35F8F637B72
:1035280023F060036373274B9B68A34243D1EFF3F7
:103538000583002B3FD13046BDE8F041FEF7A2B825
:1035480003F07F03437301F05AFBE1E7A36813B16B
:10355800204601F05CFB04F1180001F0D1FBA56DD9
:1035680004F15807AF4211D04FF0000875B1284652
:1035780001F04DFB05F1180001F0C2FBC5F8788099
:103588002846FFF781FFA56DAF42EFD10D4DAB681F
:103598009C42BFD1EFF30583002BBBD00120FFF77E
:1035A8003DFF094BAB6040F201129A810022C3E94A
:1035B8001822DA66B1E786F31188BFF36F8FBDE88A
:1035C800F08100BFA8030020C801002070B590F961
:1035D8000D20437B002A014604DA03F07F0343737E
:1035E80001F00DFB4B7B154A63F07F0310464B73CC
:1035F80050F8183FD469834208BF002323B9C1E9B2
:1036080000042160D1610CE091F90E5093F90E602D
:10361800B5420ED0AE420CDD5868C1E900300160F9
:1036280059609068431A5842BDE870405841FFF706
:10363800F5BE9C42E3D01B68E0E700BFA80300206A
:1036480049B9EFF3058030B9054B5A699B689A422E
:1036580001D0FEF717B881F31188BFF36F8F704759
:10366800A803002010B5EFF31184102282F312880A
:10367800BFF36F8F427B510704D484F31188BFF3E3
:103688006F8F10BD22F004024273FFF7FDFE214642
:103698000248BDE81040FFF7D3BF00BFDC0300209D
:1036A800034648B9EFF3058232B9064A5169926870
:1036B800914201D0FDF7E6BF83F31188BFF36F8F06
:1036C800704700BFA8030020EFF31181102383F394
:1036D8001288BFF36F8F054B9A68D37B013BD37376
:1036E80081F31188BFF36F8F704700BFA8030020D4
:1036F80038B5EFF31185102484F31288BFF36F8F68
:103708000A4B9A68D37B0133D3730020FFF786FEF8
:1037180085F31188BFF36F8FEFF3118084F312885C
:10372800BFF36F8FBDE83840FFF7BABFA80300208A
:10373800024B03F11802C3E906227047A8030020D0
:10374800F8B5EFF31185102383F31288BFF36F8F59
:1037580019498868437B03F07F03437301F04FFAEC
:103768008B685A7B084662F07F025A7350F8182F0C
:10377800CC69824208BF002222B9C3E90004236051
:10378800CB610CE093F90E6092F90E70BE420ED038
:10379800B7420CDD5168C3E900210B60536001207A
:1037A800FFF73CFE2846BDE8F840FDF76BBFA24294
:1037B800E3D01268E0E700BFA803002050EA010345
:1037C8002DE9F04105460E4603D1FFF7B9FF002069
:1037D8002BE0831C71F1FF3329DB01F0A6FA2C18CA
:1037E800EFF31188102383F31288BFF36F8F124F02
:1037F800124BB8681860FFF72FFEB86810492A46C0
:103808003346183000F028F9BA68537B43F01003A8
:1038180053734046FDF736FF01F087FA201A63EB31
:103828000303012873F10003D1DBBDE8F0816FF0D9
:103838000104241AD4E700BFA8030020C80300200D
:10384800BD4C0008B1F1FF3F08BFB0F1FF3F08B51C
:1038580006D10A4B986801F0F3F94FF0FF3008BD24
:10386800FFF7ACFFC11709304FF00A024FF0000311
:1038780041F10001FCF784FCF1E700BFA803002038
:10388800014B9868704700BFA8030020044BC01A7A
:10389800044BC0105843044B01221A54704700BF10
:1038A80048020020ABAAAAAADC030020C3897F2B08
:1038B80012D80A4B1B6863B1094B90F90E201B689C
:1038C8009A4209DB437BDB0606D1064BC31A18BFB5
:1038D800012303F0010070470023FAE7D00300201A
:1038E800CC030020C800002070B50E4B0E4C1E7C87
:1038F80006EB460304EBC3040546204601F000FA34
:103908000A4B002228469A55FFF7D0FF48B1084BCA
:1039180008491A68013A2046D317BDE8704000F0FC
:103928009BB870BDA803002048020020DC030020DB
:10393800D00300209538000838B5EFF3118510231F
:1039480083F31288BFF36F8F104B114A9C6810687D
:10395800A04206D1FFF7C8FF85F31188BFF36F8F28
:1039680038BD00211B7C11600A4AD35C002BF3D0C0
:103978002046FFF79BFF0028EED0637BDB0602D1D1
:103988002046FFF723FE2046E4E700BFA8030020F7
:10399800C8030020DC03002008B50648064A07498A
:1039A800121A01F01BF9BDE80840054A0549064806
:1039B80001F014B900000020B8000020E45E0008FF
:1039C80000000000E45E000800000020034B1B68B4
:1039D8000BB9FFF7E5B80020704700BFD4030020FB
:1039E80030B570B10B4B5B6898420AD0036843B19D
:1039F800D3E90421D0E90445121941EB0501C3E9D3
:103A08000421D0E9003213605A600023C0E9003372
:103A180030BD00BF8000002010B50E4B1C689C42D2
:103A280004D1FFF7D3FF6FF0004010BDFFF7CEFFC2
:103A3800002CF8D0D4E904321B1A62EBE072B3F11F
:103A4800004F72F10001EEDA002AACBF18460020E0
:103A5800EBE700BF80000020B3F1FF3F08BFB2F1E1
:103A6800FF3FF8B504461D4616465ED08160EFF369
:103A78001187102383F31288BFF36F8F013275F11A
:103A8800FF3324DA2E49D1E900206FF001039B1A95
:103A98004FF0FF3262EB00009E1B60EB0500012E29
:103AA80070F1000301DA01260020C4E90460254E04
:103AB800D6F800C07568B44508BF4FF0000CBCF1DB
:103AC800000F0DD1C4E900652C6074601CE0FFF79D
:103AD8007DFF013645F10005361845EBE070E4E757
:103AE800DCE90420D4E90431934271EB000E1DDABD
:103AF800D21ADCF8043060EB0100CCE90420C4E9F8
:103B080000C31C60CCF804403368B34209D09C421F
:103B180007D10D4B1C6824B9FFF77EFF2146FEF73D
:103B2800C3FF87F31188BFF36F8FF8BD9B1A61EB52
:103B38000001AC45C4E90431C4D0DCF800C0BEE7DC
:103B48006002002080000020D40300202DE9F84FF7
:103B5800EFF3118C102383F31288BFF36F8FDFF814
:103B6800B0A0DFF8B0902C4FC9F80000DAF80000D8
:103B78000024504508BF00200025D7E90021D9F8C6
:103B88000030E04678B3D0E9046C4FEAE37EB342F4
:103B98007EEB0C0B05DAF61A6CEB0E04C0E9046434
:103BA80021E0B21841EBE671C0E90445C7E90021FC
:103BB800FFF716FF88F31188BFF36F8F8368984764
:103BC800EFF31188102383F31288BFF36F8FD9F8AE
:103BD8000030DAF800009B1B5045C446C9F8003095
:103BE800CBD1D7E900219A1841EBE3730024C7E948
:103BF8000023C9F80040FFF70FFF2146FEF754FFE6
:103C080088F31188BFF36F8FBDE8F84FFFF794BEB4
:103C180080000020D40300206002002010B5EFF3DC
:103C28001184102383F31288BFF36F8FFFF7CEFE42
:103C3800054A0346D2E90001181841EBE37184F301
:103C48001188BFF36F8F10BD60020020014800F09B
:103C58000EBB00BF975E00080FB407B5064B04AA59
:103C6800186852F8041B019200F008F803B05DF8D8
:103C780004EB04B0704700BF685300082DE9F04F0B
:103C88008DB043680293837815469A07804640F1C1
:103C98000D8100240E78002E00F00A81252E0BD00D
:103CA8004B1C03930134029B414630469847002839
:103CB800C0F2F6800399EDE74E788B1C252E03930E
:103CC800F0D00027B946BB46BBF11F0F38D8A6F184
:103CD8002003102B0AD8DFE803F02A090930090964
:103CE800092109090928092D09091F00A6F130032E
:103CF800092B33D92A2E37D11BF0400F55F8043B36
:103D080040F08280002BA7BF4BF0200B9946C3F1EF
:103D180000094BF0280B01E04BF0010B039B13F853
:103D2800016B0393002ECFD130E04BF0020B4BF028
:103D3800040BF3E74BF0080BF0E74BF0100BEDE743
:103D4800BBF17F0F19D8A6F13003092BD2D81BF08D
:103D5800400F03D00A2101FB0737DFE70A2101FBE7
:103D680009394BF0200BD9E72E2E06D11BF0400F56
:103D780040F09E804BF0400BD0E76C2E31D02BD812
:103D8800682E36D06A2E3CD04C2E3AD0002F46F002
:103D98002003B8BF2BF04002A3F16501BCBF1FFA96
:103DA80082FB0027022901D9612B2FD1073525F085
:103DB8000705DFF8ACA2083507271BF0080F66D007
:103DC8000AEB070B56465E4563D1A4EB0A0A06EBDD
:103DD8000A02A9EB07096FE1742E9FD07A2E9DD0B5
:103DE800D4E71BF0800F18BF4BF4007B4BF0800B1F
:103DF80094E71BF4807F18BF4BF4007B4BF4807B67
:103E08008CE74BF4207B89E71F4687E7A6F163011F
:103E1800122900F2F080DFE811F013004F00EE00E5
:103E2800EE00EE00EE004F00EE00EE00EE00EE00B9
:103E3800EE00FE00E900EE00EE001B00EE00AF0011
:103E480055F8043B8DF8183001270DF1180AB4E72E
:103E580055F804AB834BBAF1000F08BF9A461BF024
:103E6800400F14BF39464FF0FF31504600F063FF52
:103E78000746A2E7029B41462020984700280FDB0F
:103E8800013EB742F6D34C44A41BB14698E74E46D0
:103E9800F7E716F8010B029B41469847002892DA8B
:103EA80098F8023043F0040388F802304FF0FF34EA
:103EB80020460DB0BDE8F08F1BF0800F34D01BF406
:103EC800007F2CD0073525F00705AA4669685AF8FF
:103ED800080B2BF010050029ADB237DA404261EB30
:103EE800410145F480650DF1180B0A235A4600F08C
:103EF8002EFFA0EB0B0301936B0662D5019B25F007
:103F080001019F4289B240F3A180002E00F0998000
:103F180015F0100240F09C80BB460D4623E0AA46EF
:103F28005AF8040BC117D4E7AA461BF4807F5AF845
:103F3800041B01D10846F5E71BF4007F15BF48B202
:103F480008B241F3C01141F3C031C2E750EA01039E
:103F5800C9D11BF0400FC6D0002FC4D12BF01102DD
:103F680095B2BB46019740F2064115EA01021CBF13
:103F78000BF1010B00222CE02BF010021FFA82FB40
:103F88000A231BF0800C49D01BF400711DBF0735B4
:103F980025F00705AA46AA461ABF5AF8080B696809
:103FA8005AF8040B50EA010545D12BF016051BF011
:103FB800400FADB242D0002F40D12BF0170295B27E
:103FC800019715F0100248D0019B002E42D103F151
:103FD800010B29075AD4EB0706D5D9456FDD01999E
:103FE800A9EB0B035F18CB465B4649E04BF0100B7F
:103FF80010237826C5E7782B04D1C6F1780343F05F
:104008001003BEE7029B4146252098470028FFF68B
:1040180047AF023447E608230026B2E7AA461BF456
:1040280080715AF8040BBDD01BF400711ABFC0B2DE
:10403800614680B2B6E72BF0060295B20DF1180B77
:1040480054E725F01105ADB2BB468CE70D46B8E73D
:104058003B460D4603F1020BBBE7DDF804B082E7EF
:10406800D95E0008D25E0008CDE904324146029BC1
:10407800202098470028FFF613AF049B059A0133C8
:104088009945F1DCA4EB0B01CC189B460AB3029BC3
:104098004146302098470028FFF602AF8EB9013418
:1040A8002744019B391B994224DC1D465DBB019ABC
:1040B800A9EB0B09224455461446914435E0019F6B
:1040C80092E7023441463046029B98470028E7DAD7
:1040D800E6E640F206410D42E2D015F0020F14BFA9
:1040E8002B20202015F4806F04F10104414618BFED
:1040F8002D20E9E7029B414630209847002804F12B
:104108000104CEDACCE606AB013D4146585D029B80
:1041180098470028CADAC3E6029B41462020984700
:10412800002804F10104FFF6BBAEA9EB0403002B41
:10413800F2DCBFE5704700EBC100408840087047DB
:10414800F8B50346FFF7F7FFB0FA80F0C0F11F009B
:1041580003EB800CCA00DCF81060171D0C46063211
:104168008DB256B9012101FA00F0D9680143D9602E
:10417800CCF81040DD539D52F8BDF1000431585A77
:10418800D85303EBC0009E52C5805D52F4E7043A51
:104198002DE9F041CC1D114424F0070421F007015A
:1041A8000E1BF708B7FA87F2C2F12405AD004FF0ED
:1041B80000080735C2F12002ED0804604146A760F7
:1041C800C4F80C80920004F1100000F025FE6B008A
:1041D80043F00103638004EBC5027B1B5900A4F87C
:1041E80000805180A21924F83550A2F80280A35308
:1041F80004EBC70329465A8842F001025A80204638
:10420800BDE8F041FFF79CBF2DE9F04706460D4693
:10421800174698462BB398F8004093F80190DB783E
:10422800A40004EB430498F802301C4444444FF0C3
:10423800000ACA4509D3D8F8042008F1080339460A
:104248003046AC46BDE8F047604714F8013B48F8F3
:1042580023402046FCF7FEF8013004440AF1010A25
:10426800E7E76FF01500BDE8F087002070470FB44E
:1042780007B504A951F8040B019100F024F803B024
:104288005DF804EB04B0704770470020704708B52C
:1042980000F04FFD0A220023FBF772FF08BD03461A
:1042A800BFF35B8F53E8000F421C43E8002100294D
:1042B800F8D1BFF35B8F704708B500210846FCF7BB
:1042C80017FB002008BD1FB50023CDE90201CDE989
:1042D80000331A4619461846FCF70EFC05B05DF87F
:1042E80004FB70470020704770B50E461546194606
:1042F800044618B9BDE87040FCF7A8BB33B1C2F357
:104308004A231030120D184400F078FDC4E9005615
:104318002046BDE87040FCF7B1BB07B5D1E90032D3
:104328008DF80700526801210DF107009847002019
:1043380003B05DF804FB0A2838B504460D4602D1DF
:104348000D20FFF7EAFF29462046FFF7E6FF002089
:1043580038BDF8B506460D4614461F4604B9F8BDE3
:10436800214628463A46B047241A0544F6E710B5D0
:10437800426881680446D2E900230068FFF7E9FF34
:10438800636800221A6010BD2DE9F043054687B026
:1043980008460E8891F80090D1F808800C46174618
:1043A800FCF7F0FB011EC6F38216C9F3C2091EDB37
:1043B8004846FCF77FFB03462146608851F8102BDE
:1043C8000196C2F34A22002A01EB0204C0F30B1043
:1043D80008BF00210022CDE90407CDE902140092AC
:1043E80041462846FCF7FAFB07B0BDE8F0830023F6
:1043F800E2E743681B685B680020196170474368FF
:104408001B681A6852685360704743681B685A688B
:10441800012111751868FFF7AABF70B543681D68B8
:104428006B6818690C46FCF7C9FA214603460F2247
:104438002868BDE8704018477FB50BAB0593039318
:104448000A9B02930023CDE9003301221846FCF7AA
:1044580053FB07B05DF804FB01460068FCF756BD46
:104468007FB50BAB059303930A9B02930023CDE919
:10447800003301221846FCF73FFB07B05DF804FB48
:1044880000210120FCF742BD61B662B680F31188B5
:10449800BFF36F8F704772B6002383F31188BFF3A1
:1044A8006F8FBFF34F8F30BF62B6BFF36F8F704708
:1044B800202809D9B0F1004F08D80138B0FA80F0A7
:1044C800C0F11F0040007047082070473E20704729
:1044D8007FB50BAB059303930A9B02930023CDE9A9
:1044E800003301221846FCF707FB07B05DF804FB10
:1044F80008B5D1E904319847002008BD08B5FDF793
:1045080069FB002008BD08B5062201210020FDF73F
:10451800C9FB002211460620FDF728F901210846AB
:104528000722FDF7BFFB002211460720FDF71EF901
:10453800082201210220FDF7B5FB002211460820C0
:10454800FDF714F9092201210320FDF7ABFB002236
:1045580011460920FDF70AF90A2201210420FDF776
:10456800A1FB002211460A20FDF700F905210846A3
:104578001722FDF797FB002211461720FDF7F6F8E2
:10458800282206210A20FDF78DFB0022114628204B
:10459800FDF7ECF8002008BD0B68A3F11402082A07
:1045A80082B012D803F1804303F5043348681A68CF
:1045B80002431A600B6803F1804303F504330020BB
:1045C8001B680193019B02B070476FF08500FAE702
:1045D8000B68A3F11402082A9FBF03F1804303F577
:1045E800043349681A689DBF8A4300201A606FF037
:1045F8008500704710B50A68062A25D86A23D34073
:10460800DB0721D54A68FF2A1CD0D3B203F18043C7
:1046180003F50433C2F342341868C2F3042204FADF
:1046280002F220EA02021A604968CBB203F1804321
:1046380003F50433C1F302421868C1F304218A4028
:1046480002431A60002010BD6FF08500FBE70B687D
:10465800A3F11402082A0AD803F1804303F50433AE
:104668001A684B68934314BF012002207047062B39
:104678009FBF6A20D84000F00100013088BF0120A8
:104688007047704743685B681B690B600020704780
:1046980043685B68586942400A4042405A610020BA
:1046A800704743685B6800209961704743685B689E
:1046B80000209962704743685A6853694B405361B8
:1046C8000020704710B503699868F8B1884219D17D
:1046D800DC6808689860A14200D1D86000200860B2
:1046E8002AB19A680A60DA68996002B9D96000202C
:1046F80010E0814206D108682060D8688142EDD177
:10470800DC60EBE7044600680028F2D1002AE8D113
:104718006FF0150010BDF0B5446801206768884047
:104728001E46C2F3801327EA00078B403B436360B1
:1047380090FAA0F7B7FA87F7D4F808C04FF0030E3D
:104748007F000EFA07F72CEA070C90FAA0F7B7FAE1
:1047580087F7C2F3C1137F00BB4043EA0C03A36091
:1047680090FAA0F3B3FA83F3E7685B000EFA03F359
:1047780027EA030790FAA0F3B3FA83F302F03005AF
:104788005B00C2F341229A403A43202DE26016D1E1
:1047980007292BDC90FAA0F3226A2BB3B3FA83F330
:1047A8009B000F2101FA03F322EA030290FAA0F317
:1047B800B3FA83F39B0006FA03F31343236290FAD8
:1047C800A0F3B3FA83F3226890FAA0F05B00032108
:1047D800B0FA80F02D0901FA03F3400022EA03033E
:1047E80085401D432560F0BD2B46D9E7030A616A61
:1047F80093FAA3F282B1B2FA82F292000F2793FAE7
:10480800A3F3B3FA83F307FA02F29B0021EA020248
:104818009E4016436662D2E72A46EEE713469A039D
:1048280010B518D59C070FD55A072DD55022DC0690
:104838000CD542F4007213F4002F446818D0646851
:1048480001238B40A3610DE01022F0E79C06F2D50E
:1048580042F48062EFE7DC0311D5DA0611D4C3F322
:1048680040139A0240680023FFF755FF002010BD4F
:104878005B03F7D5646801238B40A362F2E730221B
:10488800F0E74FF40072EDE76FF08500EFE770B5E1
:104898000B46896821B101255E680C68854001B91D
:1048A80070BD8A682A4002D04B68304698471CB1D0
:1048B800236821461C46F2E72346FAE7F8B51F4667
:1048C800044640680E461546FFF725FF112F08D10C
:1048D800012303FA06F663685B682A054CBF9E61EC
:1048E8009E620020F8BD30B503681360057904683E
:1048F80004EBC504A34202D36FF0010030BD5C791C
:104908008C4201D00833F0E70020F7E74163704795
:1049180081637047C163704701647047836D816527
:104928007047C16570474168036949681B68002082
:104938000131B3FBF1F3C2E9003070477FB50BAB2F
:10494800059303930A9B02930023CDE900330122C8
:104958001846FCF7D1F807B05DF804FB4368C1F3CB
:104968004B101B6801F01F01C05801238B40034204
:1049780014BF0123002313700020704710B543684B
:10498800C1F34B101A6801F01F01845801238B40B2
:1049980023438350002010BD10B54368C1F34B1466
:1049A800186801F01F01235801228A4023EA0203F4
:1049B8002350002010BD38B504460D46FFF7DEFF32
:1049C80029462046FFF7E8FF002038BD43681B68EA
:1049D800D869DA69D107DA69C0F3C00048BF40F086
:1049E80002009207DA6948BF40F004005107DA690B
:1049F80048BF40F02000D20542BF4FF4807240F01B
:104A080008001A62C10744BF08221A62820744BF1D
:104A180001221A62410744BF02221A62820644BF79
:104A280004221A6270477FB50BAB059303930A9B68
:104A380002930023CDE9003301221846FCF75CF805
:104A480007B05DF804FB10B543681B681020DA69ED
:104A58001206FCD5EFF3118280F31288BFF36F8F33
:104A6800DC69240604D482F31188BFF36F8FEEE764
:104A7800198582F31188BFF36F8F10BD43681B68D7
:104A8800DA69100744BF08221A62DA69920643BF3E
:104A98009B8C0B7000204FF0FF30704703695B68F8
:104AA8001B680B6043681B681B6803F4C063B3F59D
:104AB800806F37D0A3F5C06CDCF1000343EB0C0327
:104AC8000B7143681B685B6803F44053B3F5805F60
:104AD8002AD0B3F5405F29D0002B0CBF0123032354
:104AE8004B7143681B681A681B68D20403F4C063DF
:104AF8001ED5002B14BF032304238B7143681B6846
:104B08009B6803F44073A3F5407253425341CB7141
:104B180042681268926812F4804F18BF0323CB7161
:104B2800002070470223CBE70023D9E70223D7E709
:104B3800002B14BF02230323DFE700234FF0FF32CB
:104B4800C0E9022303804360036170470023C0E982
:104B58000033C0E90233C0E90433C0E906337047C3
:104B6800704740B1C368587810F001001EBF18782C
:104B7800B0FA80F0400970477FB50BAB05930393FB
:104B88000A9B02930023CDE9003301221846FBF764
:104B9800B3FF07B05DF804FBEFF31183102383F331
:104BA8001288BFF36F8FFEE710B5D0E9003433B930
:104BB8000020E268537843F00103537010BD20468B
:104BC80098470028F4D00028B8BF4042E368FF287F
:104BD800A8BFFF201870ECE700F01EB900F00EB96E
:104BE80008B51024EFF3118384F31288BFF36F8F95
:104BF800FFF751FCF6E700207047FEF733BDD0E918
:104C0800003213605A600023C0E90033704708B5CA
:104C1800FFF7F5FF437B23F0020343730023836010
:104C280008BD10B5EFF31184102383F31288BFF386
:104C38006F8FFEF729FC84F31188BFF36F8F10BDC7
:104C480010B50446183000F05BF8EFF3118110231B
:104C580083F31288BFF36F8F627B1A4004D081F30D
:104C68001188BFF36F8F10BD2046BDE81040FEF7D6
:104C78003FBC38B50446EFF31185102383F312883F
:104C8800BFF36F8F437B13F0280F0BD183680BB1F1
:104C9800FFF7BDFF637B51B903F0FB036373204645
:104CA800FEF7F2FB85F31188BFF36F8F38BD03F071
:104CB800EB03F3E701211838FFF7DBBFEFF31181AE
:104CC800102282F31288BFF36F8F027BD2070CD5B4
:104CD80081F31188BFF36F8F002383F31188BFF32B
:104CE8006F8F0423184602DF7047437B1B0704D5E8
:104CF80081F31188BFF36F8F70470122FEF7F8BB6D
:104D080010B5EFF31184102282F31288BFF36F8F6E
:104D180003683BB1FEF764FE002084F31188BFF3FB
:104D28006F8F10BD6FF01500F7E708B5FEF776FF37
:104D380008BDFEF773BF10B5024601448A42134608
:104D480003D01C780132002CF8D1181A10BDF0B528
:104D5800C3F137070446FFB203F01F031046082BC0
:104D6800E6B233D0102B3ED06508A40844EA81741B
:104D780045EAC1752D194FEA910242EB5102290902
:104D880041EA02716D1842EB1212290A41EA0261E6
:104D98006D1842EB1222290C41EA02416D1842EBD0
:104DA8001242AD1842F10002EC0844EA4274D108FC
:104DB80004EB8402A6EB4205EDB2092D0CD90134AF
:104DC800A5F10A0541F10001EDB212E0E40844EA58
:104DD800417406F00705C908303554EA010200F8A5
:104DE800015BBCD1F0BD240944EA017406F00F054B
:104DF8000909092D84BFED19EDB2EDE70A44914286
:104E080000F1FF3300D1704710B511F8014B03F8DA
:104E1800014F9142F9D110BD02440346934200D19B
:104E2800704703F8011BF9E7014800687047000064
:044E3800A0020020B4
:084E3C0080B3FF7F01000000BC
:104E4400D908000800000000051E0008DC4E000818
:104E5400C50800080000000000000000F04E000833
:104E6400AD1F00087C4F0008AD1F0008544F000818
:104E7400AD1F00082C4F00080F450008044F000820
:104E8400AD1F0008684F0008AD1F0008404F000820
:104E9400AD1F0008184F00080D270008A44F000894
:104EA4000D270008904F00080D270008B84F000890
:104EB4005D1F000800000000252A00080000000013
:104EC400C1420008000000003D1C00080000000072
:084ED4003D240008CC4F00084A
:104EDC002E5B000800000000240000209A00002037
:104EEC0000000000B85C0008BC540008C054000866
:104EFC00AA00002000000000105B00080000000069
:104F0C000000000098000020C00200203B5B00085D
:104F1C006C530008E45300089C0000204003002060
:104F2C00495B000880530008E45300089E000020F1
:104F3C0050030020575B000894530008E45300080A
:104F4C00A000002060030020655B0008A853000847
:104F5C00E4530008A200002070030020735B0008DB
:104F6C00BC530008E4530008A40000208003002078
:104F7C00815B0008D0530008E4530008A600002011
:104F8C0090030020545D0008D0540008B45500086C
:104F9C00AC0000204C000020645D00081C5500088B
:104FAC00B4550008AE0000205C000020745D0008C1
:104FBC0068550008B4550008B00000206C000020B3
:104FCC008F5C00084854000878540008A8000020A2
:044FDC004000002071
:104FE0000000000089440008000000008944000817
:104FF0000000000089440008000000008944000807
:1050000000000000894400080000000089440008F6
:105010000E5B0008611C00080C5B0008611C0008A6
:105020000A5B0008611C0008085B0008611C00089E
:10503000065B0008611C00080000000089440008AD
:1050400000000000894400080000000089440008B6
:1050500000000000894400080000000089440008A6
:105060000000000089440008000000008944000896
:105070000000000089440008000000008944000886
:105080000000000089440008000000008944000876
:105090000000000089440008045B0008611C00084F
:1050A0000000000089440008000000008944000856
:1050B0000000000089440008000000008944000846
:1050C0000000000089440008000000008944000836
:1050D0000000000089440008000000008944000826
:1050E0000000000089440008000000008944000816
:1050F0000000000089440008000000008944000806
:1051000000000000894400080000000089440008F5
:1051100000000000894400080000000089440008E5
:10512000025B0008611C00080000000089440008C0
:1051300000000000894400080000000089440008C5
:1051400000000000894400080000000089440008B5
:1051500000000000894400080000000089440008A5
:105160000000000089440008000000008944000895
:105170000000000089440008000000008944000885
:105180000000000089440008000000008944000875
:105190000000000089440008000000008944000865
:1051A0000000000089440008000000008944000855
:1051B0000000000089440008000000008944000845
:1051C0000000000089440008000000008944000835
:1051D0000000000089440008000000008944000825
:1051E0000000000089440008000000008944000815
:1051F0000000000089440008000000008944000805
:1052000000000000894400080000000089440008F4
:1052100000000000894400080000000089440008E4
:1052200000000000894400080000000089440008D4
:1052300000000000894400080000000089440008C4
:1052400000000000894400080000000089440008B4
:1052500000000000894400080000000089440008A4
:105260000000000089440008000000008944000894
:10527000105600080300000021560008030000003B
:105280002556000803000000B15600080300000086
:10529000A65A000803000000945E00080300000006
:1052A000935C000804000000975C00080300000005
:0852B000845D0008030000000A
:1052B8002053000808000020A05600080100000044
:1052C80018000000010000009143000800000000E1
:1052D80000000000000000000000000080560008E8
:1052E80088560008000000000000000000000000D0
:1052F8009056000894560008985600089C560008D6
:10530800105300087C020020E50E000894020020DB
:10531800D903002001000000234400080000000019
:10532800134400080744000800000000FB4300087D
:1053380000000000000000200000000000000B0634
:10534800020000005053000800000008F35A00084B
:105358002200020700000020FB5A00081E000B1163
:1053680014000020FFFF00000014004805000000A2
:105378001400000000004000FFFF0000001000487B
:10538800040000001400000000002000FFFF0000DF
:10539800000C00480300000014000000000010008A
:1053A800FFFF000000080048020000001400000091
:1053B80000000800FFFF0000000400480100000092
:1053C8001400000000000400FFFF00000000004877
:1053D800000000001400000000000200254800083A
:1053E8008D46000899460008AB460008B5460008F7
:1053F800BF460008DD1F0008CD4600080000000079
:105408007C4F0008684F0008544F0008404F0008C0
:105418002C4F0008184F0008000000000000000092
:105428000000000000000000000000000000000074
:105438000000000000000000000000000000000064
:10544800002C014010270000000000001800000098
:1054580000080000605400086854000801000000BB
:105468007054000801000000060100000000000060
:10547800D12100082F4900081549000819490008DA
:105488001D49000821490008254900082B49000842
:1054980004000000400000000004000001000000BB
:1054A80010000000000100000010000000000100D2
:1054B80000001000001002406549000885490008F6
:1054C800A1490008BF490008004C0040F04E000800
:1054D80013020000F454000801000000000000005E
:1054E8000000000000000000FC5400081C00000040
:1054F8000000080004550008010000000C550008D1
:1055080002000000450500000002000065050000DB
:105518000000000000440040F04E000811020000A6
:1055280040550008010000000000000000000000D5
:1055380000000000485500081C00000000000200A0
:1055480050550008010000005855000802000000EE
:105558004700000000020000670000000000000093
:1055680000380140F04E00088E0100008C550008FC
:105578000100000000000000000000000000000022
:105588009455000818000000004000009C550008D1
:1055980001000000A4550008020000008704000074
:1055A80000020000A704000000000000854A00086F
:1055B8004F4A0008D549000899280008A54A00085C
:1055C800455E0008535E0008675E0008765E0008C6
:1055D800825E0008444E0008444E0008BC4E000895
:1055E800C44E0008DC4E0008DC4E00080010000025
:1055F80000304F4E004F4646004C454420737461BE
:1056080074653A2025730A0063627072696E746665
:105618005F7061636B616765006C6F67006C6F67D3
:105628005F6D676D74000D0A001B5B306D0025739C
:1056380020005B2530386C755D20005B25303275A5
:105648003A253032753A253032752E253033752C8F
:10565800253033755D200025730025732F003C2508
:10566800733E200025733A20002530327820002030
:105678002020007C002563001B5B313B33316D002B
:105688001B5B313B33336D006572720077726E00BD
:10569800696E6600646267006C6F675F6261636B66
:1056A800656E645F75617274006C6F675F756172B7
:1056B800740072302F61313A2020307825303878E4
:1056C800202072312F61323A202030782530387806
:1056D800202072322F61333A2020307825303878F4
:1056E8000072332F61343A20203078253038782002
:1056F8007231322F69703A2020307825303878207E
:105708007231342F6C723A20203078253038780086
:1057180020787073723A2020307825303878004627
:1057280061756C74696E6720696E737472756374E1
:10573800696F6E20616464726573732028723135F5
:105748002F7063293A2030782530387800556E68F4
:10575800616E646C6564204952516E3A202564007C
:105768002A2A2A2A2A20425553204641554C542099
:105778002A2A2A2A2A002020537461636B696E67DB
:10578800206572726F72002020556E737461636BAE
:10579800696E67206572726F7200202050726563AF
:1057A8006973652064617461206275732065727223
:1057B8006F72002020424641522041646472657332
:1057C800733A2030782578002020496D707265631F
:1057D80069736520646174612062757320657272F3
:1057E8006F72002020496E737472756374696F6EEE
:1057F80020627573206572726F72002020466C6F8C
:105808006174696E672D706F696E74206C617A7946
:105818002073746174652070726573657276617443
:10582800696F6E206572726F72002A2A2A2A2A20EE
:105838005553414745204641554C54202A2A2A2A87
:105848002A0020204469766973696F6E2062792086
:105858007A65726F002020556E616C69676E6564A9
:10586800206D656D6F7279206163636573730020C5
:10587800204E6F20636F70726F636573736F722051
:10588800696E737472756374696F6E730020204952
:105898006C6C6567616C206C6F6164206F66204575
:1058A80058435F52455455524E20696E746F2050CC
:1058B80043002020496C6C6567616C207573652016
:1058C8006F6620746865204550535200202041744B
:1058D80074656D707420746F206578656375746580
:1058E80020756E646566696E656420696E7374728E
:1058F800756374696F6E002A2A2A2A2A204D50552A
:10590800204641554C54202A2A2A2A2A002020536E
:105918007461636B696E67206572726F72202863A9
:105928006F6E746578742061726561206D6967684F
:1059380074206265206E6F742076616C696429003A
:105948002020446174612041636365737320566944
:105958006F6C6174696F6E0020204D4D4641522076
:10596800416464726573733A20307825780020208A
:10597800496E737472756374696F6E2041636365F1
:1059880073732056696F6C6174696F6E005265732A
:10599800657276656420457863657074696F6E20FA
:1059A800280053707572696F757320696E7465721B
:1059B8007275707420284952512000535053454C39
:1059C80020696E20746872656164206D6F6465205B
:1059D800646F6573206E6F7420696E6469636174A7
:1059E8006520505350002A2A2A2A2A204841524426
:1059F800204641554C54202A2A2A2A2A002020428F
:105A08007573206661756C74206F6E20766563749B
:105A18006F72207461626C65207265616400202079
:105A28004465627567206576656E7400202046615E
:105A3800756C7420657363616C6174696F6E20287E
:105A48007365652062656C6F772900415243485F32
:105A580045584345505420776974682072656173CE
:105A68006F6E2025780A002A2A2A2A2A204465628D
:105A78007567206D6F6E69746F72206578636570E5
:105A880074696F6E202A2A2A2A2A002A2A2A2A2A90
:105A980020257320256429202A2A2A2A2A006D70A5
:105AA80075004661696C656420746F20616C6C6F69
:105AB80063617465206E6577204D50552072656767
