:020000040800F2
:10000000402C0020F11A0008F5130008DD1A000842
:10001000DD1A0008DD1A0008DD1A000800000000E3
:10002000000000000000000000000000F51B0008B8
:10003000DD1A000800000000C11B0008C1310008E3
:10004000AD1D0008AD1D0008AD1D0008AD1D000868
:10005000AD1D0008AD1D0008AD1D0008AD1D000858
:10006000AD1D0008AD1D0008AD1D0008AD1D000848
:10007000AD1D0008AD1D0008AD1D0008AD1D000838
:10008000AD1D0008AD1D0008AD1D0008AD1D000828
:10009000AD1D0008AD1D0008AD1D0008AD1D000818
:1000A000AD1D0008AD1D0008AD1D0008AD1D000808
:1000B000AD1D0008AD1D0008AD1D0008AD1D0008F8
:1000C000AD1D0008AD1D0008AD1D0008AD1D0008E8
:1000D000AD1D0008AD1D0008AD1D0008AD1D0008D8
:1000E000AD1D0008AD1D0008AD1D0008AD1D0008C8
:1000F000AD1D0008AD1D0008AD1D0008AD1D0008B8
:10010000AD1D0008AD1D0008AD1D0008AD1D0008A7
:10011000AD1D0008AD1D0008AD1D0008AD1D000897
:10012000AD1D0008AD1D0008AD1D0008AD1D000887
:10013000AD1D0008AD1D0008AD1D0008AD1D000877
:10014000AD1D0008AD1D0008AD1D0008AD1D000867
:10015000AD1D0008AD1D0008AD1D0008AD1D000857
:10016000AD1D0008AD1D0008AD1D0008AD1D000847
:10017000AD1D0008AD1D0008AD1D0008AD1D000837
:08018000AD1D0008AD1D0008D3
:1001880053B94AB9002908BF00281CBF4FF0FF31F6
:100198004FF0FF3000F00CB8ADF1080C6DE904CE5B
:1001A80000F008F8DDF804E0DDE9022304B0704748
:1001B800704700BF2DE9F04786468C460846089EE2
:1001C800154674461946002B40F0C2808542B2FAA3
:1001D80082F245D94AB1C2F1200300FA02FC2EFA94
:1001E80003F3954043EA0C0C94404FEA154EA8B22D
:1001F800BCFBFEF8230C0EFB18CC08FB00F943EA05
:100208000C43994528D9EB1808F1FF3704D29945D2
:1002180002D9A8F102072B44A3EB0903A4B2B3FB4C
:10022800FEFC0EFB1C330CFB00F044EA0344A04226
:1002380014D92C190CF1FF3304D2A04202D9ACF125
:1002480002032C44241A43EA07401EB1D440002379
:1002580034607360BDE8F0874746DDE76346F1E741
:1002680092BB431B01214FEA154EAFB2B3FBFEFC14
:10027800200C0EFB1C330CFB07F840EA034398459F
:1002880062D9EB180CF1FF3004D2984502D9ACF1D1
:1002980002002B44A3EB0803A4B2B3FBFEFC0EFB45
:1002A8001C330CFB07F744EA0344A7424ED92C1928
:1002B8000CF1FF3304D2A74202D9ACF102032C445B
:1002C800E41B43EA0040C0E7C2F1200320FA03F12F
:1002D800954090402EFA03F303434FEA154EAFB210
:1002E800B1FBFEFC0EFB1C10190C0CFB07F841EAD5
:1002F8000041884504FA02F422D969180CF1FF304C
:1003080004D2884502D9ACF102002944A1EB0801C6
:100318009BB2B1FBFEFC0EFB1C110CFB07F743EA7A
:1003280001439F420ED9EB180CF1FF3104D29F42D2
:1003380002D9ACF102012B44DB1B41EA004192E7F0
:100348006046E3E76146F7E76046A3E76346B7E739
:10035800834206D916B9002108467BE7C6E900E0C2
:10036800F9E7B3FA83F78FB9834201D3724508D806
:10037800BEEB020460EB030301209C461EB900217A
:1003880068E73846FAE7C6E9004CF8E7C7F1200CF9
:10039800BB4022FA0CF41C432EFA0CF120FA0CF3A1
:1003A800B84001434FEA14490EFA07F5B3FBF9F8D0
:1003B8001FFA84FE09FB18300B0C08FB0EFA43EAFF
:1003C80000439A4502FA07F240D9E31808F1FF30D2
:1003D80004D29A4502D9A8F102002344A3EB0A03E8
:1003E80089B2B3FBF9F809FB183308FB0EFE41EAA2
:1003F80003418E452CD9611808F1FF3304D28E458C
:1004080002D9A8F10203214443EA0040A0FB029864
:10041800A1EB0E014145CE46434602D306D14D45D8
:1004280004D2B9EB020E68EB04030138002EA6D003
:10043800B5EB0E0261EB030101FA0CFC22FA07F39B
:100448004CEA0303F940C6E9003198E74046C5E79E
:100458004346D9E7034613F8012B002AFBD1181AA3
:10046800013870472DE9F04105460E46EF880068CF
:10047800297947F4003207F03004302CD0E9013EE6
:10048800D0F810C00ED13749374A384840F2D33334
:1004980005F068F9364805F065F940F2D33132487D
:1004A80005F057F907F00604042C09D131492E4A02
:1004B8002E4840F2DA3305F055F940F2DA31EEE72A
:1004C8001B6801248C401C420CD12B49264A274822
:1004D80040F2ED3305F046F9284805F043F940F2BB
:1004E800ED31DCE7DCF80030FF074CBF2343A343C2
:1004F800CCF80030DEF80030984726EAE6710A208A
:1005080081FB007400264FF00108286829794268A9
:10051800D0F810C0126808FA01F1114206F0010380
:100528000CD11549104A11484FF4CB6305F01AF95C
:10053800124805F017F94FF4CB61B0E7DCF800205A
:10054800114218BF83F0010343B18368DB68984701
:100558003846214604F0DEF90136D6E783681B6980
:10056800F5E700BF3B6A00080A6A0008746A0008D9
:10057800916A0008CE6A0008016B00083F6B00080A
:1005880008B5024800226421FFF76CFFD86600080E
:1005980008B5034801224FF47A71FFF763FF00BFE3
:1005A800CC66000808B5034802224FF4FA71FFF739
:1005B80059FF00BFC0660008B2F5802F2DE9F04151
:1005C8000ED33C493C4A3D4840F2EB1305F0CAF8CB
:1005D8003B4805F0C7F840F2EB11374805F0B9F889
:1005E800042A0CD83749344A34484FF4F97305F0D3
:1005F800B9F8354805F0B6F84FF4F971EDE7043A63
:10060800CD1D8E1825F0070526F00706761B172E38
:100618004FEAD6070CD82D49274A284840F2FB1341
:1006280005F0A0F8284805F09DF840F2FB11D4E742
:10063800B7FA87F4C4F12002C4F12404A4000734F3
:10064800E408631C4FF00008BB420560AF60C5F8C2
:100658000C800CD91E49184A18484FF4037305F04A
:1006680081F8194805F07EF84FF40371B5E7414663
:10067800920005F1100005F079FD630043F00103D5
:100688006B8005EBC4023B1B5900A5F80080518024
:10069800AA1925F83440A2F80280AB5305EBC7032A
:1006A80021465A8842F001025A802846BDE8F041A6
:1006B80004F0E6BF3D6C00086F6B0008746A000820
:1006C800536C00086A6C00088B6C0008A46C000866
:1006D800CD6C00082DE9F04F91B08407009302F02B
:1006E80004030293C2F3C20303F10103DDF8688037
:1006F800039205460E46059340F0F581041D30B17E
:10070800072909D86FF01B0011B0BDE8F08F01F080
:100718000706341DC6F10806009B4FF00009013B8F
:100728004FF0040B0193CDF810904F464B464FF015
:10073800FF32DA460DB1009921600598002800F3D0
:10074800D78098480099814203D397488142C0F0E6
:10075800CF800399A4EB050E89074FEA9E0040F16C
:10076800E2804FF0000CCCE07A285AD84B280CD8FD
:10077800472856D829282AD8252851D051D82028A2
:1007880077D023384342434173E04C382E2848D869
:10079800DFE800F06F47474747474747474747471E
:1007A8004947474747474747475947494959595983
:1007B8006F496C476F471849184747807D49474735
:1007C80049477D00002000234FF0040B39E02A3808
:1007D800C0B2012101FA00F010EA0E0F49D110F061
:1007E800625C30D110EA010343D06046013C5C44AE
:1007F800B4FBFBF40BFB04F4002D60D0AAEB050C52
:10080800A444B4453FF67EAF00286AD1BAF1040F7C
:1008180045D158F8040B206004344FF0040A28E04E
:10082800013A002325E0019B13F8013C6C2B33D1DE
:10083800019B13F8023C00206C2B0346C4D14FF0F7
:10084800080BDA46D2E708F1070828F0070807344A
:10085800F8E802AB24F0070435B106982044B0420A
:100868003FF650AFC4E900AB083400234FF0080B43
:10087800DA46019911F8010F0191002800F0BB80B8
:10088800002B7FF471AF2528F3D1013201234FF0FB
:10089800040BEDE7184696E700200346A6E7BAF1F1
:1008A800080F40F09A8008F1070828F00708F8E8D0
:1008B8000201C4E9000108344FF0080AD9E780B9F9
:1008C800BAF1040F02D108F10408A5E7BAF1080F3C
:1008D80040F0838008F1070828F0070808F10808A5
:1008E800E9E705990139059158F8041B009121E7BA
:1008F800039988074AD5A4EB050E4FEA9E004FF0EE
:10090800010CBEF5007F1ED32849294A294840F228
:100918007B2304F027FF284804F024FF40F27B21C2
:10092800234804F016FF0F2F0FD8002D48D007F1E9
:1009380040010DEB010C0CF8200C0CF8102C04985D
:100948000130049021E00F2F0CD91849184A194892
:100958004FF4207304F006FF184804F003FF4FF427
:100968002071DDE7CDB107F140010DEB010EC0B2FA
:100978000EF8200C0EF8102CBCF1000FDFD060F040
:100988007F000EF8200C09F101090137C5F10801B3
:10099800043406914FF6DA7E6BE7BCF1000F0FD0F6
:1009A8000136F2E798610008E4830008FF6A00084E
:1009B800F86C0008746A0008266D0008476D000886
:1009C800029802360028E0D10098CDE90632FFF7F8
:1009D80041FDDDE906320644D7E7444A4449454823
:1009E80040F2C52304F0BEFE5146434804F0BAFE67
:1009F80040F2C52194E7631BB3F5806F0CD33C49E3
:100A08003A4A3C4840F2D12304F0ACFE3B4804F09B
:100A1800A9FE40F2D12183E71DB9A6F10804E01828
:100A280072E6029A28609B082B709DF81030C2B1BC
:100A3800EB7085F80290B9F1000F05D008A80022E4
:100A4800C5F1010C97420ED1C5F101030DF1200843
:100A58004FF0000A01930DF1300B574512D1601B7E
:100A680052E66B70E5E710F8013B190608D504EB70
:100A78000C0EB64503F07F033FF644AE04F8013B85
:100A88000132DFE7B9F1000F03D098F90020002AFE
:100A980017DB029BD3B11AF80B2004F8012B0022B4
:100AA800019B98182044B0423FF62CAE98F80000FD
:100AB80004F8010B00990392204605F049FB039ABC
:100AC80014440AF1010A08F10108C6E798F8002061
:100AD80055F822300093029B45F822300098FFF722
:100AE800B9FC421CDCE76FF00D000DE6F86C00085D
:100AF800FF6A0008746A0008616D0008766D0008D6
:100B0800014B1860704700BF0000002080B5054603
:100B18000E461746984603F035FF034605F02EFBB0
:100B2800DFF81890044649F8003042463046394606
:100B3800A84754F8090000F0EDFF00BF08000000C6
:100B4800034A536823F0020353600020704700BF34
:100B5800002004E0044B054A1A60054A536843F034
:100B680001035360002070477C00002000127A00C7
:100B7800002004E02DE9F84FDFF8F8A03E4FAAEB7B
:100B880007038F2B814688460BD93C493C4A3D4890
:100B980040F23F1304F0E6FD40F23F11384804F0FC
:100BA800D8FD394804F0F6FD0646002834D13C4605
:100BB80005464FF0010B544527D93449304A31488E
:100BC8004FF4A67304F0CEFD314804F0CBFD4FF48A
:100BD800A671E3E7237B6BB12368DB680BB1204682
:100BE800984723681B6943B963680422196820463B
:100BF80000F00AF901361034DDE72046984700284E
:100C0800F2D00BFA06F31D43F4E7E3D3B9F1000F72
:100C180002D04FF0010A0DB9BDE8F88FA94695FA40
:100C2800A5F4B4FA84F40AFA04F3260107EB0414D1
:100C38006FEA030B25EA0305237B5BB1BB591B69EC
:100C48009BB93E44042273682046196809EA0B09D7
:100C580000F0DAF8002DE2D1B8F1000F03D06420DB
:100C6800002103F057FE4D46D5E720469847002857
:100C7800F0D1E6E7B8660008A8660008CB6D000862
:100C88009E6D0008746A000808040020FB6D0008C7
:100C98001C6E0008014B53F820007047E4660008FA
:100CA80008B5034608462BB1044A136000F0F0FA71
:100CB800002008BD6FF01500FBE700BF040000200E
:100CC800054A064800231370054A1360054A4FF485
:100CD8007A711360FFF7E4BF7C0500208D57000888
:100CE800000400200404002070B5134D297809BBC6
:100CF8000120FFF73FFF114C114EB44217D911499B
:100D0800114A12484FF4DC7304F02CFD104804F02B
:100D180029FD0D484FF4DC7104F01BFD63685B7915
:100D28001BB1236820469B6898471034E5E7F5D344
:100D380001232B7070BD00BF7C050020A866000849
:100D4800B8660008FB6D00089E6D0008746A00080C
:100D58001C6E000810B50446084804F01BFD5CB181
:100D6800BFF35B8F064B53E8001F013943E80012BD
:100D7800002AF8D1BFF35B8F10BD00BF000400202C
:100D88000404002070B5124B124C1B68124E054625
:100D98009847A860B44218D91049114A114840F23E
:100DA800F31304F0DFFC104804F0DCFC0C4840F2BC
:100DB800F31104F0CEFC63685B7923B123682946FC
:100DC8001B68204698471034E4E7F4D370BD00BF91
:100DD80004000020A8660008B8660008FB6D00083B
:100DE8009E6D0008746A00081C6E0008044A054BD2
:100DF8009B1AB1EBD30F34BF52F831000020704773
:100E080060660008A86600080E4BC31A1B11013360
:100E180010B5DBB248B90C490C480D4ADF2304F081
:100E2800A1FC0B48DF2104F094FC4468237143685B
:100E38009A7143681960436801225A71BDE81040ED
:100E480004F0CABCA8660008BF6E0008746A0008EF
:100E5800876E00082DE9F04F85B002AFD7E90EA9DB
:100E68003D6B04460E4693469846BAF1000F17D0DC
:100E7800C7F80490CDF8009010217A6B53460020F3
:100E8800FFF728FC011E0CDA2049214A214840F2CC
:100E9800631304F067FC40F263111D4804F059FC29
:100EA80051461D4A04F007040BF0070BE40044EA1E
:100EB8008B1402EA4122144344EA055417350D44C1
:100EC80025F00705ADEB050D02ADBAF1000F13D003
:100ED800CDF800907A6B534605F11000FFF7FAFB46
:100EE800002809DA09490A4A0A4840F27D1304F041
:100EF80039FC40F27D11D0E7434622463146284668
:100F080004F06DFC0C37BD46BDE8F08F0B6F000890
:100F1800DF6E0008746A000800FE0F00406820B108
:100F2800034BC01A40F3CF0070474FF0FF307047B3
:100F3800606600080EB403B503AB014653F8042BF2
:100F48000448019301F064F902B05DF804EB03B0C2
:100F5800704700BF19580008CA0605D48B064CBF55
:100F680002490349FFF7E6BF704700BFBA7F000890
:100F7800156F00082DE9F04F89B09B46149B069326
:100F88009DF84CA0159B0593169B179E0493044649
:100F98000D469046BAF1000F00F0AD80BAF1040F8B
:100FA8000BD9A349A34AA44840F2622304F0DAFB10
:100FB80040F262219F4804F0CCFB06F4807307934B
:100FC80004F00BFC06F00209024600283FD09B49BA
:100FD8002046FFF7AFFF0746B9F1000F08D016F01B
:100FE800440F36D196492A462046FFF7A3FF074407
:100FF80006F0010353B1934B934953F82A20934BBE
:101008002046002A08BF1A46FFF794FF06F48073AB
:10101800002B4AD006F00803002B64D1B8F1000F6A
:1010280067D08B4942462046FFF784FF0546069B5A
:101038003D44002B6ED1049B002B40F08380F307C6
:1010480000F1F08031462046FFF786FFE4E00746CE
:10105800C2E7804B18680028C9D07F4B4FF47A79D3
:101068001B68B5FBF3F54FF46161B5FBF0F300FBCA
:10107800135509FB05F54FF03C0CB3FBF1F201FBEE
:101088001231B5FBF0FEB1FBFCF300FB1E550CFB67
:10109800131109FB05F50091B5FBF0F56F49CDE992
:1010A80001E52046FFF746FFA1E706F00803EBB18C
:1010B8006B4B6C4953F82A202046FFF73BFF054647
:1010C800B8F1000F05D0624942462046FFF732FFCB
:1010D8000544BBF1000FAAD063495A462046FFF7E2
:1010E80029FF0544A3E74FF0000BE1E706F00805E8
:1010F800E6E745469BE7BBF1010F069B06D1DBB946
:10110800049B002B00F0888000251BE0002BF7D003
:10111800564812E05648069B5649224604F0D7FA2C
:1011280000280CDA5449434A43484FF42F7304F01B
:1011380019FB4FF42F713DE74D485546EBE7049BEB
:10114800002B65D0DFF83481DFF83491049F3146F5
:10115800102F204628BF1027FFF7FEFE4FF0000B88
:101168005D4542DC059B49461A782046FFF7E2FEBA
:101178004FF0010B1BF0070F03D141462046FFF744
:10118800D9FE5F4538D9059B494613F80B20204600
:10119800FFF7D0FE0BF1010BBBF1100FEAD1394973
:1011A80020464FF0000BFFF7C5FE5A46059B9A5C98
:1011B800A2F120015F2928BF2E2233492046FFF7DC
:1011C800B9FE0BF1010BBBF1100F1AD01BF0070F82
:1011D80003D141462046FFF7ADFE5F455A46E5D8A4
:1011E80041462046FFF7A6FEEBE741462046FFF7BB
:1011F800A1FE0BF1010BB3E724492046FFF79AFE45
:10120800C8E7059B3B440593049BDB1B04939DD1D6
:10121800BAF1000F7FF413AF204609B0BDE8F04FD4
:1012280004F020BB094A08492046FFF783FE09E776
:101238004C6F00081D6F0008746A0008586F00089A
:101248005C6F0008F4660008816F0008186F0008DA
:10125800846F0008100400200C040020656F00084B
:1012680008670008886F00088E6F00083558000866
:101278001958000819220008936F0008A46F000885
:101288009C6F0008A66F0008A86F0008A26F0008EE
:10129800074A00210123904206D8064A01B90123D2
:1012A8001360054B1860704740085B000121F2E7A6
:1012B80040420F000C04002010040020F8B5074F2E
:1012C8000D4604464618B44201D12846F8BD14F824
:1012D800011BBB6801485B689847F4E71463000882
:1012E80010B543681C68094804F06FFE48B90849FE
:1012F8000848094A992304F035FA0748992104F067
:1013080028FA23685B685C6010BD00BF146300089E
:1013180009700008746A0008CB6F0008014B03606D
:10132800002070475067000870B5064686B00D4625
:10133800002938D08B6805934B6804930B68039396
:101348000024244B24490293012223462046CDE958
:10135800004404F0E6FA6B6905932B690493EB6883
:1013680003931E4B1C490094CDE9014301222346F7
:10137800204604F0D6FAEB690393194B16490094FA
:10138800CDE9014301222346204604F0CAFAAB699D
:101398000393144B10490094CDE9014301222346DD
:1013A800204604F0BEFA012E0DD1EFF30583103B61
:1013B80003930D4B02930023CDE9003306493246CF
:1013C800184604F0AEFA2946304606B0BDE870402B
:1013D80002F088BA3D700008886600086C70000842
:1013E8009B700008AA700008D870000808B5034B65
:1013F8001B689847BDE8084000F026B81000002098
:1014080030BFFFF7FDBF00BF2DE9F0410B4EDFF8FD
:10141800308006EB0807CC1B0546324609492046B2
:1014280004F096FEA01942460021083C04F09EFEF6
:101438002C6707F10800BDE8F08100BF000000003C
:1014480004000000B8660008074A936893F90E1074
:10145800002907DB526993421FBF044A536843F0CF
:1014680080535360704700BF4405002000ED00E042
:10147800F0B585B00024434B0293CDE900442346E0
:1014880007460E4601224049204604F05EFA3F4BCB
:101498009B6ADB0465D53E4B3B490094CDE901438B
:1014A80020462346012204F050FA1720374B9B6A46
:1014B8001D050AD5374B029300231846CDE90033A2
:1014C8003149012204F041FA1820304DAB6A9C05DD
:1014D8001FD50024304B0293012223462046CDE934
:1014E8000044294904F031FAAB6BAA6A10040FD5FD
:1014F80003932A4B24490094CDE901430122234652
:10150800204604F022FA1FB1AB6A23F40043AB6211
:1015180019201E4B9B6A59050AD5214B02930023BB
:101528001846CDE900331849012204F00EFA1A20B2
:10153800164A936A13F4807315D01A4B029300234A
:101548001846CDE900331049012204F0FEF91B20AA
:101558000E4A936A43F47F4393620023337005B0C5
:10156800F0BD1620A2E7926A9204F1D50E4A064908
:101578000093CDE901321846012204F0E6F91C2057
:10158800E6E700BFEB7000088866000800ED00E0A1
:101598000171000812710008257100083E710008E9
:1015A800537100086E710008867100081FB5002489
:1015B800374B029301222346CDE9004435492046A2
:1015C80004F0C3F9344B9B6A9A015ED5334B314919
:1015D8000094CDE9014320462346012204F0B5F9E1
:1015E8001E202D4B9B6ADB010AD52D4B029300234D
:1015F8001846CDE900332749012204F0A6F91F2037
:10160800254B9B6A1C030AD5264B029300231846D8
:10161800CDE900331F49012204F097F921201E4B20
:101628009B6A59030AD5204B029300231846CDE93B
:1016380000331849012204F088F92220164B9B6ACE
:101648009A030AD5194B029300231846CDE90033B3
:101658001049012204F079F923200F4B9B6ADB0320
:101668000AD5134B029300231846CDE900330949E4
:10167800012204F06AF92420074A936A6FEA0343B7
:101688006FEA1343936204B010BD1D20A9E700BFA1
:10169800B57100088866000800ED00E0CD7100080B
:1016A800E0710008FA710008187200083D7200081D
:1016B800577200082DE9F04385B00024564B029379
:1016C800CDE90044234680468946204653491646BC
:1016D800012204F03AF9524B9B6AD80640D5514B87
:1016E8000094CDE90143204623464C49012204F0E9
:1016F8002CF911244A4B9B6A19070AD54A4B0293C5
:101708000023CDE9003345490122184604F01DF9AC
:101718001224434DAB6A9A0724D50024434B029305
:10172800CDE9004423463D490122204604F00DF945
:101738006F6BAB6A1B0659D53D4B38490397CDE90A
:101748000143009423460122204604F0FEF8B9F133
:10175800000F03D0AB6A23F08003AB62132403E0CD
:101768001024C7E76FF015072D4B9B6AD8070AD5D9
:10177800304B02930023CDE9003328490122184653
:1017880004F0E3F81424264B9B6A99060AD52A4BE1
:1017980002930023CDE9003320490122184604F0C2
:1017A800D4F815241E4DAB6ADA0602D4AB6A9B073F
:1017B8000AD56B68180507D54146384600F0A8FADF
:1017C800B8B180F309880224154B9A6A920642BF81
:1017D8005A6A22F400525A629A6A42F0FF029A62E6
:1017E80020460023337005B0BDE8F0836FF015077D
:1017F800B4E7AB6AD906E7D51049114A114840F257
:101808005D1303F0AFFF104803F0ACFF0C4840F243
:101818005D1103F09EFF00BF827200088866000811
:1018280000ED00E09872000812710008CB72000801
:10183800E3720008F9720008867100084A7300080C
:1018480018730008746A0008947300082DE9F041C1
:10185800894B0446586890B0C0F30806002383F308
:101868001188BFF36F8F02F07F45B5F17F4F0CD120
:1018780002F00C05082D17D1804A81490093CDE963
:1018880001321846012204F060F87E497E4A7F48FA
:101898004FF48B6303F066FF7D4803F063FF4FF45A
:1018A8008B61794803F055FF120746BF0C461D4669
:1018B8000125002CE9D04FF00008F31E8DF81F8099
:1018C800092B00F2BF80DFE803F005B3B796BDBD72
:1018D800BDBDBDBB6F4B6A49674FCDF80080CDE9F0
:1018E800018300230122184604F02FF88DF81F8089
:1018F800FE6A16F0020605D0674BCDF80080CDE9E8
:10190800018306E0FB6A002B0BDA644B0096CDE9F5
:10191800016300235A490122184604F016F80022F0
:1019280030E0FB6A5B0076D55D4B55490096CDE902
:10193800016301223346304604F007F87B69A26947
:1019480043F480737B61BFF34F8FBFF36F8F7B6965
:1019580032F8022C23F480737B61BFF34F8FBFF3FF
:101968006F8F4DF602739A422CD1236803934D4B27
:1019780043490096CDE9016301223346304603F01E
:10198800E4FF22689DF81F30CBB908AE04F12007A8
:1019980020686168334603C30834BC421E46F7D149
:1019A8000F9B002D62D0C3F3080121B96FEA5323BE
:1019B8006FEA43230F9308A91046FFF7B5FC10B050
:1019C800BDE8F081BB6ADBB23BB10DF11F0201211A
:1019D8002046FFF76FFE0246D4E7BB6A13F47F4F39
:1019E80005D00DF11F010120FFF742FDF3E7BB6AA7
:1019F800B3F5803F02D3FFF7D9FDECE72A49224A25
:101A0800224840F22A3303F0ADFE284803F0AAFE2C
:101A180040F22A3145E724491B4A1C4840F22E333C
:101A280003F0A0FE224803F09DFE40F22E3138E775
:101A38000DF11F020021CBE70DF11F010020D3E7B4
:101A48001C4B5AE71C4A1D4B0D4910F4F87F18BF70
:101A58001346103ECDE90336194B02930023CDE916
:101A680000330122184603F070FF58E723F4FF7390
:101A780023F001039EE700BF00ED00E0E5730008D6
:101A8800886600081074000818730008746A000853
:101A980023740008617400087874000899740008B9
:101AA800A7740008C6740008FF6A0008E2740008FA
:101AB8000675000836750008CC730008B77300086F
:101AC8005A750008024A536943F01003536170477E
:101AD80000ED00E0EFF30880EFF3098101B57246ED
:101AE800FFF7B4FE01BD00BF102080F3118808483D
:101AF8004FF40461401880F30988EFF31480022141
:101B0800084380F31488BFF36F8F00F0C1F800001A
:101B1800801E0020084B9B6883420BD1EFF305839E
:101B280043B1064B5A6842F080525A605A6A22F40E
:101B380000425A6202F02CBF4405002000ED00E08C
:101B4800094A93686FF00A019967084958674B6812
:101B580043F080534B60002383F31188BFF36F8FEA
:101B68009368986F704700BF4405002000ED00E0BF
:101B780010B50446EFF31183102383F31288BFF3E3
:101B88006F8F0A4B58699860094B4FF000625A6092
:101B9800084B026F1A600022436F426783F3118873
:101BA800BFF36F8F00F01CF9204610BD44050020DC
:101BB80000ED00E0380400200B498A684FF030003F
:101BC8001044EFF3098C80E8F01F74467046FFF765
:101BD800CFFFA64604498A6802F1300090E8F01F5A
:101BE8008CF3098870470000440500201EF0040F9C
:101BF8000CBFEFF30880EFF30980816911F8021C2C
:101C08000229FFD001B503F09CFE01BD40B20028B7
:101C180007DB044A4109012300F01F00834042F812
:101C28002130704700E100E038B54B1C0F2B04460B
:101C38000D460FD9114A12491248582303F092FD54
:101C4800114829460F23224603F08CFD0B485821E2
:101C580003F07FFD40B20028ACBF00F160400B4AA2
:101C68004FEA0313B8BF00F00F00DBB2AABF00F5BC
:101C78006140135480F8003338BD00BF6D7500080B
:101C8800A4750008746A0008BF75000814ED00E028
:101C98000F4A08B50F4B22F07F029A60BFF34F8FAF
:101CA800BFF36F8FD3F8882022F47002C3F888201E
:101CB800EFF3148323F0040383F31488BFF36F8FC7
:101CC80001F028FF02F0D6FF00F060F801F066FF8F
:101CD8000000000800ED00E042F8203C009B42F8BC
:101CE8001C3C0A49019B42F8183C029B42F8143CF0
:101CF80021F001014FF0807342F8043C42F8081CBF
:101D08000023203A02654367704700BF150B00089F
:101D1800094A0346906870B113F1160F006E05D09A
:101D2800A0F140029A4205D8834203D2814228BFDB
:101D380000207047002070474405002008B515466C
:101D48000B4A0C4B9060026F1A600E4600F048F880
:101D58002C4686F309884FF00000074B9847204629
:101D68004FF000014FF000024FF00003034C2047F2
:101D780044050020380400207B590008150B000892
:101D8800014B10221A61704700ED00E0044800235F
:101D98001021C2180133522B82F80013F9D1704771
:101DA80000E100E008B5EFF30583064A103B02EBBB
:101DB800C30152F8330049688847BDE80840FFF777
:101DC80043BB00BF3C630008024B034A03480121A0
:101DD80000F096B800A0002000000020506700081E
:101DE800026E054B403A1A60044A4021C3E90112C9
:101DF8001846012100F0AAB83C04002000000B1589
:101E08001FB5144AD2F89030C3F30723013B984218
:101E18000FD9114B029300230390CDE900331846E4
:101E28000E49012203F0C9FD6FF0150005B05DF8F9
:101E380004FBC2F898000B6823F01F03034343F028
:101E48001003C2F89C308B6843F00103C2F8A0303D
:101E5800ECE700BF00ED00E00376000880660008AC
:101E6800F0B50E4689B01F4604460025B54212DA81
:101E7800606838B3BFB1431E18420FD0134B0293AA
:101E88000023CDE90033124903950122184603F0D7
:101E980094FD6FF01502104609B0F0BD1F28EDD96A
:101EA80021680B42EAD12368059303F076FDA36805
:101EB80005A90343D0B20793FFF7A2FF10F1160F4D
:101EC800E7D0421C01350C34D0E700BF2976000862
:101ED80080660008044B0522C3F89420BFF34F8F97
:101EE800BFF36F8F704700BF00ED00E0BFF35F8F57
:101EF800024B0022C3F89420704700BF00ED00E0B9
:101F080038B50D4D01232A780C46FFF7A9FF287034
:101F180016300FD1094A0A490A4840F2671303F0FC
:101F280021FC0948214603F01DFC044840F26711D2
:101F380003F00FFC38BD00BF7E0500204C7600087A
:101F4800FF6A0008746A00087B76000810B5144A16
:101F5800002312780C46FFF783FF10F1160F08D004
:101F6800104A0021D2F89030C3F30723984210DBBF
:101F780010BD0D4A0D490E484FF4C37303F0F2FB30
:101F88000C48214603F0EEFB07484FF4C37103F0F9
:101F9800E0FBC2F89800C2F8A0100130E2E700BFE9
:101FA8007E05002000ED00E04C760008FF6A00087E
:101FB800746A0008A77600082DE9F04F7B4C7C492D
:101FC800D4F890300D68C3F307239D4285B013D928
:101FD800784A794979484FF4CF7303F0C3FBD4F8B2
:101FE800902077482946C2F3072203F0BBFB4FF441
:101FF800CF71704803F0ADFBFFF778FF4968002206
:10200800954201F10C012DD16E4C6F4F2570684639
:10201800FFF784F9DFF8B481DFF8B49106460025AC
:10202800AE4232D1237861490020D1F89020C2F322
:1020380007229342C0F2AF80FFF74CFFD1F89030EF
:10204800C3F30723082B00F0AC806249594A5B4868
:1020580040F20E2303F086FB5F4803F083FB40F257
:102068000E21C6E7C4F8982051F80C3C23F01F0352
:10207800134343F01003C4F89C3051F8043C43F078
:102088000103C4F8A0300132BAE7009A02EB051345
:102098002901D3F80CA00AEA0700B0F5000F60D0B8
:1020A8000AD8B0F5001F38D0B0F5800F4ED0B0F583
:1020B800801F12D00135B3E7B0F1807F5CD0B0F15A
:1020C800007FF7D19868D3F804A0525803F065FC54
:1020D800CDE901A240F480200BE09868D3F804A071
:1020E800525803F05AFCCDE901A240F0885040F460
:1020F80030200390207801A9FFF782FE002846DAF5
:102108002D492C4A2D484FF4E47303F02BFB334838
:1021180003F028FB4FF4E4716BE79868D3F804B038
:10212800525803F03AFC1AF0010F40EA0800CDE9D2
:1021380001B20390DED02A491E4A20486C2303F0DE
:1021480011FB284803F00EFB6C2152E79868D3F87E
:1021580004A0525803F021FCCDE901A240EA09008D
:10216800C7E79868D3F804A0525803F016FCCDE9E5
:1021780001A240F08270BCE79868D3F804A05258D6
:1021880003F00BFCCDE901A240F08870B1E7237899
:10219800013323708EE7C1F89830C1F8A0000133ED
:1021A80043E7002005B0BDE8F08F00BF00ED00E078
:1021B8005C6700084C760008FF6A0008746A00082B
:1021C800D47600087E0500200000F0FF000008110A
:1021D8000000020787770008D77700085D770008B6
:1021E800087700082E77000808B5024B1B68984747
:1021F800002008BD48040020034B044A1860937867
:1022080043F0020393707047480400201400002034
:10221800F0B587B007460E461446002110226846DE
:102228001D4603F0A3FF02238DF802302A46054B12
:10223800019321466846CDE9047602F0BFFF07B056
:10224800F0BD00BFE359000808B50649064821F06B
:102258000701C1F1005202F52042FEF7ADF9002056
:1022680008BD00BF872D00204C0400202DE9F04157
:102278000F4E104F054600244FF001082B7853FAF3
:1022880084F01F280DDC726908FA00F333EA0202B1
:1022980007D1736157F830301BB107EBC0025168A2
:1022A80098476A780134E3B29A42E7D2BDE8F081F0
:1022B8000004014058040020044B18440023013353
:1022C800994200F8012BFADC704700BF8800002013
:1022D80010B4064B064902460C6818560123934071
:1022E80023430B6010BCFFF791BC00BF880000209F
:1022F800000401401F2806DC034901220B688240C4
:1023080023EA02030B6070470004014003292AD81E
:10231800DFE801F0020E141F134B01229968824076
:1023280021EA02019960D96821EA0202DA6070475D
:102338000D4B0122996882401143F3E70A4B0122B1
:10234800D96882401143D960996821EA02029A60EB
:102358007047012303FA00F0034B9A6802439A601E
:10236800DA681043D86070470004014030B50A4B62
:1023780053F830408C4204D103EBC0056D68954298
:1023880005D034B943F8301003EBC0035A6000207D
:1023980030BD6FF00F00FBE758040020034B00220C
:1023A80043F8302003EBC0035A60704758040020FC
:1023B80010B5164B18680B68052B144610D0062B61
:1023C80008D86BB1013B052B0AD8DFE803F00D0CE8
:1023D800180C0912182B07D01C2B08D0142B03D06B
:1023E8006FF0850002E000202060002010BD40084A
:1023F800FAE700F099F828B100F096F8F4E749F602
:102408004040F1E76FF00400F0E700BF7C000020D7
:10241800F8B53A4F3A4C00F097F8384603F0A6FB67
:1024280000F0F8FF6368374AC3F303131578D35CE9
:1024380047FA05F520FA03F6AE4202D2284601F023
:10244800F3F9236843F480232360236843F480333B
:10245800236023689B03FCD5636A43F0010363622E
:10246800636A9807FCD5636803F00C03082B15D141
:102478002368990706D4236843F00103236023687F
:102488009A07FCD5636823F003036360636813F05D
:102498000C0FFBD1636823F0F0036360236823F01B
:1024A8008073236000F032F8236843F08073236060
:1024B80023689B01FCD5636823F0F00363606368BD
:1024C80023F0030343F002036360636803F00C0323
:1024D800082BFAD1AE4202D3284601F0A5F90A4BDF
:1024E8001F60636823F4E06343F480636360636898
:1024F80023F4605363600020F8BD00BF00A24A04C3
:1025080000100240447C00087C000020054A536803
:1025180023F4741343F4E8135360D36A23F00F03CE
:10252800D3627047001002404FF4E0134FF470126A
:1025380092FAA2F2B2FA82F2D34002480233584326
:10254800704700BF00127A00064BDA6942F08052E9
:10255800DA61DB6982B003F080530193019B02B01A
:10256800704700BF0010024008B5074803F02DFD72
:1025780038B10648FFF740FE0448FEF7C1FA0020CC
:1025880008BD6FF01200FBE71463000899250008E6
:102598000A2838B5074D044604D1AB680D215B689D
:1025A80028469847AB6803485B68E1B298472046DD
:1025B80038BD00BF1463000810B5036961B920492C
:1025C800204A21483A2303F0CDF8204803F0CAF8FE
:1025D8003A211C4803F0BDF8486850B91C49194A0B
:1025E80019483B2303F0BEF81A4803F0BBF83B2117
:1025F800EFE79868F8B1884219D1DC6808689860F4
:10260800A14200D1D860002008602AB19A680A6007
:10261800DA68996002B9D960002010E0814206D1D9
:1026280008682060D8688142EDD1DC60EBE7044699
:1026380000680028F2D1002AE8D16FF0150010BD1B
:102648007C78000840780008746A000885780008DB
:1026580094780008A678000838B5036904465860DD
:10266800084D284603F0B1FC40B16168AB680C31F5
:102678001B682846984700EAE07038BD6FF01200E2
:10268800FBE700BF3862000870B5D1E9016119B1F4
:1026980001250C68854001B970BD8A682A4010D0B0
:1026A8004B6863B90A490B4A0B485D2303F05AF893
:1026B8000A4803F057F807485D2103F04AF8304606
:1026C80098471CB1236821461C46E4E72346FAE7ED
:1026D800BD78000840780008746A0008A6780008E9
:1026E800F7B50C461146B1F5001F476802691D464B
:1026F80025D104F00302043292000F23934043EAE9
:10270800940303F003023549023251F82220190CD0
:1027180002EA134391FAA1F2B2FA82F2D340BA68FC
:102728009A4209D12046FFF7E5FD2046FFF736FE1D
:1027380000212046FFF7EAFD002003B0F0BDB1F507
:10274800800F42D026492046FFF710FE00283FD1CF
:10275800B5F1806F35D0B5F1C06F34D0B5F1007FD9
:1027680039D102261F4ABD6892E803006B4683E808
:1027780003001D488268194612689047C8B904F0DA
:10278800030304339B000F229A4042EA940202F0AA
:1027980003039B0003F1804303F58033110C986811
:1027A80020EA124091FAA1F2B2FA82F2954005436A
:1027B8009D6020463146FFF7A9FD2046FFF788FDBA
:1027C800BAE70126CEE70326CCE76FF08500B4E729
:1027D8006FF00F00B1E76FF01500AEE700000140A1
:1027E80091260008B8660008386200082DE9F0470D
:1027F800264F044600EBC1060025B44201D1002053
:1028080014E02068C30600F01F0811D4656845F07D
:102818002005C0F3481AC0F344200F2832D857F8CF
:102828002090B9F1000F1CD16FF01200BDE8F087BD
:10283800B8F1100F13D0B8F1110F01D16568E8E7AE
:10284800B8F1000FE5D112491248134A4FF48873C2
:1028580002F088FF10484FF4887102F07AFF3025A3
:10286800D7E7484603F0B1FB0028DDD043462A46A7
:102878000AF00F01484603F056FA002804F108044C
:10288800BBDAD3E76FF01500D0E700BF186800087F
:1028980050790008746A00081D790008B1F5807F36
:1028A80022D016D8102921D00FD8012920D00429E8
:1028B80008BF012318BF08231049026AC85C022315
:1028C8008340134023FA00F07047402908BF0323D0
:1028D800F0E7B1F5805F0DD0B1F5803F0CD0B1F5D0
:1028E800806F08BF0523E5E70423E5E70223E3E754
:1028F8000023E1E70623DFE70723DDE7767A000810
:102908002DE9F04701F1FF3C8CB0BCF1050FBDF893
:1029180050704468164698460FD98A4B0391029323
:1029280000231846CDE900338749012203F03BFA1A
:102938006FF015000CB0BDE8F0872268B2F1804F47
:1029480003D0B6F5803F00F2FA80804B032953F894
:102958002C5007F4807A0BD9BAF1000F11D1284610
:10296800D146AEB9136A23EA000313620020E1E7F7
:10297800774B53F82C90BAF1000F05D0B9F1000F3E
:1029880004D1744B0391CAE72846EAE74846E8E7CA
:10299800A36863BB013E136A07F0010730EA03032B
:1029A8004FEA470744D1B0F5807F00F0BE8032D8A7
:1029B800102800F0BC802AD8012800F0BA8004282A
:1029C80008BF012318BF08236348116AC05C0223AB
:1029D800834021EA030387401F43604B176253F883
:1029E8002C302068414698472368DE62BEE7102BEA
:1029F80002D108F1FF38CDE723F04001202902D0A9
:102A0800402B40F09C804FEA58087608C3E74028DE
:102A180008BF0323D6E7B0F5805F00F08C80B0F5DF
:102A2800803F00F08A80B0F5806F08BF0523C9E7B2
:102A380004A803F0C0FA602304930123BAF1000F3D
:102A480023D00693099723681B6A35EA03030CBF52
:102A580001230023059320682946FFF71FFF0890EC
:102A6800CDF81C80206804AA294600F05BFDF8B167
:102A78003B4B029300231846CDE90033324901222B
:102A880003F091F96FF0040054E705930897B9F142
:102A9800000FE5D023681B6A39EA03030CBF012342
:102AA8000023069320684946FFF7F8FE0990D7E708
:102AB8002268136843F080031360B5F5807F2268AD
:102AC8002BD01FD8102D2AD018D8012D04D0042DB2
:102AD80008BF012018BF0820224B195C224B18326E
:102AE800185C5558082383402B4353502368DE62F3
:102AF8002268536943F00103536137E7402D08BF4B
:102B08000320E7E7B5F5805F0BD0B5F5803F0AD025
:102B1800B5F5806F08BF0520DCE70420DCE702205C
:102B2800DAE70620D8E70720D6E704234CE7022394
:102B38004AE7002348E7062346E7072344E76FF000
:102B48008500F7E66879000890660008B468000810
:102B5800A86800087D790008767A0008906800085F
:102B6800A4790008887A00087F7A00082DE9F043E4
:102B7800076945688BB0494E304603F026FA03468C
:102B880068B9474A47490090CDE90102012203F09C
:102B98000AF96FF0120420460BB0BDE8F083D6F8AE
:102BA800089005F10C08D9F800304146304698479E
:102BB800041E0BDA3C4B039402930023CDE9003347
:102BC80038490122184603F0EEF8E4E7D9F80C304A
:102BD8001BB305AA414630469847041E1FDBEA6826
:102BE800059B1C2A00D15B00D7E901013B60836883
:102BF800DB6803B19847686905AA002103F0A8F8C3
:102C0800041E07DB059B002219791868FFF7EEFD03
:102C1800041E07DA254B0394CEE76FF05704244BC4
:102C28000394C9E705A803F0BDF96B68ADF8143043
:102C38000024AB680693CDE9074405A9286800F08D
:102C48001FFC60B11B4B0094CDE90143204623468D
:102C58001449012203F0A7F86FF004049BE72B68DE
:102C6800154A93420FD002F5006293420BD002F549
:102C78004062934207D002F58062934203D002F586
:102C88008062934203D15A6C42F400425A642A6823
:102C9800136843F00103136000247CE738620008DE
:102CA800CE79000890660008ED7900082F7A0008B0
:102CB8000D7A00084D7A0008002C014030B50269F1
:102CC800436810681C680D46D9688368DB6887B05C
:102CD8005BB9154B02930023CDE900331349012258
:102CE800184603F0D5F807B030BD05AA9847002864
:102CF800EFDB236823F400432360059B03EB5503B4
:102D0800B3FBF5F39BB2E360E3680F2BEBD80849FC
:102D1800084A0948D12302F025FD084802F022FD9F
:102D28000448D12102F015FDA27A0008A066000827
:102D3800FF7A0008D07A0008746A0008147B00083B
:102D4800F8B50369D0F804E05E680B79012B0C46EE
:102D580035D0991E4D424D41AD026279022A9CBF81
:102D6800404931F812C0A27988BF4FF4005C042AA8
:102D780028D0003B18BF01231B03E179DEF80020AF
:102D8800012914BF00274FF44077A6421DD11168CE
:102D980021F4B05129430B431360536823F4405383
:102DA80043EA0C03536043681A68936823F440733A
:102DB8003B4393603168BDE8F840FFF77FBF4FF4AD
:102DC800C065CAE74FF48053D7E7D2F800E00EF4A5
:102DD800C06E75451FBFD2F800E02EF4C06E4EEAF3
:102DE80005051560426815686A6802F44052944502
:102DF8001FBF6A6822F4405242EA0C026A604268C5
:102E080015682A6802F4805293421FBF2A6822F488
:102E1800805213432B6043681A68936803F4407325
:102E28009F421FBF936823F440733B4393604368FA
:102E38001B689A68520405D5032909D09A6822F4B8
:102E4800804204E0032903D19A6842F480429A60E0
:102E580021683368994203D0FFF730FF2368336055
:102E6800F8BD00BF046A0008F0B504694568064665
:102E78005948206087B003F0A8F8034650B9574A6C
:102E880057490093CDE90132012203F001F86FF0B0
:102E980012040DE02068E96883681B6898470446B7
:102EA80048B9286A05AA002102F052FF041E0FDA69
:102EB800204607B0F0BD4B4B02930023CDE9003309
:102EC80047490122184602F0E3FF002CF0DBE8E74F
:102ED800059B002219791868FFF788FC041EE7DBB8
:102EE800756833692C685F68236823F001032360E1
:102EF800686803F06AF8034608B93B4AC0E7D5E9B1
:102F080001018368DB6803B1984754E8003F43F048
:102F18000C0344E80032002AF7D139463046FFF75F
:102F28000FFF2B7D1BB1A36843F00803A3606B7DE3
:102F38001BB1636843F400436360AB7D1BB16368F6
:102F480043F480336360EB7D1BB1636843F4003363
:102F580063602B7E002B33D0244B9C4216D0A3F504
:102F680074439C4212D003F580639C420ED03368B0
:102F780003931F4B02930023CDE900331849012224
:102F8800184602F085FF6FF0150491E773681A6818
:102F9800936843F48043936023686A7E23F07873D0
:102FA80043EA425323602368AA7E23F4F81343EAD2
:102FB80002432360EB7E1BB1A36843F40043A36084
:102FC800236843F001032360E3699A02FCD5E369AF
:102FD8005B02FCD500246BE738620008CE79000854
:102FE800A0660008287B0008487B000800380140DC
:102FF800637B00082DE9F04143681C680369D3F836
:1030080004800B790D46012B4979AE7933D1022919
:1030180051D9042E4CD04FF480574FF4C06203238B
:103028008B4245D1002F78D0002A14BF03220422F6
:10303800B2423DD1EB7963B1012B73D13B4B9C423A
:1030480007D0A3F574439C4203D003F580639C42E8
:103058002ED1236823F0010323602946FFF770FE71
:10306800236843F00103236095E8030088E8030020
:103078000020BDE8F081022B08D1022926D9042EB0
:1030880016D04FF480624FF48057C8E702290A46E9
:1030980024D9042E04D15BB94FF480571A46BEE7F1
:1030A80023B1033B012B03D90022ECE70329BFD04E
:1030B8006FF08500DDE71E4A042E32F811C0F7D004
:1030C8004FF4C062033B012B10D8F1E7184A042ED5
:1030D80032F811C0ECD04FF48062F3E7144A042EA2
:1030E80032F811C00FD1002BE2D11A464FF48057A5
:1030F800BCF5805F0DD0BCF5405F0CD0BCF1000F73
:103108008DD101238CE70BB10022DBE71A461F465D
:10311800EEE7002384E7022382E7002A14BF022295
:10312800032285E7032B89D0C2E700BF003801409E
:10313800046A000810B54FF0E0230F499C691A692A
:1031480008689B690D4902F4803234B993B9034683
:103158004AB90A681044C01A10BD002B08BF0346BC
:103168000AB9A342F5D90A6802440A604FF0E0227E
:103178001269EEE70446F3E73C0500203805002015
:103188000A4B102283F82320094B4FF4E1521A60AE
:10319800084B002018604FF0E02341F61F425A61A7
:1031A80098611A6942F007021A61704700ED00E061
:1031B8003C0500203805002010B5FFF7BBFF104B79
:1031C8001049D3E900420868001942F10002C3E936
:1031D80000020D4A00230B60D2E900414FF4E1538D
:1031E800001BB0FBF3F043431B1941F10001C2E996
:1031F800003101F0B3FEBDE81040FEF725B900BF6D
:103208005802002038050020500200202DE9F04126
:10321800DFF82C8199B1421C0BD14FF0E0221369E1
:1032280023F0010313614FF07F43C8F80030BDE875
:10323800F081D8F80050012807DC00270BE0431C78
:10324800D8F80050F7D140F6191040F61A139842F2
:10325800A8BF1846471EEFF31184102383F3128882
:10326800BFF36F8F374801F0D9FC68B9364A374940
:103278003748882302F076FA3249364802F072FA63
:103288008821314802F065FA2E48334E01F0EAFCF5
:10329800FFF750FF4FF0E0239969D6E90023801823
:1032A80043F10003C6E900032C4B00221A602C4BA3
:1032B8001A68831A3BD44FF4E15C0CFB073303F51F
:1032C800E0531F33B3FBFCF7131A0CFB0733B3F5BA
:1032D800806F244A38BF4FF48063934228BF134657
:1032E8004FF0E022C8F80030013B90695361002399
:1032F80093618142A1EB0003D6E9001238BF5B1944
:103308005B1842F100020F48C6E9003201F094FC54
:1033180080B90D4A14490E4840F2311302F022FADE
:103328000849124802F01EFA40F23111A9E74FF499
:103338008063D5E784F31188BFF36F8F77E700BF09
:103348003C05002040050020C07B0008ED7B0008FC
:10335800746A0008027C0008580200203805002022
:103368005002002020DFFF00187C00082F7C000896
:1033780038B5EFF31185102383F31288BFF36F8FED
:103388001B4801F04BFC68B91A4A1B491B488823A3
:1033980002F0E8F916491A4802F0E4F988211548BC
:1033A80002F0D7F9124801F05DFC164B1C68164B69
:1033B8001B68E41AFFF7BEFE04440D4801F03CFC0C
:1033C80068B90C4A11490D4840F2311302F0CAF9A4
:1033D80007490F4802F0C6F940F23111DFE785F3DB
:1033E8001188BFF36F8F4FF4E150B4FBF0F038BD94
:1033F80040050020C07B0008ED7B0008746A0008C7
:10340800027C00085802002050020020187C0008A6
:103418002F7C000810B5154C616801F00C03082BCF
:1034280021D101F470124FF4701393FAA3F3B3FA95
:1034380083F322FA03F30E4AD05CE36AC90348BF58
:1034480003F00F034FF00F0292FAA2F2B2FA82F2DF
:1034580045BFD340074A084BD25C44BF074BB3FB78
:10346800F2F3584310BD0548FCE700BF00100240C6
:10347800647C0008547C000800093D0000127A00B2
:10348800254A036890420ED0B0F1804F0BD0A2F5C8
:103498009432904207D002F58062904203D002F540
:1034A8009632904222D14A6823F070031343CA68C7
:1034B80023F44073134303608B68C3620B888362F1
:1034C800154B98420FD003F5006398420BD003F5D3
:1034D8004063984207D003F58063984203D003F510
:1034E8008063984211D10B6903630EE00B4A904246
:1034F800DDD00B4A9042DAD002F580629042D6D0F5
:1035080003608B68C3620B888362436943F00103DD
:1035180043610020704700BF002C0140004001407B
:1035280000440140B1F5805F30B500F011810AD840
:10353800102900F08680B1F5807F00F0C68001294F
:103548003DD0012030BDB1F5803F00F03681B1F5A6
:10355800801FF6D1036A23F480130362036A416D66
:10356800146821F0807121F4E04141EA04241169D2
:1035780023F4001343EA0153516823F4801343EA08
:103588000153A84988420FD001F5006188420BD049
:1035980001F54061884207D001F58061884203D077
:1035A80001F58061884206D14168956921F480213E
:1035B80041EA852141604465D268C2653EE0036AFC
:1035C80023F001030362036A41688469156824F4DF
:1035D800803424F073042C43156923F002032B4331
:1035E800556823F001032B438E4DA8420FD005F5F3
:1035F8000065A8420BD005F54065A84207D005F53F
:103608008065A84203D005F58065A84212D15569A6
:1036180023F0080343EA8503956823F0040343EA8B
:103628008503956921F480712943D56921F40071D6
:1036380041EA450141608461D26842630362002027
:1036480080E7036A23F010030362036A4168846910
:10365800156824F0807424F4E64444EA05241569C6
:1036680023F0200343EA0513556823F0100343EAC7
:1036780005136C4DA8420FD005F50065A8420BD084
:1036880005F54065A84207D005F58065A84203D036
:1036980005F58065A84213D1556923F0800343EAF4
:1036A8008513956823F0400343EA8513956921F44F
:1036B800806141EA8501D56921F4006141EAC501CB
:1036C80041608461D2688263B8E7036A23F4807337
:1036D8000362036A4168C469156824F4803424F0DD
:1036E80073042C43156923F4007343EA05235568D2
:1036F80023F4807343EA05234A4DA8420FD005F509
:103708000065A8420BD005F54065A84207D005F52D
:103718008065A84203D005F58065A84213D1556994
:1037280023F4006343EA8523956823F4806343EA1E
:103738008523956921F4805141EA0511D56921F461
:10374800005141EA45114160C461D268C26375E71E
:10375800036A23F480530362036A4468C1691568E5
:1037680021F0807121F4E64141EA0521156923F42D
:10377800005343EA0533556823F4805343EA05337D
:10378800284DA8420FD005F50065A8420BD005F5D5
:103798004065A84207D005F58065A84203D005F525
:1037A8008065A84204D1956924F4804444EA8514CC
:1037B8004460C161D268026440E7036A23F480333D
:1037C8000362036A416D146821F4803121F07001AD
:1037D8000C43116923F4003343EA0143516823F48D
:1037E800803343EA01430F4988420FD001F5006155
:1037F80088420BD001F54061884207D001F580610D
:10380800884203D001F58061884206D141689569F4
:1038180021F4803141EA052141604465D268816D17
:1038280082650BE7002C0140D8B10F4B984216D89F
:103838000E4B984294BF002001200D4A136823F0D4
:10384800070303431360136803F0070398421CBF80
:10385800136803F00703C01A18BF0120704702203D
:10386800EBE70120704700BF006CDC0200366E01F8
:103878000020024008B50A4A0A4B93420ED90A4969
:103888000A4A0B48172301F06DFF0A4801F06AFF46
:103898000648172101F05DFF1433EEE7FCD308BD9D
:1038A8003C63000838620008977C0008747C0008B4
:1038B800746A00081C6E00081FB50446FDF714FA68
:1038C800064B029300231846CDE900330449012230
:1038D80002F086FB204602F093FB00BFAF7C000895
:1038E800886600082DE9F041044686B00E46EFF3DD
:1038F8001188102383F31288BFF36F8F042898BFB1
:103908002B4B2C4A98BF53F82030976888BF2A4B16
:10391800127C2A4903900025CDE90432284B0293F2
:10392800CDE900552B460122284602F059FB6EB11D
:10393800F369C3F308034BB1224B20490095CDE945
:10394800015301222B46284602F04AFB2FB1384684
:1039580002F07AFB08B1037803B91B481B4B0293AA
:103968000023CDE90370CDE900331846134901223D
:1039780002F036FB31462046FFF79EFF042C0CD19F
:103988001349144A1448862301F0ECFE134801F049
:10399800E9FE1048862101F0DCFE88F31188BFF3A8
:1039A8006F8F384606B0BDE8F041FEF7B3B800BFE8
:1039B800D869000844050020BE7C00088866000815
:1039C800D47C0008FC7C0008CC7C00081D7D000825
:1039D800577D0008357D0008746A0008747D00086A
:1039E80038B5094B53F82040013053F82050A54210
:1039F80000D838BD636823B1204602F009FB0834BB
:103A0800F5E723689847FAE7EC69000870B5384B82
:103A1800384C394D012286B003201A70FFF7E0FFB9
:103A280001F09EFB0420FFF7DBFFAC42264628D9B5
:103A38003249334A3348432301F094FE324801F0B7
:103A480091FE43212E4801F084FE54F80C3C059366
:103A580054F8103C049354F8143C039354F8183C5D
:103A6800029354F81C3C019354F8203C009354E909
:103A78000A2354E90C0100F025F954F8303C5E653E
:103A8800D3E7AE4204F13004DFD300F00DFD194C4A
:103A98001E4EAC421FD91949194A1A48672301F02A
:103AA80061FE194801F05EFE6721CBE7D4E90A23DD
:103AB800B3F1FF3F08BFB2F1FF3F05D052EA03015F
:103AC800206803D102F0C2FA3034E2E731461830F8
:103AD80001F030F9F8E7E9D300F054FD02F0CAFA32
:103AE8000B4A137B23F00103137306B070BD00BFAC
:103AF8007F050020D065000860660008147E000875
:103B0800F37D0008746A00081C6E000869600008EC
:103B1800E002002008B50348034A0021121A02F007
:103B28008FFA08BDD00000208405002070B500235E
:103B380086B00122CDE90423134E144D01930F22C0
:103B4800CDE902321249142303FB005506EBC016D7
:103B580004464FF4C07000FB04110E4B00954FF45F
:103B6800A072304600F0AEF8737B0B4AEE6023F08B
:103B7800040373734FF4046304FB033313442C747A
:103B88006B6006B070BD00BF6002002044050020D5
:103B9800C0260020853C0008801E0020BFB50020FC
:103BA800FFF71EFF2D4B83F308882D4D2D4E6B69B3
:103BB8002D4F43F400736B610024F02385F8223005
:103BC800EC772C766C76AC7685F820406B6A43F4FB
:103BD800E0236B62FDF776FFFEF7D2F84FF0FF3374
:103BE800AB62EB62214DFEF7E7F9FEF7EDF8FDF762
:103BF80067F840F201132846AB81C5E9184401F083
:103C0800A9FAB560FFF736FE0120FFF7E9FE0220AA
:103C1800174DFFF7E5FE00F031FD164B7561059372
:103C2800012315490094CDE903434FF480623B46D4
:103C3800CDE90144284600F045F86A7B064622F0A3
:103C4800040228466A7300F095FA2046FFF76EFFD3
:103C58003A4631462846FEF771F800BFC0260020D4
:103C680000ED00E044050020153A0008600300203C
:103C7800E0020020417E00084028002008B50D4BD6
:103C88009B6893F90E30002B09DB1024EFF31183A6
:103C980084F31288BFF36F8F01F072FEF6E70649CE
:103CA8000648074A1B2301F05DFD05481B2101F06A
:103CB80050FD00BF440500206A7E0008746A0008B1
:103CC800497E00082DE9F04385B005460F9C0F2C6E
:103CD8000E461F4645D12E4B9F4246D1073222F051
:103CE80007027F321099297305F1580322F03F0229
:103CF800C5E91633042100233F2AC5E90633AB6022
:103D08006973AC73EB7306F14009A2F1400805D85A
:103D180083F31188BFF36F8F084602DFB41821467A
:103D28002846FDF771FB07300E9B20F00700A866B8
:103D3800C5E9189802930D9B0193241A0C9B0093D4
:103D480022463B4631462846FDF7C6FF00236B65F1
:103D5800104B9B6803B1DB6EEB66204605B0BDE8EF
:103D6800F08304F110031E2BB8D90B4A0B490C48F9
:103D78004FF4037301F0F6FC0A4821466FF00F0375
:103D88000E2201F0EFFC04484FF4037101F0E1FC4E
:103D9800853C000844050020927E0008B57E000896
:103DA800746A0008357F000838B5144D2B4653F85F
:103DB800184F9C4200D004B9EC68AB68A8B963B945
:103DC8000F49104A1048C82301F0CCFC0F4801F0F5
:103DD800C9FC0C48C82101F0BCFC5A7BD20604D1AE
:103DE800A26912B9DA897F2A05D89C4202D02046F6
:103DF80000F088FE23466B6138BD00BF44050020F3
:103E0800927F0008667F0008746A0008B97F00087E
:103E180008B590F90D20437B002A014611DA03F01A
:103E28007F0343730B4B984209D10B490B480C4A4B
:103E3800802301F097FC0A48802101F08AFC02F0F7
:103E480007F9084B9868431A58425841BDE808409A
:103E5800FFF7AABF60020020DE7F0008746A00082E
:103E6800BC7F00084405002008B583685BB90A498F
:103E78000A480B4A40F2362301F074FC084840F225
:103E8800362101F066FC02F0E3F8437B23F00203DD
:103E980043730023836008BDFF7F0008746A00082D
:103EA800BC7F000870B590F90D30427B002B38DBE1
:103EB800D30636D18369002B33D162F07F02427377
:103EC800184A904209D118491848194A792301F02B
:103ED80049FC1748792101F03CFC16490A4652F87A
:103EE800184F944218BF2346CC6923B9C0E900246F
:103EF8002060C8610CE090F90E5093F90E60B5424D
:103F08000BD0AE4209DD5A68C0E900321060586033
:103F1800BDE870400020FFF747BFA342E6D01B680A
:103F2800E3E770BD60020020DE7F0008746A0008C5
:103F3800BC7F0008440500202DE9F843171E427B8A
:103F48000E4614BF08211021114204460FD141EA40
:103F58000203D20928D14373082937D00120FFF77B
:103F680023FFBFF35F8F637B23F060036373494BC9
:103F78009B68A34275D1EFF30583002B71D14648A6
:103F880000F05AFE00285BD1444A4549454840F2B2
:103F98006B1301F0E7FB4049434801F0E3FB40F2B3
:103FA8006B113E4801F0D5FB03F07F0343733F4B91
:103FB800984208D13E493F4A3A48802301F0D2FB53
:103FC80080213C48EEE702F043F8C5E7A36813B147
:103FD8002046FFF749FF04F1180000F071FFA56DB6
:103FE80004F15808A84511D04FF0000975B12846CA
:103FF800FFF73AFF05F1180000F062FFC5F8789066
:104008002846FFF74FFFA56DA845EFD1DFF884805C
:10401800D8F808309C42A1D1EFF30583002B9DD03E
:10402800254D0120FFF7C0FE40F20113AB81284661
:104038000023C5E9183301F08DF8C8F8085090E757
:104048003046FDF77DFD17B31C491A4A154840F262
:10405800ED1301F087FB1A4801F084FB40F2ED11E3
:10406800AFE70D4800F0E8FD68B90C4A0C490D4867
:1040780040F2311301F076FB07490B4801F072FB5F
:1040880040F231118DE786F31188BFF36F8FBDE8D9
:10409800F88300BF4405002064050020C07B0008A9
:1040A800187C0008746A00082F7C00086002002051
:1040B800DE7F0008BC7F000860030020168000082F
:1040C8002180000870B590F90D20437B244C002A0C
:1040D800014610DA03F07F03A042437309D1214956
:1040E800214A2248802301F03DFB80211E4801F02F
:1040F80030FB01F0ADFF4B7BA14263F07F034B73B4
:1041080007D11849184A1948792301F02BFB79215E
:10411800ECE7174A1046D46950F8183F834208BFA5
:10412800002323B9C1E900042160D1610CE091F9B1
:104138000E5093F90E60B5420ED0AE420CDD5868B1
:10414800C1E90030016059609068431A5842BDE8DF
:1041580070405841FFF728BE9C42E3D01B68E0E757
:1041680060020020DE7F0008BC7F0008746A000837
:104178004405002038B50446EFF31185102383F376
:104188001288BFF36F8F174800F048FD68B9164AC8
:1041980016491748882301F0E5FA1249154801F035
:1041A800E1FA8821104801F0D4FA0E4800F05AFDCF
:1041B8002046FFF777FE0B4800F03EFD68B90A4A33
:1041C8000D490B4840F2311301F0CCFA05490B4870
:1041D80001F0C8FA40F23111E4E785F31188BFF322
:1041E8006F8F38BD64050020C07B0008ED7B000898
:1041F800746A0008027C0008187C00082F7C0008FC
:1042080038B50446183000F05BFEEFF31185102333
:1042180083F31288BFF36F8F1A4800F0FFFC68B968
:10422800194A1A491A48882301F09CFA154919486D
:1042380001F098FA8821144801F08BFA114800F02F
:1042480011FD627B12F0100216D00E4800F0F4FC4B
:1042580068B90D4A10490E4840F2311301F082FA4C
:1042680008490E4801F07EFA40F23111E3E785F380
:104278001188BFF36F8F38BD29462046BDE8384006
:10428800FFF75ABE64050020C07B0008ED7B0008DC
:10429800746A0008027C0008187C00082F7C00085B
:1042A80070B504460D46EFF31186102383F3128888
:1042B800BFF36F8F1F4800F0B1FC68B91E4A1F4951
:1042C8001F48882301F04EFA1A491E4801F04AFA9D
:1042D8008821194801F03DFA164800F0C3FC637BB9
:1042E80013F0280F0CD1A36813B12046FFF7BCFDCB
:1042F800637BBDB903F0FB0363732046FFF7D2FD70
:104308000C4800F099FC80B90B4A0F490C4840F260
:10431800311301F027FA07490C4801F023FA40F25B
:104328003111D6E703F0EB03E6E786F31188BFF314
:104338006F8F70BD64050020C07B0008ED7B00080E
:10434800746A0008027C0008187C00082F7C0008AA
:1043580070B504460D46F9B9EFF30586E6B91A4B70
:104368005A699B689A4217D000F066FC78B9174AD8
:104378001749184840F26B1301F0F4F92146164822
:1043880001F0F0F940F26B11104801F0E2F9304603
:10439800BDE87040FDF7D4BB204600F04DFC68B97D
:1043A8000A4A0B490B4840F2311301F0DBF9214668
:1043B800094801F0D7F940F23111E5E785F3118892
:1043C800BFF36F8F70BD00BF44050020C07B00089D
:1043D800187C0008746A00082F7C000838B5044669
:1043E800EFF31185102383F31288BFF36F8F1D48F5
:1043F80000F014FC68B91C4A1C491D48882301F0C8
:10440800B1F918491B4801F0ADF98821164801F0A7
:10441800A0F9144800F026FC637B5A0716D411480B
:1044280000F00AFC68B9104A1349114840F23113E8
:1044380001F098F90B49114801F094F940F2311153
:10444800E4E785F31188BFF36F8F38BD23F00403C9
:1044580020466373FFF726FD29460248BDE8384029
:10446800FFF776BF64050020C07B0008ED7B0008DD
:10447800746A0008027C0008187C00082F7C000879
:10448800034648B9EFF3058232B9064A5169926882
:10449800914201D0FDF754BB83F31188BFF36F8FAE
:1044A800704700BF4405002010B5EFF311841023B6
:1044B80083F31288BFF36F8F264800F0AFFB60B913
:1044C800254A26492648882301F04CF921492548E0
:1044D80001F048F98821204810E01E4800F0C2FB8E
:1044E800EFF3058363B12049204A1D488B2301F06F
:1044F80039F91F4801F036F98B211C4801F029F9D8
:104508001C4B9A68D37B012B0AD11B49174A1448C4
:104518008C2301F027F9164801F024F98C21ECE7E7
:10452800013BD3730B4800F087FB68B90A4A13496B
:104538000B4840F2311301F015F90649104801F013
:1045480011F940F23111C6E784F31188BFF36F8F78
:1045580010BD00BF64050020C07B0008ED7B00088B
:10456800746A0008027C00086E8000084380000816
:10457800B97F00084405002080800008187C0008E6
:104588002F7C000838B5EFF31185102484F31288C6
:10459800BFF36F8F2D4800F041FB60B92C4A2D49BD
:1045A8002D48882301F0DEF828492C4801F0DAF874
:1045B8008821274813E0254800F054FB284B9A68C7
:1045C800D37B73B92749284A23484FF4537301F022
:1045D800C9F8264801F0C6F84FF45371224801F093
:1045E800B8F8EFF3058060B121491F4A1A4840F234
:1045F8004D3301F0B7F81D4801F0B4F840F24D31E1
:10460800ECE70133D373FFF7CFFB104800F014FB3E
:1046180068B90F4A1749104840F2311301F0A2F85F
:104628000A49154801F09EF840F23111C1E785F3B7
:104638001188BFF36F8FEFF3118084F31288BFF3F3
:104648006F8FBDE83840FFF71BBF00BF640500202F
:10465800C07B0008ED7B0008746A0008027C000833
:1046680044050020B1800008BC7F0008B97F00081D
:104678006E800008187C00082F7C0008024B03F1AC
:104688001802C3E90622704744050020F8B5EFF385
:1046980005836BB14149424A424840F2514301F017
:1046A80061F8414801F05EF840F251413C4816E09B
:1046B800EFF31185102383F31288BFF36F8F3B4804
:1046C80000F0ACFA68B93A4A3A493648882301F00A
:1046D80049F83649384801F045F88821344801F04E
:1046E80038F83248354C00F0BDFA35498868437BC4
:1046F800A04203F07F03437307D13249284A29486F
:10470800802301F02FF88021D0E701F0A1FC8B680D
:104718005A7BA34262F07F025A7307D12949204A83
:104728002048792301F01EF87921BFE70846CC69B3
:1047380050F8182F824208BF002222B9C3E90004AA
:104748002360CB610CE093F90E6092F90E70BE42C3
:104758001BD0B74219DD5168C3E900210B605360D3
:104768000120FFF721FB114800F066FA88B9104ACA
:1047780015490C4840F26B1300F0F4FF0B4913483D
:1047880000F0F0FF40F26B11A8E7A242D6D0126801
:10479800D3E72846BDE8F840FDF7D2B96E80000897
:1047A800BC7F0008746A0008B97F0008640500200F
:1047B800C07B0008ED7B0008027C00086002002036
:1047C80044050020DE7F0008187C00082F7C0008C4
:1047D8002DE9F04105460E46EFF305836BB13F49DD
:1047E8003F4A404840F26C4300F0BCFF3E4800F0AE
:1047F800B9FF40F26C413A4824E050EA010303D182
:10480800FFF744FF002067E0821C71F1FF331BDBD8
:1048180001F02AFC4419EFF31188102383F312885E
:10482800BFF36F8F314800F0F9F988B9304A314940
:104838002C48882300F096FF2C492F4800F092FF5F
:1048480088212B4800F085FF6FF00104241AE2E765
:104858002A4F264800F006FA294BB8681860FFF777
:10486800D7FAB86827492A463346183000F062FA62
:10487800BA681E48537B43F01003537300F0DCF909
:1048880068B91B4A2049174840F26B1300F06AFFC9
:1048980016491E4800F066FF40F26B11D1E740460A
:1048A800FDF74EF9BB685B7BDB060CD518490C4A53
:1048B8000C484FF4916300F055FF0B4800F052FF8D
:1048C8004FF4916197E701F0CFFB201A63EB0303E4
:1048D800012873F1000395DBBDE8F0816E800008C4
:1048E800BC7F0008746A0008B97F000864050020CE
:1048F800C07B0008ED7B0008027C0008440500200E
:104908006805002069600008187C00082F7C0008F2
:10491800E280000808B5EFF3058373B11449154A1E
:10492800154840F2964300F01DFF144800F01AFFA6
:10493800104840F2964100F00CFFB1F1FF3F08BF6C
:10494800B0F1FF3F06D10E4B9868FFF759FC4FF0C6
:10495800FF3008BDFFF73CFFC11709304FF00A02CE
:104968004FF0000341F10001FBF70AFCF1E700BF3B
:104978006E800008BC7F0008746A0008B97F0008D0
:1049880044050020014B9868704700BF440500208B
:1049980038B50446EFF31185102383F31288BFF36B
:1049A8006F8F284800F03AF968B9274A27492848FC
:1049B800882300F0D7FE2349264800F0D3FE88213B
:1049C800214800F0C6FE1F4800F04CF9237BDA07A7
:1049D80024D51C4800F030F968B91B4A1E491C4808
:1049E80040F2311300F0BEFE16491C4800F0BAFE32
:1049F80040F23111E4E785F31188BFF36F8F184A4D
:104A08001849134840F28B5300F0ACFE1648214673
:104A180000F0A8FE124840F28B51D2E7637B1B07D7
:104A280009D5084800F008F90028D6D085F3118880
:104A3800BFF36F8F38BD294620460122BDE83840B4
:104A4800FFF77ABA64050020C07B0008ED7B0008F8
:104A5800746A0008027C0008187C00082F7C000893
:104A6800BC7F0008FF6A00082281000808B568B109
:104A78000F4B98420AD303F11802904206D2C01A8B
:104A88001822B0FBF2F302FB13034BB109490A48A1
:104A98000A4A382300F066FE0848382100F059FE1B
:104AA800074BC0105843074B01221A5408BD00BFDA
:104AB800E003002069810008746A00084181000849
:104AC800ABAAAAAA80050020C3897F2B12D80A4B5B
:104AD8001B6863B1094B90F90E201B689A4209DBE9
:104AE800437BDB0606D1064BC31A18BF012303F02C
:104AF800010070470023FAE7700500206C050020CC
:104B08006002002070B50E4B0E4C1E7C06EB46036F
:104B180004EBC3040546204600F0D2F90A4B0022F4
:104B280028469A55FFF7D0FF48B1084B08491A683C
:104B3800013A2046D317BDE8704000F0FBB870BDBD
:104B480044050020E00300208005002070050020B7
:104B5800754A000838B5EFF31185102383F31288DE
:104B6800BFF36F8F234800F059F868B9224A2349E8
:104B78002348882300F0F6FD1E49224800F0F2FD84
:104B880088211D4800F0E5FD1A4800F06BF81E4B1F
:104B98001E4A9C681068A04213D1FFF7B3FF15485E
:104BA80000F04AF808BB144A1949154840F2311375
:104BB80000F0D8FD0F49174800F0D4FD40F231113C
:104BC800DFE700211B7C1160134AD35C002BE6D081
:104BD8002046FFF779FF0028E1D0637BDB0602D18E
:104BE8002046FFF76FFA2046D7E785F31188BFF311
:104BF8006F8F38BD64050020C07B0008ED7B00087E
:104C0800746A0008027C000844050020680500203A
:104C1800187C00082F7C000880050020006838B147
:104C2800044B1B7C00F00300C01A18BF012070471A
:104C38000120704744050020002302680360EFF359
:104C48000581074B19B19968497BC90706D4197CB6
:104C580098680843831A58425841704701207047A2
:104C680044050020024B1A7C9B681343036070477D
:104C78004405002008B50648064A0749121A01F0FB
:104C8800E1F9BDE80840054A0549064801F0DAB9E6
:104C980000000020D0000020E4830008000000008D
:104CA800E483000800000020034B1B680BB9FEF7E3
:104CB8005FBB0020704700BF7405002030B570B19D
:104CC8000B4B5B6898420AD0036843B1D3E90421CF
:104CD800D0E90445121941EB0501C3E90421D0E9E3
:104CE800003213605A600023C0E9003330BD00BFB2
:104CF8008000002010B50E4B1C689C4204D1FFF7C1
:104D0800D3FF6FF0004010BDFFF7CEFF002CF8D0A6
:104D1800D4E904321B1A62EBE072B3F1004F72F16E
:104D28000001EEDA002AACBF18460020EBE700BF0E
:104D380080000020B3F1FF3F08BFB2F1FF3F2DE92B
:104D4800F047044692461D4600F09D80066866B10D
:104D58004E494F4A4F486E2300F004FD4E4800F07C
:104D680001FD4B486E2100F0F4FC8160EFF31187E0
:104D7800102383F31288BFF36F8F4848FFF74EFF65
:104D880060B9474A47494348882300F0EBFC434948
:104D9800454800F0E7FC88214148E4E73F48FFF731
:104DA80061FFBAF1FF3F75F1FF3323DA3F49D1E9DB
:104DB80000206FF001039B1A4FF0FF3262EB0000F6
:104DC800B3EB0A0360EB0500012B70F1000201DA76
:104DD80001233046C4E90430354B1A68D3F804C0BF
:104DE8009A4218BF164686B9C4E9003CCCF8004080
:104DF8005C601CE0FFF758FF1AF1010845F1000557
:104E080018EB000345EBE070E4E7D6E90415D4E9B4
:104E180004208A4270EB050E28DA891A726865EB5D
:104E28000005C6E90415C4E90062146074601A68D4
:104E38009A4209D0944207D11E4B1C6824B9FFF747
:104E480059FF2146FEF7E2F91448FFF7F5FEB0B91D
:104E5800134A19490F4840F2311300F083FC0F49F7
:104E6800164800F07FFC40F2311195E7521A60EBCA
:104E780005006645C4E90420B6D03668B3E787F371
:104E88001188BFF36F8FBDE8F08700BF3E8300082D
:104E98001A830008746A0008B97F000878050020A2
:104EA800C07B0008ED7B0008027C0008F8030020A6
:104EB8008000002074050020187C00082F7C000862
:104EC80038B50446EFF31185102383F31288BFF336
:104ED8006F8F1B48FFF7A2FE68B91A4A1A491B4888
:104EE800882300F03FFC1649194800F03BFC882154
:104EF800144800F02EFC1248FFF7B4FE2368ABB14B
:104F08002046FFF7DBFE00240D48FFF795FE80B929
:104F18000C4A10490D4840F2311300F023FC0849AF
:104F28000D4800F01FFC40F23111E1E76FF0150465
:104F3800EAE785F31188BFF36F8F204638BD00BFBD
:104F480078050020C07B0008ED7B0008746A000823
:104F5800027C0008187C00082F7C00082DE9F84F17
:104F68000446EFF31188102383F31288BFF36F8F81
:104F78004748FFF753FE68B9464A474947488823D8
:104F880000F0F0FB4249464800F0ECFB882141481C
:104F980000F0DFFBDFF80C91DFF80CB13C48DFF8DC
:104FA8000CA1FFF75FFECBF80040D9F800400026BF
:104FB8004C4508BF00240027DAE90021DBF800305F
:104FC800002C4AD0D4E904504FEAE37CAB427CEB96
:104FD800000E05DAED1A60EB0C00C4E904503CE061
:104FE800AA1841EBE5712046C4E90467CAE9002123
:104FF800FFF764FE2648FFF71FFE68B9254A2C49CB
:10500800264840F2311300F0ADFB2149294800F051
:10501800A9FB40F23111BAE788F31188BFF36F8F0B
:10502800A36820469847EFF31188102383F312886A
:10503800BFF36F8F1648FFF7F1FD00289CD0144886
:10504800FFF710FEDBF80030D9F800405B1B4C4539
:10505800CBF80030B0D1DAE900219A1841EBE371BE
:105068000024CAE90021CBF80040FFF743FE21469F
:10507800FEF7CCF80648FFF7DFFD0028BED088F31E
:105088001188BFF36F8FBDE8F84FFFF763BD00BF0E
:1050980078050020C07B0008ED7B0008746A0008D2
:1050A800027C00088000002074050020F80300201E
:1050B800187C00082F7C000870B5EFF311861023C8
:1050C80083F31288BFF36F8F1A48FFF7A7FD68B9FB
:1050D800194A1A491A48882300F044FB1549194807
:1050E80000F040FB8821144800F033FB1148FFF71B
:1050F800B9FDFFF7D9FD144AD2E90045041945EB7B
:10510800E0750C48FFF798FD68B90B4A0F490C4841
:1051180040F2311300F026FB06490D4800F022FB4F
:1051280040F23111DFE786F31188BFF36F8F204615
:10513800294670BD78050020C07B0008ED7B00087B
:10514800746A0008027C0008F8030020187C000834
:105158002F7C0008014BC366704700BFB8000020D1
:10516800014800F0E9BA00BF5E83000838B50D4C6D
:105178000D4DAC4213D90D490D4A0E48192300F0C4
:10518800F1FA0D4800F0EEFA0948192100F0E1FAA9
:10519800D4E90112204600F070FF1834E9E7F7D38C
:1051A800002038BDB8000020D0000020BB830008D4
:1051B80099830008746A00081C6E00082DE9F04FF6
:1051C8008DB043680293837815469A07804640F16C
:1051D8000D8100240E78002E00F00A81252E0BD0B8
:1051E8004B1C03930134029B4146304698470028E4
:1051F800C0F2F6800399EDE74E788B1C252E0393B9
:10520800F0D00027B946BB46BBF11F0F38D8A6F12E
:105218002003102B0AD8DFE803F02A09093009090E
:10522800092109090928092D09091F00A6F13003D8
:10523800092B33D92A2E37D11BF0400F55F8043BE0
:1052480040F08280002BA7BF4BF0200B9946C3F19A
:1052580000094BF0280B01E04BF0010B039B13F8FE
:10526800016B0393002ECFD130E04BF0020B4BF0D3
:10527800040BF3E74BF0080BF0E74BF0100BEDE7EE
:10528800BBF17F0F19D8A6F13003092BD2D81BF038
:10529800400F03D00A2101FB0737DFE70A2101FB92
:1052A80009394BF0200BD9E72E2E06D11BF0400F01
:1052B80040F09E804BF0400BD0E76C2E31D02BD8BD
:1052C800682E36D06A2E3CD04C2E3AD0002F46F0AD
:1052D8002003B8BF2BF04002A3F16501BCBF1FFA41
:1052E80082FB0027022901D9612B2FD1073525F030
:1052F8000705DFF8ACA2083507271BF0080F66D0B2
:105308000AEB070B56465E4563D1A4EB0A0A06EB87
:105318000A02A9EB07096FE1742E9FD07A2E9DD05F
:10532800D4E71BF0800F18BF4BF4007B4BF0800BC9
:1053380094E71BF4807F18BF4BF4007B4BF4807B11
:105348008CE74BF4207B89E71F4687E7A6F16301CA
:10535800122900F2F080DFE811F013004F00EE0090
:10536800EE00EE00EE004F00EE00EE00EE00EE0064
:10537800EE00FE00E900EE00EE001B00EE00AF00BC
:1053880055F8043B8DF8183001270DF1180AB4E7D9
:1053980055F804AB834BBAF1000F08BF9A461BF0CF
:1053A800400F14BF39464FF0FF31504600F06DFEF4
:1053B8000746A2E7029B41462020984700280FDBBA
:1053C800013EB742F6D34C44A41BB14698E74E467B
:1053D800F7E716F8010B029B41469847002892DA36
:1053E80098F8023043F0040388F802304FF0FF3495
:1053F80020460DB0BDE8F08F1BF0800F34D01BF4B1
:10540800007F2CD0073525F00705AA4669685AF8A9
:10541800080B2BF010050029ADB237DA404261EBDA
:10542800410145F480650DF1180B0A235A4600F036
:1054380038FEA0EB0B0301936B0662D5019B25F0A8
:1054480001019F4289B240F3A180002E00F09980AB
:1054580015F0100240F09C80BB460D4623E0AA469A
:105468005AF8040BC117D4E7AA461BF4807F5AF8F0
:10547800041B01D10846F5E71BF4007F15BF48B2AD
:1054880008B241F3C01141F3C031C2E750EA010349
:10549800C9D11BF0400FC6D0002FC4D12BF0110288
:1054A80095B2BB46019740F2064115EA01021CBFBE
:1054B8000BF1010B00222CE02BF010021FFA82FBEB
:1054C8000A231BF0800C49D01BF400711DBF07355F
:1054D80025F00705AA46AA461ABF5AF8080B6968B4
:1054E8005AF8040B50EA010545D12BF016051BF0BC
:1054F800400FADB242D0002F40D12BF0170295B229
:10550800019715F0100248D0019B002E42D103F1FB
:10551800010B29075AD4EB0706D5D9456FDD019948
:10552800A9EB0B035F18CB465B4649E04BF0100B29
:1055380010237826C5E7782B04D1C6F1780343F009
:105548001003BEE7029B4146252098470028FFF636
:1055580047AF023447E608230026B2E7AA461BF401
:1055680080715AF8040BBDD01BF400711ABFC0B289
:10557800614680B2B6E72BF0060295B20DF1180B22
:1055880054E725F01105ADB2BB468CE70D46B8E7E8
:105598003B460D4603F1020BBBE7DDF804B082E79A
:1055A800DB830008D4830008CDE904324146029B1E
:1055B800202098470028FFF613AF049B059A013373
:1055C8009945F1DCA4EB0B01CC189B460AB3029B6E
:1055D8004146302098470028FFF602AF8EB90134C3
:1055E8002744019B391B994224DC1D465DBB019A67
:1055F800A9EB0B09224455461446914435E0019F16
:1056080092E7023441463046029B98470028E7DA81
:10561800E6E640F206410D42E2D015F0020F14BF53
:105628002B20202015F4806F04F10104414618BF97
:105638002D20E9E7029B414630209847002804F1D5
:105648000104CEDACCE606AB013D4146585D029B2B
:1056580098470028CADAC3E6029B414620209847AB
:10566800002804F10104FFF6BBAEA9EB0403002BEC
:10567800F2DCBFE5704700EBC10040884008704786
:10568800F8B50346FFF7F7FFB0FA80F0C0F11F0046
:1056980003EB800CCA00DCF81060171D0C460632BC
:1056A8008DB256B9012101FA00F0D9680143D960D9
:1056B800CCF81040DD539D52F8BDF1000431585A22
:1056C800D85303EBC0009E52C5805D52F4E72DE924
:1056D800F04706460D46174698462BB398F8004003
:1056E80093F80190DB78A40004EB430498F80230A7
:1056F8001C4444444FF0000ACA4509D3D8F8042092
:1057080008F1080339463046AC46BDE8F047604723
:1057180014F8013B48F823402046FAF79BFE013075
:1057280004440AF1010AE7E76FF01500BDE8F087C5
:105738000020704700F042B80FB407B504A951F82B
:10574800040B019100F03AF803B05DF804EB04B0E3
:105758007047002383F31188BFF36F8F0423184623
:1057680002DF70470FB407B504A951F8040B019183
:10577800FFF7E0FF03B05DF804EB04B07047704733
:105788000020704708B500F073FC0A220023FAF7DE
:10579800F7FC08BD0346BFF35B8F53E8000F421CBC
:1057A80043E800210029F8D1BFF35B8F704708B5A3
:1057B80000210846FBF7DEF9002008BD1FB50023CD
:1057C800CDE90201CDE900331A4619461846FBF720
:1057D80041FB05B05DF804FB70470020704770B5C9
:1057E8000E4615461946044618B9BDE87040FBF741
:1057F800B1BA33B1C2F34A231030120D184400F085
:10580800A7FCC4E900562046BDE87040FBF7BABAC9
:1058180007B5D1E900328DF80700526801210DF172
:1058280007009847002003B05DF804FB0A2838B544
:1058380004460D4602D10D20FFF7EAFF294620460F
:10584800FFF7E6FF002038BDF8B506460D461446BA
:105858001F4604B9F8BD214628463A46B047241ADF
:105868000544F6E710B5426881680446D2E900238A
:105878000068FFF7E9FF636800221A6010BD2DE990
:10588800F043054687B008460E8891F80090D1F895
:1058980008800C461746FBF741FB011EC6F382162B
:1058A800C9F3C2091EDB4846FBF7A0FA03462146A6
:1058B800608851F8102B0196C2F34A22002A01EBA6
:1058C8000204C0F30B1008BF00210022CDE9040731
:1058D800CDE90214009241462846FBF74BFB07B07E
:1058E800BDE8F0830023E2E743681B685B6800209B
:1058F8001961704743681B685A6801211175186857
:10590800FFF7B0BF70B543681D686B6818690C462F
:10591800FBF7C0F9214603460F222868BDE870400E
:1059280018477FB50BAB059303930A9B029300239B
:10593800CDE9003301221846FBF78CFA07B05DF871
:1059480004FB01460068FBF7EFBC7FB50BAB059382
:1059580003930A9B02930023CDE9003301221846E2
:10596800FBF778FA07B05DF804FB00210120FBF78C
:10597800DBBC61B662B680F31188BFF36F8F7047E6
:1059880072B6002383F31188BFF36F8FBFF34F8F75
:1059980030BF62B6BFF36F8F7047202809D9B0F1C6
:1059A800004F08D80138B0FA80F0C0F11F0040005D
:1059B8007047082070473E2070477FB50BAB0593B2
:1059C80003930A9B02930023CDE900330122184672
:1059D800FBF740FA07B05DF804FB08B5D1E90431DC
:1059E8009847002008BD08B5FCF7FEFB002008BD5D
:1059F80008B5062201210020FCF75EFC00221146B2
:105A08000620FCF711F9012108460722FCF754FC8F
:105A1800002211460720FCF707F90822012102207D
:105A2800FCF74AFC002211460820FCF7FDF8092281
:105A380001210320FCF740FC002211460920FCF755
:105A4800F3F80A2201210420FCF736FC0022114653
:105A58000A20FCF7E9F8052108461722FCF72CFC78
:105A6800002211461720FCF7DFF8282206210A2019
:105A7800FCF722FC002211462820FCF7D5F800206C
:105A880008BD0B68A3F11402082A82B012D803F1EA
:105A9800804303F5043348681A6802431A600B68A8
:105AA80003F1804303F5043300201B680193019B35
:105AB80002B070476FF08500FAE70B68A3F1140293
:105AC800082A9FBF03F1804303F5043349681A6825
